{
  "contractName": "NftMarket",
  "abi": [
    {
      "inputs": [],
      "stateMutability": "nonpayable",
      "type": "constructor"
    },
    {
      "anonymous": false,
      "inputs": [
        {
          "indexed": true,
          "internalType": "address",
          "name": "owner",
          "type": "address"
        },
        {
          "indexed": true,
          "internalType": "address",
          "name": "approved",
          "type": "address"
        },
        {
          "indexed": true,
          "internalType": "uint256",
          "name": "tokenId",
          "type": "uint256"
        }
      ],
      "name": "Approval",
      "type": "event"
    },
    {
      "anonymous": false,
      "inputs": [
        {
          "indexed": true,
          "internalType": "address",
          "name": "owner",
          "type": "address"
        },
        {
          "indexed": true,
          "internalType": "address",
          "name": "operator",
          "type": "address"
        },
        {
          "indexed": false,
          "internalType": "bool",
          "name": "approved",
          "type": "bool"
        }
      ],
      "name": "ApprovalForAll",
      "type": "event"
    },
    {
      "anonymous": false,
      "inputs": [
        {
          "indexed": true,
          "internalType": "uint256",
          "name": "tokenId",
          "type": "uint256"
        },
        {
          "indexed": false,
          "internalType": "uint256",
          "name": "price",
          "type": "uint256"
        },
        {
          "indexed": false,
          "internalType": "address",
          "name": "creator",
          "type": "address"
        },
        {
          "indexed": false,
          "internalType": "bool",
          "name": "isListed",
          "type": "bool"
        }
      ],
      "name": "NftItemCreated",
      "type": "event"
    },
    {
      "anonymous": false,
      "inputs": [
        {
          "indexed": true,
          "internalType": "uint256",
          "name": "tokenId",
          "type": "uint256"
        },
        {
          "indexed": false,
          "internalType": "uint256",
          "name": "price",
          "type": "uint256"
        },
        {
          "indexed": false,
          "internalType": "address",
          "name": "from",
          "type": "address"
        },
        {
          "indexed": false,
          "internalType": "address",
          "name": "to",
          "type": "address"
        },
        {
          "indexed": false,
          "internalType": "uint256",
          "name": "time",
          "type": "uint256"
        }
      ],
      "name": "NftTransactions",
      "type": "event"
    },
    {
      "anonymous": false,
      "inputs": [
        {
          "indexed": true,
          "internalType": "address",
          "name": "previousOwner",
          "type": "address"
        },
        {
          "indexed": true,
          "internalType": "address",
          "name": "newOwner",
          "type": "address"
        }
      ],
      "name": "OwnershipTransferred",
      "type": "event"
    },
    {
      "anonymous": false,
      "inputs": [
        {
          "indexed": true,
          "internalType": "address",
          "name": "from",
          "type": "address"
        },
        {
          "indexed": true,
          "internalType": "address",
          "name": "to",
          "type": "address"
        },
        {
          "indexed": true,
          "internalType": "uint256",
          "name": "tokenId",
          "type": "uint256"
        }
      ],
      "name": "Transfer",
      "type": "event"
    },
    {
      "inputs": [
        {
          "internalType": "address",
          "name": "to",
          "type": "address"
        },
        {
          "internalType": "uint256",
          "name": "tokenId",
          "type": "uint256"
        }
      ],
      "name": "approve",
      "outputs": [],
      "stateMutability": "nonpayable",
      "type": "function"
    },
    {
      "inputs": [
        {
          "internalType": "address",
          "name": "owner",
          "type": "address"
        }
      ],
      "name": "balanceOf",
      "outputs": [
        {
          "internalType": "uint256",
          "name": "",
          "type": "uint256"
        }
      ],
      "stateMutability": "view",
      "type": "function",
      "constant": true
    },
    {
      "inputs": [
        {
          "internalType": "uint256",
          "name": "tokenId",
          "type": "uint256"
        }
      ],
      "name": "getApproved",
      "outputs": [
        {
          "internalType": "address",
          "name": "",
          "type": "address"
        }
      ],
      "stateMutability": "view",
      "type": "function",
      "constant": true
    },
    {
      "inputs": [
        {
          "internalType": "address",
          "name": "owner",
          "type": "address"
        },
        {
          "internalType": "address",
          "name": "operator",
          "type": "address"
        }
      ],
      "name": "isApprovedForAll",
      "outputs": [
        {
          "internalType": "bool",
          "name": "",
          "type": "bool"
        }
      ],
      "stateMutability": "view",
      "type": "function",
      "constant": true
    },
    {
      "inputs": [],
      "name": "listingPrice",
      "outputs": [
        {
          "internalType": "uint256",
          "name": "",
          "type": "uint256"
        }
      ],
      "stateMutability": "view",
      "type": "function",
      "constant": true
    },
    {
      "inputs": [],
      "name": "name",
      "outputs": [
        {
          "internalType": "string",
          "name": "",
          "type": "string"
        }
      ],
      "stateMutability": "view",
      "type": "function",
      "constant": true
    },
    {
      "inputs": [],
      "name": "owner",
      "outputs": [
        {
          "internalType": "address",
          "name": "",
          "type": "address"
        }
      ],
      "stateMutability": "view",
      "type": "function",
      "constant": true
    },
    {
      "inputs": [
        {
          "internalType": "uint256",
          "name": "tokenId",
          "type": "uint256"
        }
      ],
      "name": "ownerOf",
      "outputs": [
        {
          "internalType": "address",
          "name": "",
          "type": "address"
        }
      ],
      "stateMutability": "view",
      "type": "function",
      "constant": true
    },
    {
      "inputs": [],
      "name": "renounceOwnership",
      "outputs": [],
      "stateMutability": "nonpayable",
      "type": "function"
    },
    {
      "inputs": [
        {
          "internalType": "address",
          "name": "from",
          "type": "address"
        },
        {
          "internalType": "address",
          "name": "to",
          "type": "address"
        },
        {
          "internalType": "uint256",
          "name": "tokenId",
          "type": "uint256"
        }
      ],
      "name": "safeTransferFrom",
      "outputs": [],
      "stateMutability": "nonpayable",
      "type": "function"
    },
    {
      "inputs": [
        {
          "internalType": "address",
          "name": "from",
          "type": "address"
        },
        {
          "internalType": "address",
          "name": "to",
          "type": "address"
        },
        {
          "internalType": "uint256",
          "name": "tokenId",
          "type": "uint256"
        },
        {
          "internalType": "bytes",
          "name": "_data",
          "type": "bytes"
        }
      ],
      "name": "safeTransferFrom",
      "outputs": [],
      "stateMutability": "nonpayable",
      "type": "function"
    },
    {
      "inputs": [
        {
          "internalType": "address",
          "name": "operator",
          "type": "address"
        },
        {
          "internalType": "bool",
          "name": "approved",
          "type": "bool"
        }
      ],
      "name": "setApprovalForAll",
      "outputs": [],
      "stateMutability": "nonpayable",
      "type": "function"
    },
    {
      "inputs": [
        {
          "internalType": "bytes4",
          "name": "interfaceId",
          "type": "bytes4"
        }
      ],
      "name": "supportsInterface",
      "outputs": [
        {
          "internalType": "bool",
          "name": "",
          "type": "bool"
        }
      ],
      "stateMutability": "view",
      "type": "function",
      "constant": true
    },
    {
      "inputs": [],
      "name": "symbol",
      "outputs": [
        {
          "internalType": "string",
          "name": "",
          "type": "string"
        }
      ],
      "stateMutability": "view",
      "type": "function",
      "constant": true
    },
    {
      "inputs": [
        {
          "internalType": "uint256",
          "name": "tokenId",
          "type": "uint256"
        }
      ],
      "name": "tokenURI",
      "outputs": [
        {
          "internalType": "string",
          "name": "",
          "type": "string"
        }
      ],
      "stateMutability": "view",
      "type": "function",
      "constant": true
    },
    {
      "inputs": [
        {
          "internalType": "address",
          "name": "from",
          "type": "address"
        },
        {
          "internalType": "address",
          "name": "to",
          "type": "address"
        },
        {
          "internalType": "uint256",
          "name": "tokenId",
          "type": "uint256"
        }
      ],
      "name": "transferFrom",
      "outputs": [],
      "stateMutability": "nonpayable",
      "type": "function"
    },
    {
      "inputs": [
        {
          "internalType": "address",
          "name": "newOwner",
          "type": "address"
        }
      ],
      "name": "transferOwnership",
      "outputs": [],
      "stateMutability": "nonpayable",
      "type": "function"
    },
    {
      "inputs": [
        {
          "internalType": "uint256",
          "name": "newPrice",
          "type": "uint256"
        }
      ],
      "name": "setListingPrice",
      "outputs": [],
      "stateMutability": "nonpayable",
      "type": "function"
    },
    {
      "inputs": [
        {
          "internalType": "uint256",
          "name": "tokenId",
          "type": "uint256"
        }
      ],
      "name": "getNftItem",
      "outputs": [
        {
          "components": [
            {
              "internalType": "uint256",
              "name": "tokenId",
              "type": "uint256"
            },
            {
              "internalType": "uint256",
              "name": "price",
              "type": "uint256"
            },
            {
              "internalType": "address",
              "name": "creator",
              "type": "address"
            },
            {
              "internalType": "bool",
              "name": "isListed",
              "type": "bool"
            }
          ],
          "internalType": "struct NftMarket.NftItem",
          "name": "",
          "type": "tuple"
        }
      ],
      "stateMutability": "view",
      "type": "function",
      "constant": true
    },
    {
      "inputs": [],
      "name": "listedItemsCount",
      "outputs": [
        {
          "internalType": "uint256",
          "name": "",
          "type": "uint256"
        }
      ],
      "stateMutability": "view",
      "type": "function",
      "constant": true
    },
    {
      "inputs": [
        {
          "internalType": "string",
          "name": "tokenURI",
          "type": "string"
        }
      ],
      "name": "tokenURIExists",
      "outputs": [
        {
          "internalType": "bool",
          "name": "",
          "type": "bool"
        }
      ],
      "stateMutability": "view",
      "type": "function",
      "constant": true
    },
    {
      "inputs": [],
      "name": "totalSupply",
      "outputs": [
        {
          "internalType": "uint256",
          "name": "",
          "type": "uint256"
        }
      ],
      "stateMutability": "view",
      "type": "function",
      "constant": true
    },
    {
      "inputs": [
        {
          "internalType": "uint256",
          "name": "index",
          "type": "uint256"
        }
      ],
      "name": "tokenByIndex",
      "outputs": [
        {
          "internalType": "uint256",
          "name": "",
          "type": "uint256"
        }
      ],
      "stateMutability": "view",
      "type": "function",
      "constant": true
    },
    {
      "inputs": [
        {
          "internalType": "address",
          "name": "owner",
          "type": "address"
        },
        {
          "internalType": "uint256",
          "name": "index",
          "type": "uint256"
        }
      ],
      "name": "tokenOfOwnerByIndex",
      "outputs": [
        {
          "internalType": "uint256",
          "name": "",
          "type": "uint256"
        }
      ],
      "stateMutability": "view",
      "type": "function",
      "constant": true
    },
    {
      "inputs": [],
      "name": "getAllNftsOnSale",
      "outputs": [
        {
          "components": [
            {
              "internalType": "uint256",
              "name": "tokenId",
              "type": "uint256"
            },
            {
              "internalType": "uint256",
              "name": "price",
              "type": "uint256"
            },
            {
              "internalType": "address",
              "name": "creator",
              "type": "address"
            },
            {
              "internalType": "bool",
              "name": "isListed",
              "type": "bool"
            }
          ],
          "internalType": "struct NftMarket.NftItem[]",
          "name": "",
          "type": "tuple[]"
        }
      ],
      "stateMutability": "view",
      "type": "function",
      "constant": true
    },
    {
      "inputs": [],
      "name": "getOwnedNfts",
      "outputs": [
        {
          "components": [
            {
              "internalType": "uint256",
              "name": "tokenId",
              "type": "uint256"
            },
            {
              "internalType": "uint256",
              "name": "price",
              "type": "uint256"
            },
            {
              "internalType": "address",
              "name": "creator",
              "type": "address"
            },
            {
              "internalType": "bool",
              "name": "isListed",
              "type": "bool"
            }
          ],
          "internalType": "struct NftMarket.NftItem[]",
          "name": "",
          "type": "tuple[]"
        }
      ],
      "stateMutability": "view",
      "type": "function",
      "constant": true
    },
    {
      "inputs": [
        {
          "internalType": "string",
          "name": "tokenURI",
          "type": "string"
        },
        {
          "internalType": "uint256",
          "name": "price",
          "type": "uint256"
        }
      ],
      "name": "mintToken",
      "outputs": [
        {
          "internalType": "uint256",
          "name": "",
          "type": "uint256"
        }
      ],
      "stateMutability": "payable",
      "type": "function",
      "payable": true
    },
    {
      "inputs": [
        {
          "internalType": "uint256",
          "name": "tokenId",
          "type": "uint256"
        }
      ],
      "name": "buyNft",
      "outputs": [],
      "stateMutability": "payable",
      "type": "function",
      "payable": true
    },
    {
      "inputs": [
        {
          "internalType": "uint256",
          "name": "tokenId",
          "type": "uint256"
        },
        {
          "internalType": "uint256",
          "name": "newPrice",
          "type": "uint256"
        }
      ],
      "name": "placeNftOnSale",
      "outputs": [],
      "stateMutability": "payable",
      "type": "function",
      "payable": true
    }
  ],
  "bytecode": "0x60806040526658d15e176280006008553480156200001c57600080fd5b506040518060400160405280600381526020017f41424300000000000000000000000000000000000000000000000000000000008152506040518060400160405280600481526020017f56544b56000000000000000000000000000000000000000000000000000000008152508160009080519060200190620000a1929190620001b1565b508060019080519060200190620000ba929190620001b1565b505050620000dd620000d1620000e360201b60201c565b620000eb60201b60201c565b620002c5565b600033905090565b6000600760009054906101000a900473ffffffffffffffffffffffffffffffffffffffff16905081600760006101000a81548173ffffffffffffffffffffffffffffffffffffffff021916908373ffffffffffffffffffffffffffffffffffffffff1602179055508173ffffffffffffffffffffffffffffffffffffffff168173ffffffffffffffffffffffffffffffffffffffff167f8be0079c531659141344cd1fd0a4f28419497f9722a3daafe3b4186f6b6457e060405160405180910390a35050565b828054620001bf9062000290565b90600052602060002090601f016020900481019282620001e357600085556200022f565b82601f10620001fe57805160ff19168380011785556200022f565b828001600101855582156200022f579182015b828111156200022e57825182559160200191906001019062000211565b5b5090506200023e919062000242565b5090565b5b808211156200025d57600081600090555060010162000243565b5090565b7f4e487b7100000000000000000000000000000000000000000000000000000000600052602260045260246000fd5b60006002820490506001821680620002a957607f821691505b602082108103620002bf57620002be62000261565b5b50919050565b614ae080620002d56000396000f3fe6080604052600436106101c25760003560e01c80636f1a0af5116100f7578063a22cb46511610095578063c87b56dd11610064578063c87b56dd14610651578063ccb4918d1461068e578063e985e9c5146106b9578063f2fde38b146106f6576101c2565b8063a22cb465146105a4578063b88d4fde146105cd578063c046372c146105f6578063c78f19f914610626576101c2565b8063715018a6116100d1578063715018a61461050e5780637c726b69146105255780638da5cb5b1461054e57806395d89b4114610579576101c2565b80636f1a0af51461046957806370a08231146104a657806370cbcb43146104e3576101c2565b8063243adbdd1161016457806342842e0e1161013e57806342842e0e1461038957806343d32ae7146103b25780634f6ccce7146103ef5780636352211e1461042c576101c2565b8063243adbdd146103055780632f745c591461032157806336b536be1461035e576101c2565b8063095ea7b3116101a0578063095ea7b31461026c57806318160ddd1461029557806321f422e5146102c057806323b872dd146102dc576101c2565b806301ffc9a7146101c757806306fdde0314610204578063081812fc1461022f575b600080fd5b3480156101d357600080fd5b506101ee60048036038101906101e99190613046565b61071f565b6040516101fb919061308e565b60405180910390f35b34801561021057600080fd5b50610219610801565b6040516102269190613142565b60405180910390f35b34801561023b57600080fd5b506102566004803603810190610251919061319a565b610893565b6040516102639190613208565b60405180910390f35b34801561027857600080fd5b50610293600480360381019061028e919061324f565b610918565b005b3480156102a157600080fd5b506102aa610a2f565b6040516102b7919061329e565b60405180910390f35b6102da60048036038101906102d591906132b9565b610a3c565b005b3480156102e857600080fd5b5061030360048036038101906102fe91906132f9565b610bb8565b005b61031f600480360381019061031a919061319a565b610c18565b005b34801561032d57600080fd5b506103486004803603810190610343919061324f565b610dbe565b604051610355919061329e565b60405180910390f35b34801561036a57600080fd5b50610373610e63565b604051610380919061347d565b60405180910390f35b34801561039557600080fd5b506103b060048036038101906103ab91906132f9565b610ffd565b005b3480156103be57600080fd5b506103d960048036038101906103d491906135d4565b61101d565b6040516103e6919061308e565b60405180910390f35b3480156103fb57600080fd5b506104166004803603810190610411919061319a565b611059565b604051610423919061329e565b60405180910390f35b34801561043857600080fd5b50610453600480360381019061044e919061319a565b6110ca565b6040516104609190613208565b60405180910390f35b34801561047557600080fd5b50610490600480360381019061048b919061319a565b61117b565b60405161049d9190613672565b60405180910390f35b3480156104b257600080fd5b506104cd60048036038101906104c8919061368d565b61122d565b6040516104da919061329e565b60405180910390f35b3480156104ef57600080fd5b506104f86112e4565b604051610505919061347d565b60405180910390f35b34801561051a57600080fd5b50610523611448565b005b34801561053157600080fd5b5061054c6004803603810190610547919061319a565b6114d0565b005b34801561055a57600080fd5b50610563611599565b6040516105709190613208565b60405180910390f35b34801561058557600080fd5b5061058e6115c3565b60405161059b9190613142565b60405180910390f35b3480156105b057600080fd5b506105cb60048036038101906105c691906136e6565b611655565b005b3480156105d957600080fd5b506105f460048036038101906105ef91906137c7565b61166b565b005b610610600480360381019061060b919061384a565b6116cd565b60405161061d919061329e565b60405180910390f35b34801561063257600080fd5b5061063b6117dd565b604051610648919061329e565b60405180910390f35b34801561065d57600080fd5b506106786004803603810190610673919061319a565b6117e3565b6040516106859190613142565b60405180910390f35b34801561069a57600080fd5b506106a3611934565b6040516106b0919061329e565b60405180910390f35b3480156106c557600080fd5b506106e060048036038101906106db91906138a6565b611945565b6040516106ed919061308e565b60405180910390f35b34801561070257600080fd5b5061071d6004803603810190610718919061368d565b6119d9565b005b60007f80ac58cd000000000000000000000000000000000000000000000000000000007bffffffffffffffffffffffffffffffffffffffffffffffffffffffff1916827bffffffffffffffffffffffffffffffffffffffffffffffffffffffff191614806107ea57507f5b5e139f000000000000000000000000000000000000000000000000000000007bffffffffffffffffffffffffffffffffffffffffffffffffffffffff1916827bffffffffffffffffffffffffffffffffffffffffffffffffffffffff1916145b806107fa57506107f982611ad0565b5b9050919050565b60606000805461081090613915565b80601f016020809104026020016040519081016040528092919081815260200182805461083c90613915565b80156108895780601f1061085e57610100808354040283529160200191610889565b820191906000526020600020905b81548152906001019060200180831161086c57829003601f168201915b5050505050905090565b600061089e82611b3a565b6108dd576040517f08c379a00000000000000000000000000000000000000000000000000000000081526004016108d4906139b8565b60405180910390fd5b6004600083815260200190815260200160002060009054906101000a900473ffffffffffffffffffffffffffffffffffffffff169050919050565b6000610923826110ca565b90508073ffffffffffffffffffffffffffffffffffffffff168373ffffffffffffffffffffffffffffffffffffffff1603610993576040517f08c379a000000000000000000000000000000000000000000000000000000000815260040161098a90613a4a565b60405180910390fd5b8073ffffffffffffffffffffffffffffffffffffffff166109b2611ba6565b73ffffffffffffffffffffffffffffffffffffffff1614806109e157506109e0816109db611ba6565b611945565b5b610a20576040517f08c379a0000000000000000000000000000000000000000000000000000000008152600401610a1790613adc565b60405180910390fd5b610a2a8383611bae565b505050565b6000600f80549050905090565b3373ffffffffffffffffffffffffffffffffffffffff16610a5c836110ca565b73ffffffffffffffffffffffffffffffffffffffff1614610ab2576040517f08c379a0000000000000000000000000000000000000000000000000000000008152600401610aa990613b48565b60405180910390fd5b60001515600c600084815260200190815260200160002060020160149054906101000a900460ff16151514610b1c576040517f08c379a0000000000000000000000000000000000000000000000000000000008152600401610b1390613bb4565b60405180910390fd5b6008543414610b60576040517f08c379a0000000000000000000000000000000000000000000000000000000008152600401610b5790613c46565b60405180910390fd5b6001600c600084815260200190815260200160002060020160146101000a81548160ff02191690831515021790555080600c600084815260200190815260200160002060010181905550610bb46009611c67565b5050565b610bc9610bc3611ba6565b82611c7d565b610c08576040517f08c379a0000000000000000000000000000000000000000000000000000000008152600401610bff90613cd8565b60405180910390fd5b610c13838383611d5b565b505050565b6000600c60008381526020019081526020016000206001015490506000610c3e836110ca565b90508073ffffffffffffffffffffffffffffffffffffffff163373ffffffffffffffffffffffffffffffffffffffff1603610cae576040517f08c379a0000000000000000000000000000000000000000000000000000000008152600401610ca590613d44565b60405180910390fd5b813414610cf0576040517f08c379a0000000000000000000000000000000000000000000000000000000008152600401610ce790613db0565b60405180910390fd5b6000600c600085815260200190815260200160002060020160146101000a81548160ff021916908315150217905550610d296009611fc1565b610d34813385611d5b565b8073ffffffffffffffffffffffffffffffffffffffff166108fc349081150290604051600060405180830381858888f19350505050158015610d7a573d6000803e3d6000fd5b50827f4a161b570f7064c0f57d89489eb656920c0daaa73589448066059278488c58d134833342604051610db19493929190613dd0565b60405180910390a2505050565b6000610dc98361122d565b8210610e0a576040517f08c379a0000000000000000000000000000000000000000000000000000000008152600401610e0190613e61565b60405180910390fd5b600d60008473ffffffffffffffffffffffffffffffffffffffff1673ffffffffffffffffffffffffffffffffffffffff168152602001908152602001600020600083815260200190815260200160002054905092915050565b60606000610e6f610a2f565b9050600080610e7e600961201d565b67ffffffffffffffff811115610e9757610e966134a9565b5b604051908082528060200260200182016040528015610ed057816020015b610ebd612ef7565b815260200190600190039081610eb55790505b50905060005b83811015610ff3576000610ee982611059565b90506000600c60008381526020019081526020016000209050600115158160020160149054906101000a900460ff16151503610fde578060405180608001604052908160008201548152602001600182015481526020016002820160009054906101000a900473ffffffffffffffffffffffffffffffffffffffff1673ffffffffffffffffffffffffffffffffffffffff1673ffffffffffffffffffffffffffffffffffffffff1681526020016002820160149054906101000a900460ff161515151581525050848681518110610fc357610fc2613e81565b5b6020026020010181905250600185610fdb9190613edf565b94505b50508080610feb90613f35565b915050610ed6565b5080935050505090565b6110188383836040518060200160405280600081525061166b565b505050565b600060011515600b836040516110339190613fb9565b908152602001604051809103902060009054906101000a900460ff161515149050919050565b6000611063610a2f565b82106110a4576040517f08c379a000000000000000000000000000000000000000000000000000000000815260040161109b90613e61565b60405180910390fd5b600f82815481106110b8576110b7613e81565b5b90600052602060002001549050919050565b6000806002600084815260200190815260200160002060009054906101000a900473ffffffffffffffffffffffffffffffffffffffff169050600073ffffffffffffffffffffffffffffffffffffffff168173ffffffffffffffffffffffffffffffffffffffff1603611172576040517f08c379a000000000000000000000000000000000000000000000000000000000815260040161116990614042565b60405180910390fd5b80915050919050565b611183612ef7565b600c600083815260200190815260200160002060405180608001604052908160008201548152602001600182015481526020016002820160009054906101000a900473ffffffffffffffffffffffffffffffffffffffff1673ffffffffffffffffffffffffffffffffffffffff1673ffffffffffffffffffffffffffffffffffffffff1681526020016002820160149054906101000a900460ff1615151515815250509050919050565b60008073ffffffffffffffffffffffffffffffffffffffff168273ffffffffffffffffffffffffffffffffffffffff160361129d576040517f08c379a0000000000000000000000000000000000000000000000000000000008152600401611294906140d4565b60405180910390fd5b600360008373ffffffffffffffffffffffffffffffffffffffff1673ffffffffffffffffffffffffffffffffffffffff168152602001908152602001600020549050919050565b606060006112f13361122d565b905060008167ffffffffffffffff81111561130f5761130e6134a9565b5b60405190808252806020026020018201604052801561134857816020015b611335612ef7565b81526020019060019003908161132d5790505b50905060005b8281101561143f5760006113623383610dbe565b90506000600c600083815260200190815260200160002090508060405180608001604052908160008201548152602001600182015481526020016002820160009054906101000a900473ffffffffffffffffffffffffffffffffffffffff1673ffffffffffffffffffffffffffffffffffffffff1673ffffffffffffffffffffffffffffffffffffffff1681526020016002820160149054906101000a900460ff16151515158152505084848151811061141f5761141e613e81565b5b60200260200101819052505050808061143790613f35565b91505061134e565b50809250505090565b611450611ba6565b73ffffffffffffffffffffffffffffffffffffffff1661146e611599565b73ffffffffffffffffffffffffffffffffffffffff16146114c4576040517f08c379a00000000000000000000000000000000000000000000000000000000081526004016114bb90614140565b60405180910390fd5b6114ce600061202b565b565b6114d8611ba6565b73ffffffffffffffffffffffffffffffffffffffff166114f6611599565b73ffffffffffffffffffffffffffffffffffffffff161461154c576040517f08c379a000000000000000000000000000000000000000000000000000000000815260040161154390614140565b60405180910390fd5b6000811161158f576040517f08c379a0000000000000000000000000000000000000000000000000000000008152600401611586906141ac565b60405180910390fd5b8060088190555050565b6000600760009054906101000a900473ffffffffffffffffffffffffffffffffffffffff16905090565b6060600180546115d290613915565b80601f01602080910402602001604051908101604052809291908181526020018280546115fe90613915565b801561164b5780601f106116205761010080835404028352916020019161164b565b820191906000526020600020905b81548152906001019060200180831161162e57829003601f168201915b5050505050905090565b611667611660611ba6565b83836120f1565b5050565b61167c611676611ba6565b83611c7d565b6116bb576040517f08c379a00000000000000000000000000000000000000000000000000000000081526004016116b290613cd8565b60405180910390fd5b6116c78484848461225d565b50505050565b60006116d88361101d565b15611718576040517f08c379a000000000000000000000000000000000000000000000000000000000815260040161170f90614218565b60405180910390fd5b600854341461175c576040517f08c379a000000000000000000000000000000000000000000000000000000000815260040161175390613c46565b60405180910390fd5b611766600a611c67565b6117706009611c67565b600061177c600a61201d565b905061178833826122b9565b61179281856122d7565b61179c818461234b565b6001600b856040516117ae9190613fb9565b908152602001604051809103902060006101000a81548160ff0219169083151502179055508091505092915050565b60085481565b60606117ee82611b3a565b61182d576040517f08c379a0000000000000000000000000000000000000000000000000000000008152600401611824906142aa565b60405180910390fd5b600060066000848152602001908152602001600020805461184d90613915565b80601f016020809104026020016040519081016040528092919081815260200182805461187990613915565b80156118c65780601f1061189b576101008083540402835291602001916118c6565b820191906000526020600020905b8154815290600101906020018083116118a957829003601f168201915b5050505050905060006118d76124d9565b905060008151036118ec57819250505061192f565b6000825111156119215780826040516020016119099291906142ca565b6040516020818303038152906040529250505061192f565b61192a846124f0565b925050505b919050565b6000611940600961201d565b905090565b6000600560008473ffffffffffffffffffffffffffffffffffffffff1673ffffffffffffffffffffffffffffffffffffffff16815260200190815260200160002060008373ffffffffffffffffffffffffffffffffffffffff1673ffffffffffffffffffffffffffffffffffffffff16815260200190815260200160002060009054906101000a900460ff16905092915050565b6119e1611ba6565b73ffffffffffffffffffffffffffffffffffffffff166119ff611599565b73ffffffffffffffffffffffffffffffffffffffff1614611a55576040517f08c379a0000000000000000000000000000000000000000000000000000000008152600401611a4c90614140565b60405180910390fd5b600073ffffffffffffffffffffffffffffffffffffffff168173ffffffffffffffffffffffffffffffffffffffff1603611ac4576040517f08c379a0000000000000000000000000000000000000000000000000000000008152600401611abb90614360565b60405180910390fd5b611acd8161202b565b50565b60007f01ffc9a7000000000000000000000000000000000000000000000000000000007bffffffffffffffffffffffffffffffffffffffffffffffffffffffff1916827bffffffffffffffffffffffffffffffffffffffffffffffffffffffff1916149050919050565b60008073ffffffffffffffffffffffffffffffffffffffff166002600084815260200190815260200160002060009054906101000a900473ffffffffffffffffffffffffffffffffffffffff1673ffffffffffffffffffffffffffffffffffffffff1614159050919050565b600033905090565b816004600083815260200190815260200160002060006101000a81548173ffffffffffffffffffffffffffffffffffffffff021916908373ffffffffffffffffffffffffffffffffffffffff160217905550808273ffffffffffffffffffffffffffffffffffffffff16611c21836110ca565b73ffffffffffffffffffffffffffffffffffffffff167f8c5be1e5ebec7d5bd14f71427d1e84f3dd0314c0f7b2291e5b200ac8c7c3b92560405160405180910390a45050565b6001816000016000828254019250508190555050565b6000611c8882611b3a565b611cc7576040517f08c379a0000000000000000000000000000000000000000000000000000000008152600401611cbe906143f2565b60405180910390fd5b6000611cd2836110ca565b90508073ffffffffffffffffffffffffffffffffffffffff168473ffffffffffffffffffffffffffffffffffffffff161480611d145750611d138185611945565b5b80611d5257508373ffffffffffffffffffffffffffffffffffffffff16611d3a84610893565b73ffffffffffffffffffffffffffffffffffffffff16145b91505092915050565b8273ffffffffffffffffffffffffffffffffffffffff16611d7b826110ca565b73ffffffffffffffffffffffffffffffffffffffff1614611dd1576040517f08c379a0000000000000000000000000000000000000000000000000000000008152600401611dc890614484565b60405180910390fd5b600073ffffffffffffffffffffffffffffffffffffffff168273ffffffffffffffffffffffffffffffffffffffff1603611e40576040517f08c379a0000000000000000000000000000000000000000000000000000000008152600401611e3790614516565b60405180910390fd5b611e4b838383612597565b611e56600082611bae565b6001600360008573ffffffffffffffffffffffffffffffffffffffff1673ffffffffffffffffffffffffffffffffffffffff1681526020019081526020016000206000828254611ea69190614536565b925050819055506001600360008473ffffffffffffffffffffffffffffffffffffffff1673ffffffffffffffffffffffffffffffffffffffff1681526020019081526020016000206000828254611efd9190613edf565b92505081905550816002600083815260200190815260200160002060006101000a81548173ffffffffffffffffffffffffffffffffffffffff021916908373ffffffffffffffffffffffffffffffffffffffff160217905550808273ffffffffffffffffffffffffffffffffffffffff168473ffffffffffffffffffffffffffffffffffffffff167fddf252ad1be2c89b69c2b068fc378daa952ba7f163c4a11628f55a4df523b3ef60405160405180910390a4611fbc8383836126a9565b505050565b6000816000015490506000811161200d576040517f08c379a0000000000000000000000000000000000000000000000000000000008152600401612004906145b6565b60405180910390fd5b6001810382600001819055505050565b600081600001549050919050565b6000600760009054906101000a900473ffffffffffffffffffffffffffffffffffffffff16905081600760006101000a81548173ffffffffffffffffffffffffffffffffffffffff021916908373ffffffffffffffffffffffffffffffffffffffff1602179055508173ffffffffffffffffffffffffffffffffffffffff168173ffffffffffffffffffffffffffffffffffffffff167f8be0079c531659141344cd1fd0a4f28419497f9722a3daafe3b4186f6b6457e060405160405180910390a35050565b8173ffffffffffffffffffffffffffffffffffffffff168373ffffffffffffffffffffffffffffffffffffffff160361215f576040517f08c379a000000000000000000000000000000000000000000000000000000000815260040161215690614622565b60405180910390fd5b80600560008573ffffffffffffffffffffffffffffffffffffffff1673ffffffffffffffffffffffffffffffffffffffff16815260200190815260200160002060008473ffffffffffffffffffffffffffffffffffffffff1673ffffffffffffffffffffffffffffffffffffffff16815260200190815260200160002060006101000a81548160ff0219169083151502179055508173ffffffffffffffffffffffffffffffffffffffff168373ffffffffffffffffffffffffffffffffffffffff167f17307eab39ab6107e8899845ad3d59bd9653f200f220920489ca2b5937696c3183604051612250919061308e565b60405180910390a3505050565b612268848484611d5b565b612274848484846126ae565b6122b3576040517f08c379a00000000000000000000000000000000000000000000000000000000081526004016122aa906146b4565b60405180910390fd5b50505050565b6122d3828260405180602001604052806000815250612835565b5050565b6122e082611b3a565b61231f576040517f08c379a000000000000000000000000000000000000000000000000000000000815260040161231690614746565b60405180910390fd5b80600660008481526020019081526020016000209080519060200190612346929190612f37565b505050565b6000811161238e576040517f08c379a0000000000000000000000000000000000000000000000000000000008152600401612385906141ac565b60405180910390fd5b60405180608001604052808381526020018281526020013373ffffffffffffffffffffffffffffffffffffffff16815260200160011515815250600c6000848152602001908152602001600020600082015181600001556020820151816001015560408201518160020160006101000a81548173ffffffffffffffffffffffffffffffffffffffff021916908373ffffffffffffffffffffffffffffffffffffffff16021790555060608201518160020160146101000a81548160ff021916908315150217905550905050817f470031062672bc0246e132c723a729c4676710ec663a29e86c88678032daddea8233600160405161248e93929190614766565b60405180910390a2817f4a161b570f7064c0f57d89489eb656920c0daaa73589448066059278488c58d182600033426040516124cd9493929190613dd0565b60405180910390a25050565b606060405180602001604052806000815250905090565b60606124fb82611b3a565b61253a576040517f08c379a00000000000000000000000000000000000000000000000000000000081526004016125319061480f565b60405180910390fd5b60006125446124d9565b90506000815111612564576040518060200160405280600081525061258f565b8061256e84612890565b60405160200161257f9291906142ca565b6040516020818303038152906040525b915050919050565b6125a28383836129f0565b600073ffffffffffffffffffffffffffffffffffffffff168373ffffffffffffffffffffffffffffffffffffffff16036125e4576125df816129f5565b612623565b8173ffffffffffffffffffffffffffffffffffffffff168373ffffffffffffffffffffffffffffffffffffffff1614612622576126218382612a3e565b5b5b600073ffffffffffffffffffffffffffffffffffffffff168273ffffffffffffffffffffffffffffffffffffffff16036126655761266081612bab565b6126a4565b8273ffffffffffffffffffffffffffffffffffffffff168273ffffffffffffffffffffffffffffffffffffffff16146126a3576126a28282612c7c565b5b5b505050565b505050565b60006126cf8473ffffffffffffffffffffffffffffffffffffffff16612cfb565b15612828578373ffffffffffffffffffffffffffffffffffffffff1663150b7a026126f8611ba6565b8786866040518563ffffffff1660e01b815260040161271a9493929190614884565b6020604051808303816000875af192505050801561275657506040513d601f19601f8201168201806040525081019061275391906148e5565b60015b6127d8573d8060008114612786576040519150601f19603f3d011682016040523d82523d6000602084013e61278b565b606091505b5060008151036127d0576040517f08c379a00000000000000000000000000000000000000000000000000000000081526004016127c7906146b4565b60405180910390fd5b805181602001fd5b63150b7a0260e01b7bffffffffffffffffffffffffffffffffffffffffffffffffffffffff1916817bffffffffffffffffffffffffffffffffffffffffffffffffffffffff19161491505061282d565b600190505b949350505050565b61283f8383612d1e565b61284c60008484846126ae565b61288b576040517f08c379a0000000000000000000000000000000000000000000000000000000008152600401612882906146b4565b60405180910390fd5b505050565b6060600082036128d7576040518060400160405280600181526020017f300000000000000000000000000000000000000000000000000000000000000081525090506129eb565b600082905060005b600082146129095780806128f290613f35565b915050600a826129029190614941565b91506128df565b60008167ffffffffffffffff811115612925576129246134a9565b5b6040519080825280601f01601f1916602001820160405280156129575781602001600182028036833780820191505090505b5090505b600085146129e4576001826129709190614536565b9150600a8561297f9190614972565b603061298b9190613edf565b60f81b8183815181106129a1576129a0613e81565b5b60200101907effffffffffffffffffffffffffffffffffffffffffffffffffffffffffffff1916908160001a905350600a856129dd9190614941565b945061295b565b8093505050505b919050565b505050565b600f805490506010600083815260200190815260200160002081905550600f81908060018154018082558091505060019003906000526020600020016000909190919091505550565b60006001612a4b8461122d565b612a559190614536565b90506000600e6000848152602001908152602001600020549050818114612b3a576000600d60008673ffffffffffffffffffffffffffffffffffffffff1673ffffffffffffffffffffffffffffffffffffffff168152602001908152602001600020600084815260200190815260200160002054905080600d60008773ffffffffffffffffffffffffffffffffffffffff1673ffffffffffffffffffffffffffffffffffffffff16815260200190815260200160002060008481526020019081526020016000208190555081600e600083815260200190815260200160002081905550505b600e600084815260200190815260200160002060009055600d60008573ffffffffffffffffffffffffffffffffffffffff1673ffffffffffffffffffffffffffffffffffffffff16815260200190815260200160002060008381526020019081526020016000206000905550505050565b60006001600f80549050612bbf9190614536565b90506000601060008481526020019081526020016000205490506000600f8381548110612bef57612bee613e81565b5b9060005260206000200154905080600f8381548110612c1157612c10613e81565b5b90600052602060002001819055508160106000838152602001908152602001600020819055506010600085815260200190815260200160002060009055600f805480612c6057612c5f6149a3565b5b6001900381819060005260206000200160009055905550505050565b6000612c878361122d565b905081600d60008573ffffffffffffffffffffffffffffffffffffffff1673ffffffffffffffffffffffffffffffffffffffff16815260200190815260200160002060008381526020019081526020016000208190555080600e600084815260200190815260200160002081905550505050565b6000808273ffffffffffffffffffffffffffffffffffffffff163b119050919050565b600073ffffffffffffffffffffffffffffffffffffffff168273ffffffffffffffffffffffffffffffffffffffff1603612d8d576040517f08c379a0000000000000000000000000000000000000000000000000000000008152600401612d8490614a1e565b60405180910390fd5b612d9681611b3a565b15612dd6576040517f08c379a0000000000000000000000000000000000000000000000000000000008152600401612dcd90614a8a565b60405180910390fd5b612de260008383612597565b6001600360008473ffffffffffffffffffffffffffffffffffffffff1673ffffffffffffffffffffffffffffffffffffffff1681526020019081526020016000206000828254612e329190613edf565b92505081905550816002600083815260200190815260200160002060006101000a81548173ffffffffffffffffffffffffffffffffffffffff021916908373ffffffffffffffffffffffffffffffffffffffff160217905550808273ffffffffffffffffffffffffffffffffffffffff16600073ffffffffffffffffffffffffffffffffffffffff167fddf252ad1be2c89b69c2b068fc378daa952ba7f163c4a11628f55a4df523b3ef60405160405180910390a4612ef3600083836126a9565b5050565b60405180608001604052806000815260200160008152602001600073ffffffffffffffffffffffffffffffffffffffff1681526020016000151581525090565b828054612f4390613915565b90600052602060002090601f016020900481019282612f655760008555612fac565b82601f10612f7e57805160ff1916838001178555612fac565b82800160010185558215612fac579182015b82811115612fab578251825591602001919060010190612f90565b5b509050612fb99190612fbd565b5090565b5b80821115612fd6576000816000905550600101612fbe565b5090565b6000604051905090565b600080fd5b600080fd5b60007fffffffff0000000000000000000000000000000000000000000000000000000082169050919050565b61302381612fee565b811461302e57600080fd5b50565b6000813590506130408161301a565b92915050565b60006020828403121561305c5761305b612fe4565b5b600061306a84828501613031565b91505092915050565b60008115159050919050565b61308881613073565b82525050565b60006020820190506130a3600083018461307f565b92915050565b600081519050919050565b600082825260208201905092915050565b60005b838110156130e35780820151818401526020810190506130c8565b838111156130f2576000848401525b50505050565b6000601f19601f8301169050919050565b6000613114826130a9565b61311e81856130b4565b935061312e8185602086016130c5565b613137816130f8565b840191505092915050565b6000602082019050818103600083015261315c8184613109565b905092915050565b6000819050919050565b61317781613164565b811461318257600080fd5b50565b6000813590506131948161316e565b92915050565b6000602082840312156131b0576131af612fe4565b5b60006131be84828501613185565b91505092915050565b600073ffffffffffffffffffffffffffffffffffffffff82169050919050565b60006131f2826131c7565b9050919050565b613202816131e7565b82525050565b600060208201905061321d60008301846131f9565b92915050565b61322c816131e7565b811461323757600080fd5b50565b60008135905061324981613223565b92915050565b6000806040838503121561326657613265612fe4565b5b60006132748582860161323a565b925050602061328585828601613185565b9150509250929050565b61329881613164565b82525050565b60006020820190506132b3600083018461328f565b92915050565b600080604083850312156132d0576132cf612fe4565b5b60006132de85828601613185565b92505060206132ef85828601613185565b9150509250929050565b60008060006060848603121561331257613311612fe4565b5b60006133208682870161323a565b93505060206133318682870161323a565b925050604061334286828701613185565b9150509250925092565b600081519050919050565b600082825260208201905092915050565b6000819050602082019050919050565b61338181613164565b82525050565b613390816131e7565b82525050565b61339f81613073565b82525050565b6080820160008201516133bb6000850182613378565b5060208201516133ce6020850182613378565b5060408201516133e16040850182613387565b5060608201516133f46060850182613396565b50505050565b600061340683836133a5565b60808301905092915050565b6000602082019050919050565b600061342a8261334c565b6134348185613357565b935061343f83613368565b8060005b8381101561347057815161345788826133fa565b975061346283613412565b925050600181019050613443565b5085935050505092915050565b60006020820190508181036000830152613497818461341f565b905092915050565b600080fd5b600080fd5b7f4e487b7100000000000000000000000000000000000000000000000000000000600052604160045260246000fd5b6134e1826130f8565b810181811067ffffffffffffffff82111715613500576134ff6134a9565b5b80604052505050565b6000613513612fda565b905061351f82826134d8565b919050565b600067ffffffffffffffff82111561353f5761353e6134a9565b5b613548826130f8565b9050602081019050919050565b82818337600083830152505050565b600061357761357284613524565b613509565b905082815260208101848484011115613593576135926134a4565b5b61359e848285613555565b509392505050565b600082601f8301126135bb576135ba61349f565b5b81356135cb848260208601613564565b91505092915050565b6000602082840312156135ea576135e9612fe4565b5b600082013567ffffffffffffffff81111561360857613607612fe9565b5b613614848285016135a6565b91505092915050565b6080820160008201516136336000850182613378565b5060208201516136466020850182613378565b5060408201516136596040850182613387565b50606082015161366c6060850182613396565b50505050565b6000608082019050613687600083018461361d565b92915050565b6000602082840312156136a3576136a2612fe4565b5b60006136b18482850161323a565b91505092915050565b6136c381613073565b81146136ce57600080fd5b50565b6000813590506136e0816136ba565b92915050565b600080604083850312156136fd576136fc612fe4565b5b600061370b8582860161323a565b925050602061371c858286016136d1565b9150509250929050565b600067ffffffffffffffff821115613741576137406134a9565b5b61374a826130f8565b9050602081019050919050565b600061376a61376584613726565b613509565b905082815260208101848484011115613786576137856134a4565b5b613791848285613555565b509392505050565b600082601f8301126137ae576137ad61349f565b5b81356137be848260208601613757565b91505092915050565b600080600080608085870312156137e1576137e0612fe4565b5b60006137ef8782880161323a565b94505060206138008782880161323a565b935050604061381187828801613185565b925050606085013567ffffffffffffffff81111561383257613831612fe9565b5b61383e87828801613799565b91505092959194509250565b6000806040838503121561386157613860612fe4565b5b600083013567ffffffffffffffff81111561387f5761387e612fe9565b5b61388b858286016135a6565b925050602061389c85828601613185565b9150509250929050565b600080604083850312156138bd576138bc612fe4565b5b60006138cb8582860161323a565b92505060206138dc8582860161323a565b9150509250929050565b7f4e487b7100000000000000000000000000000000000000000000000000000000600052602260045260246000fd5b6000600282049050600182168061392d57607f821691505b6020821081036139405761393f6138e6565b5b50919050565b7f4552433732313a20617070726f76656420717565727920666f72206e6f6e657860008201527f697374656e7420746f6b656e0000000000000000000000000000000000000000602082015250565b60006139a2602c836130b4565b91506139ad82613946565b604082019050919050565b600060208201905081810360008301526139d181613995565b9050919050565b7f4552433732313a20617070726f76616c20746f2063757272656e74206f776e6560008201527f7200000000000000000000000000000000000000000000000000000000000000602082015250565b6000613a346021836130b4565b9150613a3f826139d8565b604082019050919050565b60006020820190508181036000830152613a6381613a27565b9050919050565b7f4552433732313a20617070726f76652063616c6c6572206973206e6f74206f7760008201527f6e6572206e6f7220617070726f76656420666f7220616c6c0000000000000000602082015250565b6000613ac66038836130b4565b9150613ad182613a6a565b604082019050919050565b60006020820190508181036000830152613af581613ab9565b9050919050565b7f596f7520617265206e6f74206f776e6572206f662074686973206e6674000000600082015250565b6000613b32601d836130b4565b9150613b3d82613afc565b602082019050919050565b60006020820190508181036000830152613b6181613b25565b9050919050565b7f4974656d20697320616c7265616479206f6e2073616c65000000000000000000600082015250565b6000613b9e6017836130b4565b9150613ba982613b68565b602082019050919050565b60006020820190508181036000830152613bcd81613b91565b9050919050565b7f5072696365206d75737420626520657175616c20746f206c697374696e67207060008201527f7269636500000000000000000000000000000000000000000000000000000000602082015250565b6000613c306024836130b4565b9150613c3b82613bd4565b604082019050919050565b60006020820190508181036000830152613c5f81613c23565b9050919050565b7f4552433732313a207472616e736665722063616c6c6572206973206e6f74206f60008201527f776e6572206e6f7220617070726f766564000000000000000000000000000000602082015250565b6000613cc26031836130b4565b9150613ccd82613c66565b604082019050919050565b60006020820190508181036000830152613cf181613cb5565b9050919050565b7f596f7520616c7265616479206f776e2074686973204e46540000000000000000600082015250565b6000613d2e6018836130b4565b9150613d3982613cf8565b602082019050919050565b60006020820190508181036000830152613d5d81613d21565b9050919050565b7f506c65617365207375626d6974207468652061736b696e672070726963650000600082015250565b6000613d9a601e836130b4565b9150613da582613d64565b602082019050919050565b60006020820190508181036000830152613dc981613d8d565b9050919050565b6000608082019050613de5600083018761328f565b613df260208301866131f9565b613dff60408301856131f9565b613e0c606083018461328f565b95945050505050565b7f496e646578206f7574206f6620626f756e647300000000000000000000000000600082015250565b6000613e4b6013836130b4565b9150613e5682613e15565b602082019050919050565b60006020820190508181036000830152613e7a81613e3e565b9050919050565b7f4e487b7100000000000000000000000000000000000000000000000000000000600052603260045260246000fd5b7f4e487b7100000000000000000000000000000000000000000000000000000000600052601160045260246000fd5b6000613eea82613164565b9150613ef583613164565b9250827fffffffffffffffffffffffffffffffffffffffffffffffffffffffffffffffff03821115613f2a57613f29613eb0565b5b828201905092915050565b6000613f4082613164565b91507fffffffffffffffffffffffffffffffffffffffffffffffffffffffffffffffff8203613f7257613f71613eb0565b5b600182019050919050565b600081905092915050565b6000613f93826130a9565b613f9d8185613f7d565b9350613fad8185602086016130c5565b80840191505092915050565b6000613fc58284613f88565b915081905092915050565b7f4552433732313a206f776e657220717565727920666f72206e6f6e657869737460008201527f656e7420746f6b656e0000000000000000000000000000000000000000000000602082015250565b600061402c6029836130b4565b915061403782613fd0565b604082019050919050565b6000602082019050818103600083015261405b8161401f565b9050919050565b7f4552433732313a2062616c616e636520717565727920666f7220746865207a6560008201527f726f206164647265737300000000000000000000000000000000000000000000602082015250565b60006140be602a836130b4565b91506140c982614062565b604082019050919050565b600060208201905081810360008301526140ed816140b1565b9050919050565b7f4f776e61626c653a2063616c6c6572206973206e6f7420746865206f776e6572600082015250565b600061412a6020836130b4565b9150614135826140f4565b602082019050919050565b600060208201905081810360008301526141598161411d565b9050919050565b7f5072696365206d757374206265206174206c6561737420312077656900000000600082015250565b6000614196601c836130b4565b91506141a182614160565b602082019050919050565b600060208201905081810360008301526141c581614189565b9050919050565b7f546f6b656e2055524920616c7265616479206578697374730000000000000000600082015250565b60006142026018836130b4565b915061420d826141cc565b602082019050919050565b60006020820190508181036000830152614231816141f5565b9050919050565b7f45524337323155524953746f726167653a2055524920717565727920666f722060008201527f6e6f6e6578697374656e7420746f6b656e000000000000000000000000000000602082015250565b60006142946031836130b4565b915061429f82614238565b604082019050919050565b600060208201905081810360008301526142c381614287565b9050919050565b60006142d68285613f88565b91506142e28284613f88565b91508190509392505050565b7f4f776e61626c653a206e6577206f776e657220697320746865207a65726f206160008201527f6464726573730000000000000000000000000000000000000000000000000000602082015250565b600061434a6026836130b4565b9150614355826142ee565b604082019050919050565b600060208201905081810360008301526143798161433d565b9050919050565b7f4552433732313a206f70657261746f7220717565727920666f72206e6f6e657860008201527f697374656e7420746f6b656e0000000000000000000000000000000000000000602082015250565b60006143dc602c836130b4565b91506143e782614380565b604082019050919050565b6000602082019050818103600083015261440b816143cf565b9050919050565b7f4552433732313a207472616e736665722066726f6d20696e636f72726563742060008201527f6f776e6572000000000000000000000000000000000000000000000000000000602082015250565b600061446e6025836130b4565b915061447982614412565b604082019050919050565b6000602082019050818103600083015261449d81614461565b9050919050565b7f4552433732313a207472616e7366657220746f20746865207a65726f2061646460008201527f7265737300000000000000000000000000000000000000000000000000000000602082015250565b60006145006024836130b4565b915061450b826144a4565b604082019050919050565b6000602082019050818103600083015261452f816144f3565b9050919050565b600061454182613164565b915061454c83613164565b92508282101561455f5761455e613eb0565b5b828203905092915050565b7f436f756e7465723a2064656372656d656e74206f766572666c6f770000000000600082015250565b60006145a0601b836130b4565b91506145ab8261456a565b602082019050919050565b600060208201905081810360008301526145cf81614593565b9050919050565b7f4552433732313a20617070726f766520746f2063616c6c657200000000000000600082015250565b600061460c6019836130b4565b9150614617826145d6565b602082019050919050565b6000602082019050818103600083015261463b816145ff565b9050919050565b7f4552433732313a207472616e7366657220746f206e6f6e20455243373231526560008201527f63656976657220696d706c656d656e7465720000000000000000000000000000602082015250565b600061469e6032836130b4565b91506146a982614642565b604082019050919050565b600060208201905081810360008301526146cd81614691565b9050919050565b7f45524337323155524953746f726167653a2055524920736574206f66206e6f6e60008201527f6578697374656e7420746f6b656e000000000000000000000000000000000000602082015250565b6000614730602e836130b4565b915061473b826146d4565b604082019050919050565b6000602082019050818103600083015261475f81614723565b9050919050565b600060608201905061477b600083018661328f565b61478860208301856131f9565b614795604083018461307f565b949350505050565b7f4552433732314d657461646174613a2055524920717565727920666f72206e6f60008201527f6e6578697374656e7420746f6b656e0000000000000000000000000000000000602082015250565b60006147f9602f836130b4565b91506148048261479d565b604082019050919050565b60006020820190508181036000830152614828816147ec565b9050919050565b600081519050919050565b600082825260208201905092915050565b60006148568261482f565b614860818561483a565b93506148708185602086016130c5565b614879816130f8565b840191505092915050565b600060808201905061489960008301876131f9565b6148a660208301866131f9565b6148b3604083018561328f565b81810360608301526148c5818461484b565b905095945050505050565b6000815190506148df8161301a565b92915050565b6000602082840312156148fb576148fa612fe4565b5b6000614909848285016148d0565b91505092915050565b7f4e487b7100000000000000000000000000000000000000000000000000000000600052601260045260246000fd5b600061494c82613164565b915061495783613164565b92508261496757614966614912565b5b828204905092915050565b600061497d82613164565b915061498883613164565b92508261499857614997614912565b5b828206905092915050565b7f4e487b7100000000000000000000000000000000000000000000000000000000600052603160045260246000fd5b7f4552433732313a206d696e7420746f20746865207a65726f2061646472657373600082015250565b6000614a086020836130b4565b9150614a13826149d2565b602082019050919050565b60006020820190508181036000830152614a37816149fb565b9050919050565b7f4552433732313a20746f6b656e20616c7265616479206d696e74656400000000600082015250565b6000614a74601c836130b4565b9150614a7f82614a3e565b602082019050919050565b60006020820190508181036000830152614aa381614a67565b905091905056fea2646970667358221220c82482e6aafc8122afc060d480bf066c10084dc8e17c7b3c642731b3b84b281964736f6c634300080e0033",
  "immutableReferences": {},
  "source": "// SPDX-License-Identifier: MIT\npragma solidity >=0.4.22 <0.9.0;\n\nimport \"@openzeppelin/contracts/token/ERC721/extensions/ERC721URIStorage.sol\";\nimport \"@openzeppelin/contracts/utils/Counters.sol\";\nimport \"@openzeppelin/contracts/access/Ownable.sol\";\n\ncontract NftMarket is ERC721URIStorage, Ownable {\n    using Counters for Counters.Counter;\n\n    struct NftItem {\n        uint256 tokenId;\n        uint256 price;\n        address creator;\n        bool isListed;\n    }\n\n    uint256 public listingPrice = 0.025 ether;\n\n    Counters.Counter private _listedItems;\n    Counters.Counter private _tokenIds;\n\n    mapping(string => bool) private _usedTokenURIs; //xac nh xem URI  tn ti cha\n    mapping(uint256 => NftItem) private _idToNftItem; //id=>nft\n\n    mapping(address => mapping(uint256 => uint256)) private _ownedTokens; //a ch => (s th t => tokenId)\n    mapping(uint256 => uint256) private _idToOwnedIndex; //tokenId => s th t th bao nhiu ca 1 address\n\n    uint256[] private _allNfts; //chua id cua tat ca token\n\n    mapping(uint256 => uint256) private _idToNftIndex; //id=>index\n\n    event NftItemCreated(\n        uint256 indexed tokenId,\n        uint256 price,\n        address creator,\n        bool isListed\n    );\n\n    event NftTransactions(\n        uint256 indexed tokenId,\n        uint256 price,\n        address from,\n        address to,\n        uint time\n    );\n\n    constructor() ERC721(\"ABC\", \"VTKV\") {}\n\n    function setListingPrice(uint256 newPrice) external onlyOwner {\n        require(newPrice > 0, \"Price must be at least 1 wei\");\n        listingPrice = newPrice;\n    }\n\n    function getNftItem(uint256 tokenId) public view returns (NftItem memory) {\n        return _idToNftItem[tokenId];\n    }\n\n    function listedItemsCount() public view returns (uint256) {\n        return _listedItems.current();\n    }\n\n    function tokenURIExists(string memory tokenURI) public view returns (bool) {\n        return _usedTokenURIs[tokenURI] == true;\n    }\n\n    function totalSupply() public view returns (uint256) {\n        return _allNfts.length;\n    }\n\n    function tokenByIndex(uint256 index) public view returns (uint256) {\n        require(index < totalSupply(), \"Index out of bounds\");\n        return _allNfts[index];\n    }\n\n    function tokenOfOwnerByIndex(address owner, uint256 index)\n        public\n        view\n        returns (uint256)\n    {\n        require(index < ERC721.balanceOf(owner), \"Index out of bounds\");\n        return _ownedTokens[owner][index];\n    }\n\n    function getAllNftsOnSale() public view returns (NftItem[] memory) {\n        uint256 allItemsCounts = totalSupply();\n        uint256 currentIndex = 0;\n        NftItem[] memory items = new NftItem[](_listedItems.current());\n\n        for (uint256 i = 0; i < allItemsCounts; i++) {\n            uint256 tokenId = tokenByIndex(i);\n            NftItem storage item = _idToNftItem[tokenId];\n\n            if (item.isListed == true) {\n                items[currentIndex] = item;\n                currentIndex += 1;\n            }\n        }\n\n        return items;\n    }\n\n    function getOwnedNfts() public view returns (NftItem[] memory) {\n        uint256 ownedItemsCount = ERC721.balanceOf(msg.sender);\n        NftItem[] memory items = new NftItem[](ownedItemsCount);\n\n        for (uint256 i = 0; i < ownedItemsCount; i++) {\n            uint256 tokenId = tokenOfOwnerByIndex(msg.sender, i);\n            NftItem storage item = _idToNftItem[tokenId];\n            items[i] = item;\n        }\n\n        return items;\n    }\n\n    function mintToken(string memory tokenURI, uint256 price)\n        public\n        payable\n        returns (uint256)\n    {\n        require(!tokenURIExists(tokenURI), \"Token URI already exists\");\n        require(\n            msg.value == listingPrice,\n            \"Price must be equal to listing price\"\n        );\n\n        _tokenIds.increment();\n        _listedItems.increment();\n\n        uint256 newTokenId = _tokenIds.current();\n\n        _safeMint(msg.sender, newTokenId);\n        _setTokenURI(newTokenId, tokenURI);\n        _createNftItem(newTokenId, price);\n        _usedTokenURIs[tokenURI] = true;\n\n        return newTokenId;\n    }\n\n    function buyNft(uint256 tokenId) public payable {\n        uint256 price = _idToNftItem[tokenId].price;\n        address owner = ERC721.ownerOf(tokenId);\n\n        require(msg.sender != owner, \"You already own this NFT\");\n        require(msg.value == price, \"Please submit the asking price\");\n\n        _idToNftItem[tokenId].isListed = false;\n        _listedItems.decrement();\n\n        _transfer(owner, msg.sender, tokenId);\n        payable(owner).transfer(msg.value);\n\n        emit NftTransactions(tokenId, msg.value, owner, msg.sender, block.timestamp);\n    }\n\n    function placeNftOnSale(uint256 tokenId, uint256 newPrice) public payable {\n        require(\n            ERC721.ownerOf(tokenId) == msg.sender,\n            \"You are not owner of this nft\"\n        );\n        require(\n            _idToNftItem[tokenId].isListed == false,\n            \"Item is already on sale\"\n        );\n        require(\n            msg.value == listingPrice,\n            \"Price must be equal to listing price\"\n        );\n\n        _idToNftItem[tokenId].isListed = true;\n        _idToNftItem[tokenId].price = newPrice;\n        _listedItems.increment();\n    }\n\n    function _createNftItem(uint256 tokenId, uint256 price) private {\n        require(price > 0, \"Price must be at least 1 wei\");\n\n        _idToNftItem[tokenId] = NftItem(tokenId, price, msg.sender, true);\n\n        emit NftItemCreated(tokenId, price, msg.sender, true);\n        emit NftTransactions(tokenId, price, address(0), msg.sender, block.timestamp);\n    }\n\n    function _beforeTokenTransfer(\n        address from,\n        address to,\n        uint256 tokenId\n    ) internal virtual override {\n        super._beforeTokenTransfer(from, to, tokenId);\n\n        // minting token\n        if (from == address(0)) {\n            _addTokenToAllTokensEnumeration(tokenId);\n        } else if (from != to) {\n            _removeTokenFromOwnerEnumeration(from, tokenId);\n        }\n\n        if (to == address(0)) {\n            _removeTokenFromAllTokensEnumeration(tokenId);\n        } else if (to != from) {\n            _addTokenToOwnerEnumeration(to, tokenId);\n        }\n    }\n\n    function _addTokenToAllTokensEnumeration(uint256 tokenId) private {\n        _idToNftIndex[tokenId] = _allNfts.length;\n        _allNfts.push(tokenId);\n    }\n\n    function _addTokenToOwnerEnumeration(address to, uint256 tokenId) private {\n        uint256 length = ERC721.balanceOf(to);\n        _ownedTokens[to][length] = tokenId;\n        _idToOwnedIndex[tokenId] = length;\n    }\n\n    function _removeTokenFromOwnerEnumeration(address from, uint256 tokenId)\n        private\n    {\n        uint256 lastTokenIndex = ERC721.balanceOf(from) - 1;\n        uint256 tokenIndex = _idToOwnedIndex[tokenId];\n\n        if (tokenIndex != lastTokenIndex) {\n            uint256 lastTokenId = _ownedTokens[from][lastTokenIndex];\n\n            _ownedTokens[from][tokenIndex] = lastTokenId;\n            _idToOwnedIndex[lastTokenId] = tokenIndex;\n        }\n\n        delete _idToOwnedIndex[tokenId];\n        delete _ownedTokens[from][lastTokenIndex];\n        //gn gi tr ca ni cn xa bng gi tr ti v tr cui cng ri gn v tr cui cng=0, khng th xa mapping, ch c th gn=0\n    }\n\n    function _removeTokenFromAllTokensEnumeration(uint256 tokenId) private {\n        uint256 lastTokenIndex = _allNfts.length - 1;\n        uint256 tokenIndex = _idToNftIndex[tokenId];\n        uint256 lastTokenId = _allNfts[lastTokenIndex];\n\n        _allNfts[tokenIndex] = lastTokenId;\n        _idToNftIndex[lastTokenId] = tokenIndex;\n\n        delete _idToNftIndex[tokenId];\n        _allNfts.pop();\n    }\n}\n",
  "sourcePath": "/home/thanh/Desktop/nft_marketplace/market/contracts/NftMarket.sol",
  "compiler": {
    "name": "solc",
    "version": "0.8.14+commit.80d49f37.Emscripten.clang"
  },
  "schemaVersion": "3.4.7",
  "updatedAt": "2022-07-03T18:15:19.912Z",
  "networkType": "ethereum",
  "devdoc": {
    "kind": "dev",
    "methods": {
      "approve(address,uint256)": {
        "details": "See {IERC721-approve}."
      },
      "balanceOf(address)": {
        "details": "See {IERC721-balanceOf}."
      },
      "getApproved(uint256)": {
        "details": "See {IERC721-getApproved}."
      },
      "isApprovedForAll(address,address)": {
        "details": "See {IERC721-isApprovedForAll}."
      },
      "name()": {
        "details": "See {IERC721Metadata-name}."
      },
      "owner()": {
        "details": "Returns the address of the current owner."
      },
      "ownerOf(uint256)": {
        "details": "See {IERC721-ownerOf}."
      },
      "renounceOwnership()": {
        "details": "Leaves the contract without owner. It will not be possible to call `onlyOwner` functions anymore. Can only be called by the current owner. NOTE: Renouncing ownership will leave the contract without an owner, thereby removing any functionality that is only available to the owner."
      },
      "safeTransferFrom(address,address,uint256)": {
        "details": "See {IERC721-safeTransferFrom}."
      },
      "safeTransferFrom(address,address,uint256,bytes)": {
        "details": "See {IERC721-safeTransferFrom}."
      },
      "setApprovalForAll(address,bool)": {
        "details": "See {IERC721-setApprovalForAll}."
      },
      "supportsInterface(bytes4)": {
        "details": "See {IERC165-supportsInterface}."
      },
      "symbol()": {
        "details": "See {IERC721Metadata-symbol}."
      },
      "tokenURI(uint256)": {
        "details": "See {IERC721Metadata-tokenURI}."
      },
      "transferFrom(address,address,uint256)": {
        "details": "See {IERC721-transferFrom}."
      },
      "transferOwnership(address)": {
        "details": "Transfers ownership of the contract to a new account (`newOwner`). Can only be called by the current owner."
      }
    },
    "version": 1
  },
  "userdoc": {
    "kind": "user",
    "methods": {},
    "version": 1
  }
}