{
  "contractName": "NftMarket",
  "abi": [
    {
      "inputs": [],
      "stateMutability": "nonpayable",
      "type": "constructor"
    },
    {
      "anonymous": false,
      "inputs": [
        {
          "indexed": true,
          "internalType": "address",
          "name": "owner",
          "type": "address"
        },
        {
          "indexed": true,
          "internalType": "address",
          "name": "approved",
          "type": "address"
        },
        {
          "indexed": true,
          "internalType": "uint256",
          "name": "tokenId",
          "type": "uint256"
        }
      ],
      "name": "Approval",
      "type": "event"
    },
    {
      "anonymous": false,
      "inputs": [
        {
          "indexed": true,
          "internalType": "address",
          "name": "owner",
          "type": "address"
        },
        {
          "indexed": true,
          "internalType": "address",
          "name": "operator",
          "type": "address"
        },
        {
          "indexed": false,
          "internalType": "bool",
          "name": "approved",
          "type": "bool"
        }
      ],
      "name": "ApprovalForAll",
      "type": "event"
    },
    {
      "anonymous": false,
      "inputs": [
        {
          "indexed": true,
          "internalType": "uint256",
          "name": "tokenId",
          "type": "uint256"
        },
        {
          "indexed": false,
          "internalType": "uint256",
          "name": "price",
          "type": "uint256"
        },
        {
          "indexed": false,
          "internalType": "address",
          "name": "creator",
          "type": "address"
        },
        {
          "indexed": false,
          "internalType": "bool",
          "name": "isListed",
          "type": "bool"
        }
      ],
      "name": "NftItemCreated",
      "type": "event"
    },
    {
      "anonymous": false,
      "inputs": [
        {
          "indexed": true,
          "internalType": "uint256",
          "name": "tokenId",
          "type": "uint256"
        },
        {
          "indexed": false,
          "internalType": "uint256",
          "name": "price",
          "type": "uint256"
        },
        {
          "indexed": false,
          "internalType": "address",
          "name": "from",
          "type": "address"
        },
        {
          "indexed": false,
          "internalType": "address",
          "name": "to",
          "type": "address"
        },
        {
          "indexed": false,
          "internalType": "uint256",
          "name": "time",
          "type": "uint256"
        }
      ],
      "name": "NftTransactions",
      "type": "event"
    },
    {
      "anonymous": false,
      "inputs": [
        {
          "indexed": true,
          "internalType": "address",
          "name": "previousOwner",
          "type": "address"
        },
        {
          "indexed": true,
          "internalType": "address",
          "name": "newOwner",
          "type": "address"
        }
      ],
      "name": "OwnershipTransferred",
      "type": "event"
    },
    {
      "anonymous": false,
      "inputs": [
        {
          "indexed": true,
          "internalType": "address",
          "name": "from",
          "type": "address"
        },
        {
          "indexed": true,
          "internalType": "address",
          "name": "to",
          "type": "address"
        },
        {
          "indexed": true,
          "internalType": "uint256",
          "name": "tokenId",
          "type": "uint256"
        }
      ],
      "name": "Transfer",
      "type": "event"
    },
    {
      "inputs": [
        {
          "internalType": "address",
          "name": "to",
          "type": "address"
        },
        {
          "internalType": "uint256",
          "name": "tokenId",
          "type": "uint256"
        }
      ],
      "name": "approve",
      "outputs": [],
      "stateMutability": "nonpayable",
      "type": "function"
    },
    {
      "inputs": [
        {
          "internalType": "address",
          "name": "owner",
          "type": "address"
        }
      ],
      "name": "balanceOf",
      "outputs": [
        {
          "internalType": "uint256",
          "name": "",
          "type": "uint256"
        }
      ],
      "stateMutability": "view",
      "type": "function",
      "constant": true
    },
    {
      "inputs": [
        {
          "internalType": "uint256",
          "name": "tokenId",
          "type": "uint256"
        }
      ],
      "name": "getApproved",
      "outputs": [
        {
          "internalType": "address",
          "name": "",
          "type": "address"
        }
      ],
      "stateMutability": "view",
      "type": "function",
      "constant": true
    },
    {
      "inputs": [
        {
          "internalType": "address",
          "name": "owner",
          "type": "address"
        },
        {
          "internalType": "address",
          "name": "operator",
          "type": "address"
        }
      ],
      "name": "isApprovedForAll",
      "outputs": [
        {
          "internalType": "bool",
          "name": "",
          "type": "bool"
        }
      ],
      "stateMutability": "view",
      "type": "function",
      "constant": true
    },
    {
      "inputs": [],
      "name": "listingPrice",
      "outputs": [
        {
          "internalType": "uint256",
          "name": "",
          "type": "uint256"
        }
      ],
      "stateMutability": "view",
      "type": "function",
      "constant": true
    },
    {
      "inputs": [],
      "name": "name",
      "outputs": [
        {
          "internalType": "string",
          "name": "",
          "type": "string"
        }
      ],
      "stateMutability": "view",
      "type": "function",
      "constant": true
    },
    {
      "inputs": [],
      "name": "owner",
      "outputs": [
        {
          "internalType": "address",
          "name": "",
          "type": "address"
        }
      ],
      "stateMutability": "view",
      "type": "function",
      "constant": true
    },
    {
      "inputs": [
        {
          "internalType": "uint256",
          "name": "tokenId",
          "type": "uint256"
        }
      ],
      "name": "ownerOf",
      "outputs": [
        {
          "internalType": "address",
          "name": "",
          "type": "address"
        }
      ],
      "stateMutability": "view",
      "type": "function",
      "constant": true
    },
    {
      "inputs": [],
      "name": "renounceOwnership",
      "outputs": [],
      "stateMutability": "nonpayable",
      "type": "function"
    },
    {
      "inputs": [
        {
          "internalType": "address",
          "name": "from",
          "type": "address"
        },
        {
          "internalType": "address",
          "name": "to",
          "type": "address"
        },
        {
          "internalType": "uint256",
          "name": "tokenId",
          "type": "uint256"
        }
      ],
      "name": "safeTransferFrom",
      "outputs": [],
      "stateMutability": "nonpayable",
      "type": "function"
    },
    {
      "inputs": [
        {
          "internalType": "address",
          "name": "from",
          "type": "address"
        },
        {
          "internalType": "address",
          "name": "to",
          "type": "address"
        },
        {
          "internalType": "uint256",
          "name": "tokenId",
          "type": "uint256"
        },
        {
          "internalType": "bytes",
          "name": "_data",
          "type": "bytes"
        }
      ],
      "name": "safeTransferFrom",
      "outputs": [],
      "stateMutability": "nonpayable",
      "type": "function"
    },
    {
      "inputs": [
        {
          "internalType": "address",
          "name": "operator",
          "type": "address"
        },
        {
          "internalType": "bool",
          "name": "approved",
          "type": "bool"
        }
      ],
      "name": "setApprovalForAll",
      "outputs": [],
      "stateMutability": "nonpayable",
      "type": "function"
    },
    {
      "inputs": [
        {
          "internalType": "bytes4",
          "name": "interfaceId",
          "type": "bytes4"
        }
      ],
      "name": "supportsInterface",
      "outputs": [
        {
          "internalType": "bool",
          "name": "",
          "type": "bool"
        }
      ],
      "stateMutability": "view",
      "type": "function",
      "constant": true
    },
    {
      "inputs": [],
      "name": "symbol",
      "outputs": [
        {
          "internalType": "string",
          "name": "",
          "type": "string"
        }
      ],
      "stateMutability": "view",
      "type": "function",
      "constant": true
    },
    {
      "inputs": [
        {
          "internalType": "uint256",
          "name": "tokenId",
          "type": "uint256"
        }
      ],
      "name": "tokenURI",
      "outputs": [
        {
          "internalType": "string",
          "name": "",
          "type": "string"
        }
      ],
      "stateMutability": "view",
      "type": "function",
      "constant": true
    },
    {
      "inputs": [
        {
          "internalType": "address",
          "name": "from",
          "type": "address"
        },
        {
          "internalType": "address",
          "name": "to",
          "type": "address"
        },
        {
          "internalType": "uint256",
          "name": "tokenId",
          "type": "uint256"
        }
      ],
      "name": "transferFrom",
      "outputs": [],
      "stateMutability": "nonpayable",
      "type": "function"
    },
    {
      "inputs": [
        {
          "internalType": "address",
          "name": "newOwner",
          "type": "address"
        }
      ],
      "name": "transferOwnership",
      "outputs": [],
      "stateMutability": "nonpayable",
      "type": "function"
    },
    {
      "inputs": [
        {
          "internalType": "uint256",
          "name": "tokenId",
          "type": "uint256"
        }
      ],
      "name": "start",
      "outputs": [],
      "stateMutability": "nonpayable",
      "type": "function"
    },
    {
      "inputs": [
        {
          "internalType": "uint256",
          "name": "tokenId",
          "type": "uint256"
        }
      ],
      "name": "bid",
      "outputs": [],
      "stateMutability": "payable",
      "type": "function",
      "payable": true
    },
    {
      "inputs": [
        {
          "internalType": "uint256",
          "name": "tokenId",
          "type": "uint256"
        }
      ],
      "name": "end",
      "outputs": [],
      "stateMutability": "payable",
      "type": "function",
      "payable": true
    },
    {
      "inputs": [
        {
          "internalType": "uint256",
          "name": "newPrice",
          "type": "uint256"
        }
      ],
      "name": "setListingPrice",
      "outputs": [],
      "stateMutability": "nonpayable",
      "type": "function"
    },
    {
      "inputs": [
        {
          "internalType": "uint256",
          "name": "tokenId",
          "type": "uint256"
        }
      ],
      "name": "getNftItem",
      "outputs": [
        {
          "components": [
            {
              "internalType": "uint256",
              "name": "tokenId",
              "type": "uint256"
            },
            {
              "internalType": "uint256",
              "name": "price",
              "type": "uint256"
            },
            {
              "internalType": "address",
              "name": "creator",
              "type": "address"
            },
            {
              "internalType": "bool",
              "name": "isListed",
              "type": "bool"
            }
          ],
          "internalType": "struct NftMarket.NftItem",
          "name": "",
          "type": "tuple"
        }
      ],
      "stateMutability": "view",
      "type": "function",
      "constant": true
    },
    {
      "inputs": [],
      "name": "listedItemsCount",
      "outputs": [
        {
          "internalType": "uint256",
          "name": "",
          "type": "uint256"
        }
      ],
      "stateMutability": "view",
      "type": "function",
      "constant": true
    },
    {
      "inputs": [
        {
          "internalType": "string",
          "name": "tokenURI",
          "type": "string"
        }
      ],
      "name": "tokenURIExists",
      "outputs": [
        {
          "internalType": "bool",
          "name": "",
          "type": "bool"
        }
      ],
      "stateMutability": "view",
      "type": "function",
      "constant": true
    },
    {
      "inputs": [],
      "name": "totalSupply",
      "outputs": [
        {
          "internalType": "uint256",
          "name": "",
          "type": "uint256"
        }
      ],
      "stateMutability": "view",
      "type": "function",
      "constant": true
    },
    {
      "inputs": [
        {
          "internalType": "uint256",
          "name": "index",
          "type": "uint256"
        }
      ],
      "name": "tokenByIndex",
      "outputs": [
        {
          "internalType": "uint256",
          "name": "",
          "type": "uint256"
        }
      ],
      "stateMutability": "view",
      "type": "function",
      "constant": true
    },
    {
      "inputs": [
        {
          "internalType": "address",
          "name": "owner",
          "type": "address"
        },
        {
          "internalType": "uint256",
          "name": "index",
          "type": "uint256"
        }
      ],
      "name": "tokenOfOwnerByIndex",
      "outputs": [
        {
          "internalType": "uint256",
          "name": "",
          "type": "uint256"
        }
      ],
      "stateMutability": "view",
      "type": "function",
      "constant": true
    },
    {
      "inputs": [],
      "name": "getAllNftsOnSale",
      "outputs": [
        {
          "components": [
            {
              "internalType": "uint256",
              "name": "tokenId",
              "type": "uint256"
            },
            {
              "internalType": "uint256",
              "name": "price",
              "type": "uint256"
            },
            {
              "internalType": "address",
              "name": "creator",
              "type": "address"
            },
            {
              "internalType": "bool",
              "name": "isListed",
              "type": "bool"
            }
          ],
          "internalType": "struct NftMarket.NftItem[]",
          "name": "",
          "type": "tuple[]"
        }
      ],
      "stateMutability": "view",
      "type": "function",
      "constant": true
    },
    {
      "inputs": [],
      "name": "getOwnedNfts",
      "outputs": [
        {
          "components": [
            {
              "internalType": "uint256",
              "name": "tokenId",
              "type": "uint256"
            },
            {
              "internalType": "uint256",
              "name": "price",
              "type": "uint256"
            },
            {
              "internalType": "address",
              "name": "creator",
              "type": "address"
            },
            {
              "internalType": "bool",
              "name": "isListed",
              "type": "bool"
            }
          ],
          "internalType": "struct NftMarket.NftItem[]",
          "name": "",
          "type": "tuple[]"
        }
      ],
      "stateMutability": "view",
      "type": "function",
      "constant": true
    },
    {
      "inputs": [
        {
          "internalType": "string",
          "name": "tokenURI",
          "type": "string"
        },
        {
          "internalType": "uint256",
          "name": "price",
          "type": "uint256"
        }
      ],
      "name": "mintToken",
      "outputs": [
        {
          "internalType": "uint256",
          "name": "",
          "type": "uint256"
        }
      ],
      "stateMutability": "payable",
      "type": "function",
      "payable": true
    },
    {
      "inputs": [
        {
          "internalType": "uint256",
          "name": "tokenId",
          "type": "uint256"
        }
      ],
      "name": "buyNft",
      "outputs": [],
      "stateMutability": "payable",
      "type": "function",
      "payable": true
    },
    {
      "inputs": [
        {
          "internalType": "uint256",
          "name": "tokenId",
          "type": "uint256"
        },
        {
          "internalType": "uint256",
          "name": "newPrice",
          "type": "uint256"
        }
      ],
      "name": "placeNftOnSale",
      "outputs": [],
      "stateMutability": "payable",
      "type": "function",
      "payable": true
    }
  ],
  "bytecode": "0x60806040526658d15e176280006008553480156200001c57600080fd5b506040518060400160405280600381526020017f41424300000000000000000000000000000000000000000000000000000000008152506040518060400160405280600481526020017f56544b56000000000000000000000000000000000000000000000000000000008152508160009080519060200190620000a1929190620001b1565b508060019080519060200190620000ba929190620001b1565b505050620000dd620000d1620000e360201b60201c565b620000eb60201b60201c565b620002c5565b600033905090565b6000600760009054906101000a900473ffffffffffffffffffffffffffffffffffffffff16905081600760006101000a81548173ffffffffffffffffffffffffffffffffffffffff021916908373ffffffffffffffffffffffffffffffffffffffff1602179055508173ffffffffffffffffffffffffffffffffffffffff168173ffffffffffffffffffffffffffffffffffffffff167f8be0079c531659141344cd1fd0a4f28419497f9722a3daafe3b4186f6b6457e060405160405180910390a35050565b828054620001bf9062000290565b90600052602060002090601f016020900481019282620001e357600085556200022f565b82601f10620001fe57805160ff19168380011785556200022f565b828001600101855582156200022f579182015b828111156200022e57825182559160200191906001019062000211565b5b5090506200023e919062000242565b5090565b5b808211156200025d57600081600090555060010162000243565b5090565b7f4e487b7100000000000000000000000000000000000000000000000000000000600052602260045260246000fd5b60006002820490506001821680620002a957607f821691505b602082108103620002bf57620002be62000261565b5b50919050565b6153a880620002d56000396000f3fe6080604052600436106101e35760003560e01c80636f1a0af511610102578063a22cb46511610095578063c87b56dd11610064578063c87b56dd146106d3578063ccb4918d14610710578063e985e9c51461073b578063f2fde38b14610778576101e3565b8063a22cb46514610626578063b88d4fde1461064f578063c046372c14610678578063c78f19f9146106a8576101e3565b80637c726b69116100d15780637c726b691461057e5780638da5cb5b146105a757806395805dad146105d257806395d89b41146105fb576101e3565b80636f1a0af5146104c257806370a08231146104ff57806370cbcb431461053c578063715018a614610567576101e3565b8063243adbdd1161017a57806343d32ae71161014957806343d32ae7146103ef578063454a2ab31461042c5780634f6ccce7146104485780636352211e14610485576101e3565b8063243adbdd146103425780632f745c591461035e57806336b536be1461039b57806342842e0e146103c6576101e3565b80630ad24528116101b65780630ad24528146102b657806318160ddd146102d257806321f422e5146102fd57806323b872dd14610319576101e3565b806301ffc9a7146101e857806306fdde0314610225578063081812fc14610250578063095ea7b31461028d575b600080fd5b3480156101f457600080fd5b5061020f600480360381019061020a91906136f2565b6107a1565b60405161021c919061373a565b60405180910390f35b34801561023157600080fd5b5061023a610883565b60405161024791906137ee565b60405180910390f35b34801561025c57600080fd5b5061027760048036038101906102729190613846565b610915565b60405161028491906138b4565b60405180910390f35b34801561029957600080fd5b506102b460048036038101906102af91906138fb565b61099a565b005b6102d060048036038101906102cb9190613846565b610ab1565b005b3480156102de57600080fd5b506102e7610d04565b6040516102f4919061394a565b60405180910390f35b61031760048036038101906103129190613965565b610d11565b005b34801561032557600080fd5b50610340600480360381019061033b91906139a5565b610e8d565b005b61035c60048036038101906103579190613846565b610eed565b005b34801561036a57600080fd5b50610385600480360381019061038091906138fb565b611093565b604051610392919061394a565b60405180910390f35b3480156103a757600080fd5b506103b0611138565b6040516103bd9190613b29565b60405180910390f35b3480156103d257600080fd5b506103ed60048036038101906103e891906139a5565b6112d2565b005b3480156103fb57600080fd5b5061041660048036038101906104119190613c80565b6112f2565b604051610423919061373a565b60405180910390f35b61044660048036038101906104419190613846565b61132e565b005b34801561045457600080fd5b5061046f600480360381019061046a9190613846565b61156c565b60405161047c919061394a565b60405180910390f35b34801561049157600080fd5b506104ac60048036038101906104a79190613846565b6115dd565b6040516104b991906138b4565b60405180910390f35b3480156104ce57600080fd5b506104e960048036038101906104e49190613846565b61168e565b6040516104f69190613d1e565b60405180910390f35b34801561050b57600080fd5b5061052660048036038101906105219190613d39565b611740565b604051610533919061394a565b60405180910390f35b34801561054857600080fd5b506105516117f7565b60405161055e9190613b29565b60405180910390f35b34801561057357600080fd5b5061057c61195b565b005b34801561058a57600080fd5b506105a560048036038101906105a09190613846565b6119e3565b005b3480156105b357600080fd5b506105bc611aac565b6040516105c991906138b4565b60405180910390f35b3480156105de57600080fd5b506105f960048036038101906105f49190613846565b611ad6565b005b34801561060757600080fd5b50610610611c6f565b60405161061d91906137ee565b60405180910390f35b34801561063257600080fd5b5061064d60048036038101906106489190613d92565b611d01565b005b34801561065b57600080fd5b5061067660048036038101906106719190613e73565b611d17565b005b610692600480360381019061068d9190613ef6565b611d79565b60405161069f919061394a565b60405180910390f35b3480156106b457600080fd5b506106bd611e89565b6040516106ca919061394a565b60405180910390f35b3480156106df57600080fd5b506106fa60048036038101906106f59190613846565b611e8f565b60405161070791906137ee565b60405180910390f35b34801561071c57600080fd5b50610725611fe0565b604051610732919061394a565b60405180910390f35b34801561074757600080fd5b50610762600480360381019061075d9190613f52565b611ff1565b60405161076f919061373a565b60405180910390f35b34801561078457600080fd5b5061079f600480360381019061079a9190613d39565b612085565b005b60007f80ac58cd000000000000000000000000000000000000000000000000000000007bffffffffffffffffffffffffffffffffffffffffffffffffffffffff1916827bffffffffffffffffffffffffffffffffffffffffffffffffffffffff1916148061086c57507f5b5e139f000000000000000000000000000000000000000000000000000000007bffffffffffffffffffffffffffffffffffffffffffffffffffffffff1916827bffffffffffffffffffffffffffffffffffffffffffffffffffffffff1916145b8061087c575061087b8261217c565b5b9050919050565b60606000805461089290613fc1565b80601f01602080910402602001604051908101604052809291908181526020018280546108be90613fc1565b801561090b5780601f106108e05761010080835404028352916020019161090b565b820191906000526020600020905b8154815290600101906020018083116108ee57829003601f168201915b5050505050905090565b6000610920826121e6565b61095f576040517f08c379a000000000000000000000000000000000000000000000000000000000815260040161095690614064565b60405180910390fd5b6004600083815260200190815260200160002060009054906101000a900473ffffffffffffffffffffffffffffffffffffffff169050919050565b60006109a5826115dd565b90508073ffffffffffffffffffffffffffffffffffffffff168373ffffffffffffffffffffffffffffffffffffffff1603610a15576040517f08c379a0000000000000000000000000000000000000000000000000000000008152600401610a0c906140f6565b60405180910390fd5b8073ffffffffffffffffffffffffffffffffffffffff16610a34612252565b73ffffffffffffffffffffffffffffffffffffffff161480610a635750610a6281610a5d612252565b611ff1565b5b610aa2576040517f08c379a0000000000000000000000000000000000000000000000000000000008152600401610a9990614188565b60405180910390fd5b610aac838361225a565b505050565b60006015600083815260200190815260200160002060009054906101000a900473ffffffffffffffffffffffffffffffffffffffff16905060006011600084815260200190815260200160002060009054906101000a900460ff16905060006012600085815260200190815260200160002054905060006014600086815260200190815260200160002054905060006013600087815260200190815260200160002060009054906101000a900473ffffffffffffffffffffffffffffffffffffffff16905083610bb6576040517f08c379a0000000000000000000000000000000000000000000000000000000008152600401610bad906141f4565b60405180910390fd5b82421015610bf9576040517f08c379a0000000000000000000000000000000000000000000000000000000008152600401610bf090614260565b60405180910390fd5b60006011600088815260200190815260200160002060006101000a81548160ff02191690831515021790555060006012600088815260200190815260200160002081905550610c49308288612313565b8473ffffffffffffffffffffffffffffffffffffffff166108fc839081150290604051600060405180830381858888f19350505050158015610c8f573d6000803e3d6000fd5b506000601460008881526020019081526020016000208190555060006013600088815260200190815260200160002060006101000a81548173ffffffffffffffffffffffffffffffffffffffff021916908373ffffffffffffffffffffffffffffffffffffffff160217905550505050505050565b6000600f80549050905090565b3373ffffffffffffffffffffffffffffffffffffffff16610d31836115dd565b73ffffffffffffffffffffffffffffffffffffffff1614610d87576040517f08c379a0000000000000000000000000000000000000000000000000000000008152600401610d7e906142cc565b60405180910390fd5b60001515600c600084815260200190815260200160002060020160149054906101000a900460ff16151514610df1576040517f08c379a0000000000000000000000000000000000000000000000000000000008152600401610de890614338565b60405180910390fd5b6008543414610e35576040517f08c379a0000000000000000000000000000000000000000000000000000000008152600401610e2c906143ca565b60405180910390fd5b6001600c600084815260200190815260200160002060020160146101000a81548160ff02191690831515021790555080600c600084815260200190815260200160002060010181905550610e896009612579565b5050565b610e9e610e98612252565b8261258f565b610edd576040517f08c379a0000000000000000000000000000000000000000000000000000000008152600401610ed49061445c565b60405180910390fd5b610ee8838383612313565b505050565b6000600c60008381526020019081526020016000206001015490506000610f13836115dd565b90508073ffffffffffffffffffffffffffffffffffffffff163373ffffffffffffffffffffffffffffffffffffffff1603610f83576040517f08c379a0000000000000000000000000000000000000000000000000000000008152600401610f7a906144c8565b60405180910390fd5b813414610fc5576040517f08c379a0000000000000000000000000000000000000000000000000000000008152600401610fbc90614534565b60405180910390fd5b6000600c600085815260200190815260200160002060020160146101000a81548160ff021916908315150217905550610ffe600961266d565b611009813385612313565b8073ffffffffffffffffffffffffffffffffffffffff166108fc349081150290604051600060405180830381858888f1935050505015801561104f573d6000803e3d6000fd5b50827f4a161b570f7064c0f57d89489eb656920c0daaa73589448066059278488c58d1348333426040516110869493929190614554565b60405180910390a2505050565b600061109e83611740565b82106110df576040517f08c379a00000000000000000000000000000000000000000000000000000000081526004016110d6906145e5565b60405180910390fd5b600d60008473ffffffffffffffffffffffffffffffffffffffff1673ffffffffffffffffffffffffffffffffffffffff168152602001908152602001600020600083815260200190815260200160002054905092915050565b60606000611144610d04565b905060008061115360096126c9565b67ffffffffffffffff81111561116c5761116b613b55565b5b6040519080825280602002602001820160405280156111a557816020015b6111926135a3565b81526020019060019003908161118a5790505b50905060005b838110156112c85760006111be8261156c565b90506000600c60008381526020019081526020016000209050600115158160020160149054906101000a900460ff161515036112b3578060405180608001604052908160008201548152602001600182015481526020016002820160009054906101000a900473ffffffffffffffffffffffffffffffffffffffff1673ffffffffffffffffffffffffffffffffffffffff1673ffffffffffffffffffffffffffffffffffffffff1681526020016002820160149054906101000a900460ff16151515158152505084868151811061129857611297614605565b5b60200260200101819052506001856112b09190614663565b94505b505080806112c0906146b9565b9150506111ab565b5080935050505090565b6112ed83838360405180602001604052806000815250611d17565b505050565b600060011515600b83604051611308919061473d565b908152602001604051809103902060009054906101000a900460ff161515149050919050565b60006011600083815260200190815260200160002060009054906101000a900460ff16905060006012600084815260200190815260200160002054905060006014600085815260200190815260200160002054905060006013600086815260200190815260200160002060009054906101000a900473ffffffffffffffffffffffffffffffffffffffff169050836113fb576040517f08c379a00000000000000000000000000000000000000000000000000000000081526004016113f2906141f4565b60405180910390fd5b82421061143d576040517f08c379a000000000000000000000000000000000000000000000000000000000815260040161143490614260565b60405180910390fd5b81341161147f576040517f08c379a0000000000000000000000000000000000000000000000000000000008152600401611476906147a0565b60405180910390fd5b600073ffffffffffffffffffffffffffffffffffffffff168173ffffffffffffffffffffffffffffffffffffffff16146114fb578073ffffffffffffffffffffffffffffffffffffffff166108fc839081150290604051600060405180830381858888f193505050501580156114f9573d6000803e3d6000fd5b505b346014600087815260200190815260200160002081905550336013600087815260200190815260200160002060006101000a81548173ffffffffffffffffffffffffffffffffffffffff021916908373ffffffffffffffffffffffffffffffffffffffff1602179055505050505050565b6000611576610d04565b82106115b7576040517f08c379a00000000000000000000000000000000000000000000000000000000081526004016115ae906145e5565b60405180910390fd5b600f82815481106115cb576115ca614605565b5b90600052602060002001549050919050565b6000806002600084815260200190815260200160002060009054906101000a900473ffffffffffffffffffffffffffffffffffffffff169050600073ffffffffffffffffffffffffffffffffffffffff168173ffffffffffffffffffffffffffffffffffffffff1603611685576040517f08c379a000000000000000000000000000000000000000000000000000000000815260040161167c90614832565b60405180910390fd5b80915050919050565b6116966135a3565b600c600083815260200190815260200160002060405180608001604052908160008201548152602001600182015481526020016002820160009054906101000a900473ffffffffffffffffffffffffffffffffffffffff1673ffffffffffffffffffffffffffffffffffffffff1673ffffffffffffffffffffffffffffffffffffffff1681526020016002820160149054906101000a900460ff1615151515815250509050919050565b60008073ffffffffffffffffffffffffffffffffffffffff168273ffffffffffffffffffffffffffffffffffffffff16036117b0576040517f08c379a00000000000000000000000000000000000000000000000000000000081526004016117a7906148c4565b60405180910390fd5b600360008373ffffffffffffffffffffffffffffffffffffffff1673ffffffffffffffffffffffffffffffffffffffff168152602001908152602001600020549050919050565b6060600061180433611740565b905060008167ffffffffffffffff81111561182257611821613b55565b5b60405190808252806020026020018201604052801561185b57816020015b6118486135a3565b8152602001906001900390816118405790505b50905060005b828110156119525760006118753383611093565b90506000600c600083815260200190815260200160002090508060405180608001604052908160008201548152602001600182015481526020016002820160009054906101000a900473ffffffffffffffffffffffffffffffffffffffff1673ffffffffffffffffffffffffffffffffffffffff1673ffffffffffffffffffffffffffffffffffffffff1681526020016002820160149054906101000a900460ff16151515158152505084848151811061193257611931614605565b5b60200260200101819052505050808061194a906146b9565b915050611861565b50809250505090565b611963612252565b73ffffffffffffffffffffffffffffffffffffffff16611981611aac565b73ffffffffffffffffffffffffffffffffffffffff16146119d7576040517f08c379a00000000000000000000000000000000000000000000000000000000081526004016119ce90614930565b60405180910390fd5b6119e160006126d7565b565b6119eb612252565b73ffffffffffffffffffffffffffffffffffffffff16611a09611aac565b73ffffffffffffffffffffffffffffffffffffffff1614611a5f576040517f08c379a0000000000000000000000000000000000000000000000000000000008152600401611a5690614930565b60405180910390fd5b60008111611aa2576040517f08c379a0000000000000000000000000000000000000000000000000000000008152600401611a999061499c565b60405180910390fd5b8060088190555050565b6000600760009054906101000a900473ffffffffffffffffffffffffffffffffffffffff16905090565b6000611ae1826115dd565b905060006011600084815260200190815260200160002060009054906101000a900460ff1690508173ffffffffffffffffffffffffffffffffffffffff163373ffffffffffffffffffffffffffffffffffffffff1614611b76576040517f08c379a0000000000000000000000000000000000000000000000000000000008152600401611b6d90614a08565b60405180910390fd5b6000151581151514611bbd576040517f08c379a0000000000000000000000000000000000000000000000000000000008152600401611bb490614a74565b60405180910390fd5b60016011600085815260200190815260200160002060006101000a81548160ff021916908315150217905550603c42611bf69190614663565b6012600085815260200190815260200160002081905550816015600085815260200190815260200160002060006101000a81548173ffffffffffffffffffffffffffffffffffffffff021916908373ffffffffffffffffffffffffffffffffffffffff160217905550611c6a823085612313565b505050565b606060018054611c7e90613fc1565b80601f0160208091040260200160405190810160405280929190818152602001828054611caa90613fc1565b8015611cf75780601f10611ccc57610100808354040283529160200191611cf7565b820191906000526020600020905b815481529060010190602001808311611cda57829003601f168201915b5050505050905090565b611d13611d0c612252565b838361279d565b5050565b611d28611d22612252565b8361258f565b611d67576040517f08c379a0000000000000000000000000000000000000000000000000000000008152600401611d5e9061445c565b60405180910390fd5b611d7384848484612909565b50505050565b6000611d84836112f2565b15611dc4576040517f08c379a0000000000000000000000000000000000000000000000000000000008152600401611dbb90614ae0565b60405180910390fd5b6008543414611e08576040517f08c379a0000000000000000000000000000000000000000000000000000000008152600401611dff906143ca565b60405180910390fd5b611e12600a612579565b611e1c6009612579565b6000611e28600a6126c9565b9050611e343382612965565b611e3e8185612983565b611e4881846129f7565b6001600b85604051611e5a919061473d565b908152602001604051809103902060006101000a81548160ff0219169083151502179055508091505092915050565b60085481565b6060611e9a826121e6565b611ed9576040517f08c379a0000000000000000000000000000000000000000000000000000000008152600401611ed090614b72565b60405180910390fd5b6000600660008481526020019081526020016000208054611ef990613fc1565b80601f0160208091040260200160405190810160405280929190818152602001828054611f2590613fc1565b8015611f725780601f10611f4757610100808354040283529160200191611f72565b820191906000526020600020905b815481529060010190602001808311611f5557829003601f168201915b505050505090506000611f83612b85565b90506000815103611f98578192505050611fdb565b600082511115611fcd578082604051602001611fb5929190614b92565b60405160208183030381529060405292505050611fdb565b611fd684612b9c565b925050505b919050565b6000611fec60096126c9565b905090565b6000600560008473ffffffffffffffffffffffffffffffffffffffff1673ffffffffffffffffffffffffffffffffffffffff16815260200190815260200160002060008373ffffffffffffffffffffffffffffffffffffffff1673ffffffffffffffffffffffffffffffffffffffff16815260200190815260200160002060009054906101000a900460ff16905092915050565b61208d612252565b73ffffffffffffffffffffffffffffffffffffffff166120ab611aac565b73ffffffffffffffffffffffffffffffffffffffff1614612101576040517f08c379a00000000000000000000000000000000000000000000000000000000081526004016120f890614930565b60405180910390fd5b600073ffffffffffffffffffffffffffffffffffffffff168173ffffffffffffffffffffffffffffffffffffffff1603612170576040517f08c379a000000000000000000000000000000000000000000000000000000000815260040161216790614c28565b60405180910390fd5b612179816126d7565b50565b60007f01ffc9a7000000000000000000000000000000000000000000000000000000007bffffffffffffffffffffffffffffffffffffffffffffffffffffffff1916827bffffffffffffffffffffffffffffffffffffffffffffffffffffffff1916149050919050565b60008073ffffffffffffffffffffffffffffffffffffffff166002600084815260200190815260200160002060009054906101000a900473ffffffffffffffffffffffffffffffffffffffff1673ffffffffffffffffffffffffffffffffffffffff1614159050919050565b600033905090565b816004600083815260200190815260200160002060006101000a81548173ffffffffffffffffffffffffffffffffffffffff021916908373ffffffffffffffffffffffffffffffffffffffff160217905550808273ffffffffffffffffffffffffffffffffffffffff166122cd836115dd565b73ffffffffffffffffffffffffffffffffffffffff167f8c5be1e5ebec7d5bd14f71427d1e84f3dd0314c0f7b2291e5b200ac8c7c3b92560405160405180910390a45050565b8273ffffffffffffffffffffffffffffffffffffffff16612333826115dd565b73ffffffffffffffffffffffffffffffffffffffff1614612389576040517f08c379a000000000000000000000000000000000000000000000000000000000815260040161238090614cba565b60405180910390fd5b600073ffffffffffffffffffffffffffffffffffffffff168273ffffffffffffffffffffffffffffffffffffffff16036123f8576040517f08c379a00000000000000000000000000000000000000000000000000000000081526004016123ef90614d4c565b60405180910390fd5b612403838383612c43565b61240e60008261225a565b6001600360008573ffffffffffffffffffffffffffffffffffffffff1673ffffffffffffffffffffffffffffffffffffffff168152602001908152602001600020600082825461245e9190614d6c565b925050819055506001600360008473ffffffffffffffffffffffffffffffffffffffff1673ffffffffffffffffffffffffffffffffffffffff16815260200190815260200160002060008282546124b59190614663565b92505081905550816002600083815260200190815260200160002060006101000a81548173ffffffffffffffffffffffffffffffffffffffff021916908373ffffffffffffffffffffffffffffffffffffffff160217905550808273ffffffffffffffffffffffffffffffffffffffff168473ffffffffffffffffffffffffffffffffffffffff167fddf252ad1be2c89b69c2b068fc378daa952ba7f163c4a11628f55a4df523b3ef60405160405180910390a4612574838383612d55565b505050565b6001816000016000828254019250508190555050565b600061259a826121e6565b6125d9576040517f08c379a00000000000000000000000000000000000000000000000000000000081526004016125d090614e12565b60405180910390fd5b60006125e4836115dd565b90508073ffffffffffffffffffffffffffffffffffffffff168473ffffffffffffffffffffffffffffffffffffffff16148061262657506126258185611ff1565b5b8061266457508373ffffffffffffffffffffffffffffffffffffffff1661264c84610915565b73ffffffffffffffffffffffffffffffffffffffff16145b91505092915050565b600081600001549050600081116126b9576040517f08c379a00000000000000000000000000000000000000000000000000000000081526004016126b090614e7e565b60405180910390fd5b6001810382600001819055505050565b600081600001549050919050565b6000600760009054906101000a900473ffffffffffffffffffffffffffffffffffffffff16905081600760006101000a81548173ffffffffffffffffffffffffffffffffffffffff021916908373ffffffffffffffffffffffffffffffffffffffff1602179055508173ffffffffffffffffffffffffffffffffffffffff168173ffffffffffffffffffffffffffffffffffffffff167f8be0079c531659141344cd1fd0a4f28419497f9722a3daafe3b4186f6b6457e060405160405180910390a35050565b8173ffffffffffffffffffffffffffffffffffffffff168373ffffffffffffffffffffffffffffffffffffffff160361280b576040517f08c379a000000000000000000000000000000000000000000000000000000000815260040161280290614eea565b60405180910390fd5b80600560008573ffffffffffffffffffffffffffffffffffffffff1673ffffffffffffffffffffffffffffffffffffffff16815260200190815260200160002060008473ffffffffffffffffffffffffffffffffffffffff1673ffffffffffffffffffffffffffffffffffffffff16815260200190815260200160002060006101000a81548160ff0219169083151502179055508173ffffffffffffffffffffffffffffffffffffffff168373ffffffffffffffffffffffffffffffffffffffff167f17307eab39ab6107e8899845ad3d59bd9653f200f220920489ca2b5937696c31836040516128fc919061373a565b60405180910390a3505050565b612914848484612313565b61292084848484612d5a565b61295f576040517f08c379a000000000000000000000000000000000000000000000000000000000815260040161295690614f7c565b60405180910390fd5b50505050565b61297f828260405180602001604052806000815250612ee1565b5050565b61298c826121e6565b6129cb576040517f08c379a00000000000000000000000000000000000000000000000000000000081526004016129c29061500e565b60405180910390fd5b806006600084815260200190815260200160002090805190602001906129f29291906135e3565b505050565b60008111612a3a576040517f08c379a0000000000000000000000000000000000000000000000000000000008152600401612a319061499c565b60405180910390fd5b60405180608001604052808381526020018281526020013373ffffffffffffffffffffffffffffffffffffffff16815260200160011515815250600c6000848152602001908152602001600020600082015181600001556020820151816001015560408201518160020160006101000a81548173ffffffffffffffffffffffffffffffffffffffff021916908373ffffffffffffffffffffffffffffffffffffffff16021790555060608201518160020160146101000a81548160ff021916908315150217905550905050817f470031062672bc0246e132c723a729c4676710ec663a29e86c88678032daddea82336001604051612b3a9392919061502e565b60405180910390a2817f4a161b570f7064c0f57d89489eb656920c0daaa73589448066059278488c58d18260003342604051612b799493929190614554565b60405180910390a25050565b606060405180602001604052806000815250905090565b6060612ba7826121e6565b612be6576040517f08c379a0000000000000000000000000000000000000000000000000000000008152600401612bdd906150d7565b60405180910390fd5b6000612bf0612b85565b90506000815111612c105760405180602001604052806000815250612c3b565b80612c1a84612f3c565b604051602001612c2b929190614b92565b6040516020818303038152906040525b915050919050565b612c4e83838361309c565b600073ffffffffffffffffffffffffffffffffffffffff168373ffffffffffffffffffffffffffffffffffffffff1603612c9057612c8b816130a1565b612ccf565b8173ffffffffffffffffffffffffffffffffffffffff168373ffffffffffffffffffffffffffffffffffffffff1614612cce57612ccd83826130ea565b5b5b600073ffffffffffffffffffffffffffffffffffffffff168273ffffffffffffffffffffffffffffffffffffffff1603612d1157612d0c81613257565b612d50565b8273ffffffffffffffffffffffffffffffffffffffff168273ffffffffffffffffffffffffffffffffffffffff1614612d4f57612d4e8282613328565b5b5b505050565b505050565b6000612d7b8473ffffffffffffffffffffffffffffffffffffffff166133a7565b15612ed4578373ffffffffffffffffffffffffffffffffffffffff1663150b7a02612da4612252565b8786866040518563ffffffff1660e01b8152600401612dc6949392919061514c565b6020604051808303816000875af1925050508015612e0257506040513d601f19601f82011682018060405250810190612dff91906151ad565b60015b612e84573d8060008114612e32576040519150601f19603f3d011682016040523d82523d6000602084013e612e37565b606091505b506000815103612e7c576040517f08c379a0000000000000000000000000000000000000000000000000000000008152600401612e7390614f7c565b60405180910390fd5b805181602001fd5b63150b7a0260e01b7bffffffffffffffffffffffffffffffffffffffffffffffffffffffff1916817bffffffffffffffffffffffffffffffffffffffffffffffffffffffff191614915050612ed9565b600190505b949350505050565b612eeb83836133ca565b612ef86000848484612d5a565b612f37576040517f08c379a0000000000000000000000000000000000000000000000000000000008152600401612f2e90614f7c565b60405180910390fd5b505050565b606060008203612f83576040518060400160405280600181526020017f30000000000000000000000000000000000000000000000000000000000000008152509050613097565b600082905060005b60008214612fb5578080612f9e906146b9565b915050600a82612fae9190615209565b9150612f8b565b60008167ffffffffffffffff811115612fd157612fd0613b55565b5b6040519080825280601f01601f1916602001820160405280156130035781602001600182028036833780820191505090505b5090505b600085146130905760018261301c9190614d6c565b9150600a8561302b919061523a565b60306130379190614663565b60f81b81838151811061304d5761304c614605565b5b60200101907effffffffffffffffffffffffffffffffffffffffffffffffffffffffffffff1916908160001a905350600a856130899190615209565b9450613007565b8093505050505b919050565b505050565b600f805490506010600083815260200190815260200160002081905550600f81908060018154018082558091505060019003906000526020600020016000909190919091505550565b600060016130f784611740565b6131019190614d6c565b90506000600e60008481526020019081526020016000205490508181146131e6576000600d60008673ffffffffffffffffffffffffffffffffffffffff1673ffffffffffffffffffffffffffffffffffffffff168152602001908152602001600020600084815260200190815260200160002054905080600d60008773ffffffffffffffffffffffffffffffffffffffff1673ffffffffffffffffffffffffffffffffffffffff16815260200190815260200160002060008481526020019081526020016000208190555081600e600083815260200190815260200160002081905550505b600e600084815260200190815260200160002060009055600d60008573ffffffffffffffffffffffffffffffffffffffff1673ffffffffffffffffffffffffffffffffffffffff16815260200190815260200160002060008381526020019081526020016000206000905550505050565b60006001600f8054905061326b9190614d6c565b90506000601060008481526020019081526020016000205490506000600f838154811061329b5761329a614605565b5b9060005260206000200154905080600f83815481106132bd576132bc614605565b5b90600052602060002001819055508160106000838152602001908152602001600020819055506010600085815260200190815260200160002060009055600f80548061330c5761330b61526b565b5b6001900381819060005260206000200160009055905550505050565b600061333383611740565b905081600d60008573ffffffffffffffffffffffffffffffffffffffff1673ffffffffffffffffffffffffffffffffffffffff16815260200190815260200160002060008381526020019081526020016000208190555080600e600084815260200190815260200160002081905550505050565b6000808273ffffffffffffffffffffffffffffffffffffffff163b119050919050565b600073ffffffffffffffffffffffffffffffffffffffff168273ffffffffffffffffffffffffffffffffffffffff1603613439576040517f08c379a0000000000000000000000000000000000000000000000000000000008152600401613430906152e6565b60405180910390fd5b613442816121e6565b15613482576040517f08c379a000000000000000000000000000000000000000000000000000000000815260040161347990615352565b60405180910390fd5b61348e60008383612c43565b6001600360008473ffffffffffffffffffffffffffffffffffffffff1673ffffffffffffffffffffffffffffffffffffffff16815260200190815260200160002060008282546134de9190614663565b92505081905550816002600083815260200190815260200160002060006101000a81548173ffffffffffffffffffffffffffffffffffffffff021916908373ffffffffffffffffffffffffffffffffffffffff160217905550808273ffffffffffffffffffffffffffffffffffffffff16600073ffffffffffffffffffffffffffffffffffffffff167fddf252ad1be2c89b69c2b068fc378daa952ba7f163c4a11628f55a4df523b3ef60405160405180910390a461359f60008383612d55565b5050565b60405180608001604052806000815260200160008152602001600073ffffffffffffffffffffffffffffffffffffffff1681526020016000151581525090565b8280546135ef90613fc1565b90600052602060002090601f0160209004810192826136115760008555613658565b82601f1061362a57805160ff1916838001178555613658565b82800160010185558215613658579182015b8281111561365757825182559160200191906001019061363c565b5b5090506136659190613669565b5090565b5b8082111561368257600081600090555060010161366a565b5090565b6000604051905090565b600080fd5b600080fd5b60007fffffffff0000000000000000000000000000000000000000000000000000000082169050919050565b6136cf8161369a565b81146136da57600080fd5b50565b6000813590506136ec816136c6565b92915050565b60006020828403121561370857613707613690565b5b6000613716848285016136dd565b91505092915050565b60008115159050919050565b6137348161371f565b82525050565b600060208201905061374f600083018461372b565b92915050565b600081519050919050565b600082825260208201905092915050565b60005b8381101561378f578082015181840152602081019050613774565b8381111561379e576000848401525b50505050565b6000601f19601f8301169050919050565b60006137c082613755565b6137ca8185613760565b93506137da818560208601613771565b6137e3816137a4565b840191505092915050565b6000602082019050818103600083015261380881846137b5565b905092915050565b6000819050919050565b61382381613810565b811461382e57600080fd5b50565b6000813590506138408161381a565b92915050565b60006020828403121561385c5761385b613690565b5b600061386a84828501613831565b91505092915050565b600073ffffffffffffffffffffffffffffffffffffffff82169050919050565b600061389e82613873565b9050919050565b6138ae81613893565b82525050565b60006020820190506138c960008301846138a5565b92915050565b6138d881613893565b81146138e357600080fd5b50565b6000813590506138f5816138cf565b92915050565b6000806040838503121561391257613911613690565b5b6000613920858286016138e6565b925050602061393185828601613831565b9150509250929050565b61394481613810565b82525050565b600060208201905061395f600083018461393b565b92915050565b6000806040838503121561397c5761397b613690565b5b600061398a85828601613831565b925050602061399b85828601613831565b9150509250929050565b6000806000606084860312156139be576139bd613690565b5b60006139cc868287016138e6565b93505060206139dd868287016138e6565b92505060406139ee86828701613831565b9150509250925092565b600081519050919050565b600082825260208201905092915050565b6000819050602082019050919050565b613a2d81613810565b82525050565b613a3c81613893565b82525050565b613a4b8161371f565b82525050565b608082016000820151613a676000850182613a24565b506020820151613a7a6020850182613a24565b506040820151613a8d6040850182613a33565b506060820151613aa06060850182613a42565b50505050565b6000613ab28383613a51565b60808301905092915050565b6000602082019050919050565b6000613ad6826139f8565b613ae08185613a03565b9350613aeb83613a14565b8060005b83811015613b1c578151613b038882613aa6565b9750613b0e83613abe565b925050600181019050613aef565b5085935050505092915050565b60006020820190508181036000830152613b438184613acb565b905092915050565b600080fd5b600080fd5b7f4e487b7100000000000000000000000000000000000000000000000000000000600052604160045260246000fd5b613b8d826137a4565b810181811067ffffffffffffffff82111715613bac57613bab613b55565b5b80604052505050565b6000613bbf613686565b9050613bcb8282613b84565b919050565b600067ffffffffffffffff821115613beb57613bea613b55565b5b613bf4826137a4565b9050602081019050919050565b82818337600083830152505050565b6000613c23613c1e84613bd0565b613bb5565b905082815260208101848484011115613c3f57613c3e613b50565b5b613c4a848285613c01565b509392505050565b600082601f830112613c6757613c66613b4b565b5b8135613c77848260208601613c10565b91505092915050565b600060208284031215613c9657613c95613690565b5b600082013567ffffffffffffffff811115613cb457613cb3613695565b5b613cc084828501613c52565b91505092915050565b608082016000820151613cdf6000850182613a24565b506020820151613cf26020850182613a24565b506040820151613d056040850182613a33565b506060820151613d186060850182613a42565b50505050565b6000608082019050613d336000830184613cc9565b92915050565b600060208284031215613d4f57613d4e613690565b5b6000613d5d848285016138e6565b91505092915050565b613d6f8161371f565b8114613d7a57600080fd5b50565b600081359050613d8c81613d66565b92915050565b60008060408385031215613da957613da8613690565b5b6000613db7858286016138e6565b9250506020613dc885828601613d7d565b9150509250929050565b600067ffffffffffffffff821115613ded57613dec613b55565b5b613df6826137a4565b9050602081019050919050565b6000613e16613e1184613dd2565b613bb5565b905082815260208101848484011115613e3257613e31613b50565b5b613e3d848285613c01565b509392505050565b600082601f830112613e5a57613e59613b4b565b5b8135613e6a848260208601613e03565b91505092915050565b60008060008060808587031215613e8d57613e8c613690565b5b6000613e9b878288016138e6565b9450506020613eac878288016138e6565b9350506040613ebd87828801613831565b925050606085013567ffffffffffffffff811115613ede57613edd613695565b5b613eea87828801613e45565b91505092959194509250565b60008060408385031215613f0d57613f0c613690565b5b600083013567ffffffffffffffff811115613f2b57613f2a613695565b5b613f3785828601613c52565b9250506020613f4885828601613831565b9150509250929050565b60008060408385031215613f6957613f68613690565b5b6000613f77858286016138e6565b9250506020613f88858286016138e6565b9150509250929050565b7f4e487b7100000000000000000000000000000000000000000000000000000000600052602260045260246000fd5b60006002820490506001821680613fd957607f821691505b602082108103613fec57613feb613f92565b5b50919050565b7f4552433732313a20617070726f76656420717565727920666f72206e6f6e657860008201527f697374656e7420746f6b656e0000000000000000000000000000000000000000602082015250565b600061404e602c83613760565b915061405982613ff2565b604082019050919050565b6000602082019050818103600083015261407d81614041565b9050919050565b7f4552433732313a20617070726f76616c20746f2063757272656e74206f776e6560008201527f7200000000000000000000000000000000000000000000000000000000000000602082015250565b60006140e0602183613760565b91506140eb82614084565b604082019050919050565b6000602082019050818103600083015261410f816140d3565b9050919050565b7f4552433732313a20617070726f76652063616c6c6572206973206e6f74206f7760008201527f6e6572206e6f7220617070726f76656420666f7220616c6c0000000000000000602082015250565b6000614172603883613760565b915061417d82614116565b604082019050919050565b600060208201905081810360008301526141a181614165565b9050919050565b7f6e6f742073746172746564000000000000000000000000000000000000000000600082015250565b60006141de600b83613760565b91506141e9826141a8565b602082019050919050565b6000602082019050818103600083015261420d816141d1565b9050919050565b7f656e646564000000000000000000000000000000000000000000000000000000600082015250565b600061424a600583613760565b915061425582614214565b602082019050919050565b600060208201905081810360008301526142798161423d565b9050919050565b7f596f7520617265206e6f74206f776e6572206f662074686973206e6674000000600082015250565b60006142b6601d83613760565b91506142c182614280565b602082019050919050565b600060208201905081810360008301526142e5816142a9565b9050919050565b7f4974656d20697320616c7265616479206f6e2073616c65000000000000000000600082015250565b6000614322601783613760565b915061432d826142ec565b602082019050919050565b6000602082019050818103600083015261435181614315565b9050919050565b7f5072696365206d75737420626520657175616c20746f206c697374696e67207060008201527f7269636500000000000000000000000000000000000000000000000000000000602082015250565b60006143b4602483613760565b91506143bf82614358565b604082019050919050565b600060208201905081810360008301526143e3816143a7565b9050919050565b7f4552433732313a207472616e736665722063616c6c6572206973206e6f74206f60008201527f776e6572206e6f7220617070726f766564000000000000000000000000000000602082015250565b6000614446603183613760565b9150614451826143ea565b604082019050919050565b6000602082019050818103600083015261447581614439565b9050919050565b7f596f7520616c7265616479206f776e2074686973204e46540000000000000000600082015250565b60006144b2601883613760565b91506144bd8261447c565b602082019050919050565b600060208201905081810360008301526144e1816144a5565b9050919050565b7f506c65617365207375626d6974207468652061736b696e672070726963650000600082015250565b600061451e601e83613760565b9150614529826144e8565b602082019050919050565b6000602082019050818103600083015261454d81614511565b9050919050565b6000608082019050614569600083018761393b565b61457660208301866138a5565b61458360408301856138a5565b614590606083018461393b565b95945050505050565b7f496e646578206f7574206f6620626f756e647300000000000000000000000000600082015250565b60006145cf601383613760565b91506145da82614599565b602082019050919050565b600060208201905081810360008301526145fe816145c2565b9050919050565b7f4e487b7100000000000000000000000000000000000000000000000000000000600052603260045260246000fd5b7f4e487b7100000000000000000000000000000000000000000000000000000000600052601160045260246000fd5b600061466e82613810565b915061467983613810565b9250827fffffffffffffffffffffffffffffffffffffffffffffffffffffffffffffffff038211156146ae576146ad614634565b5b828201905092915050565b60006146c482613810565b91507fffffffffffffffffffffffffffffffffffffffffffffffffffffffffffffffff82036146f6576146f5614634565b5b600182019050919050565b600081905092915050565b600061471782613755565b6147218185614701565b9350614731818560208601613771565b80840191505092915050565b6000614749828461470c565b915081905092915050565b7f2076616c7565203c206869676865737420626964000000000000000000000000600082015250565b600061478a601483613760565b915061479582614754565b602082019050919050565b600060208201905081810360008301526147b98161477d565b9050919050565b7f4552433732313a206f776e657220717565727920666f72206e6f6e657869737460008201527f656e7420746f6b656e0000000000000000000000000000000000000000000000602082015250565b600061481c602983613760565b9150614827826147c0565b604082019050919050565b6000602082019050818103600083015261484b8161480f565b9050919050565b7f4552433732313a2062616c616e636520717565727920666f7220746865207a6560008201527f726f206164647265737300000000000000000000000000000000000000000000602082015250565b60006148ae602a83613760565b91506148b982614852565b604082019050919050565b600060208201905081810360008301526148dd816148a1565b9050919050565b7f4f776e61626c653a2063616c6c6572206973206e6f7420746865206f776e6572600082015250565b600061491a602083613760565b9150614925826148e4565b602082019050919050565b600060208201905081810360008301526149498161490d565b9050919050565b7f5072696365206d757374206265206174206c6561737420312077656900000000600082015250565b6000614986601c83613760565b915061499182614950565b602082019050919050565b600060208201905081810360008301526149b581614979565b9050919050565b7f6e6f742073656c6c657200000000000000000000000000000000000000000000600082015250565b60006149f2600a83613760565b91506149fd826149bc565b602082019050919050565b60006020820190508181036000830152614a21816149e5565b9050919050565b7f7374617274656400000000000000000000000000000000000000000000000000600082015250565b6000614a5e600783613760565b9150614a6982614a28565b602082019050919050565b60006020820190508181036000830152614a8d81614a51565b9050919050565b7f546f6b656e2055524920616c7265616479206578697374730000000000000000600082015250565b6000614aca601883613760565b9150614ad582614a94565b602082019050919050565b60006020820190508181036000830152614af981614abd565b9050919050565b7f45524337323155524953746f726167653a2055524920717565727920666f722060008201527f6e6f6e6578697374656e7420746f6b656e000000000000000000000000000000602082015250565b6000614b5c603183613760565b9150614b6782614b00565b604082019050919050565b60006020820190508181036000830152614b8b81614b4f565b9050919050565b6000614b9e828561470c565b9150614baa828461470c565b91508190509392505050565b7f4f776e61626c653a206e6577206f776e657220697320746865207a65726f206160008201527f6464726573730000000000000000000000000000000000000000000000000000602082015250565b6000614c12602683613760565b9150614c1d82614bb6565b604082019050919050565b60006020820190508181036000830152614c4181614c05565b9050919050565b7f4552433732313a207472616e736665722066726f6d20696e636f72726563742060008201527f6f776e6572000000000000000000000000000000000000000000000000000000602082015250565b6000614ca4602583613760565b9150614caf82614c48565b604082019050919050565b60006020820190508181036000830152614cd381614c97565b9050919050565b7f4552433732313a207472616e7366657220746f20746865207a65726f2061646460008201527f7265737300000000000000000000000000000000000000000000000000000000602082015250565b6000614d36602483613760565b9150614d4182614cda565b604082019050919050565b60006020820190508181036000830152614d6581614d29565b9050919050565b6000614d7782613810565b9150614d8283613810565b925082821015614d9557614d94614634565b5b828203905092915050565b7f4552433732313a206f70657261746f7220717565727920666f72206e6f6e657860008201527f697374656e7420746f6b656e0000000000000000000000000000000000000000602082015250565b6000614dfc602c83613760565b9150614e0782614da0565b604082019050919050565b60006020820190508181036000830152614e2b81614def565b9050919050565b7f436f756e7465723a2064656372656d656e74206f766572666c6f770000000000600082015250565b6000614e68601b83613760565b9150614e7382614e32565b602082019050919050565b60006020820190508181036000830152614e9781614e5b565b9050919050565b7f4552433732313a20617070726f766520746f2063616c6c657200000000000000600082015250565b6000614ed4601983613760565b9150614edf82614e9e565b602082019050919050565b60006020820190508181036000830152614f0381614ec7565b9050919050565b7f4552433732313a207472616e7366657220746f206e6f6e20455243373231526560008201527f63656976657220696d706c656d656e7465720000000000000000000000000000602082015250565b6000614f66603283613760565b9150614f7182614f0a565b604082019050919050565b60006020820190508181036000830152614f9581614f59565b9050919050565b7f45524337323155524953746f726167653a2055524920736574206f66206e6f6e60008201527f6578697374656e7420746f6b656e000000000000000000000000000000000000602082015250565b6000614ff8602e83613760565b915061500382614f9c565b604082019050919050565b6000602082019050818103600083015261502781614feb565b9050919050565b6000606082019050615043600083018661393b565b61505060208301856138a5565b61505d604083018461372b565b949350505050565b7f4552433732314d657461646174613a2055524920717565727920666f72206e6f60008201527f6e6578697374656e7420746f6b656e0000000000000000000000000000000000602082015250565b60006150c1602f83613760565b91506150cc82615065565b604082019050919050565b600060208201905081810360008301526150f0816150b4565b9050919050565b600081519050919050565b600082825260208201905092915050565b600061511e826150f7565b6151288185615102565b9350615138818560208601613771565b615141816137a4565b840191505092915050565b600060808201905061516160008301876138a5565b61516e60208301866138a5565b61517b604083018561393b565b818103606083015261518d8184615113565b905095945050505050565b6000815190506151a7816136c6565b92915050565b6000602082840312156151c3576151c2613690565b5b60006151d184828501615198565b91505092915050565b7f4e487b7100000000000000000000000000000000000000000000000000000000600052601260045260246000fd5b600061521482613810565b915061521f83613810565b92508261522f5761522e6151da565b5b828204905092915050565b600061524582613810565b915061525083613810565b9250826152605761525f6151da565b5b828206905092915050565b7f4e487b7100000000000000000000000000000000000000000000000000000000600052603160045260246000fd5b7f4552433732313a206d696e7420746f20746865207a65726f2061646472657373600082015250565b60006152d0602083613760565b91506152db8261529a565b602082019050919050565b600060208201905081810360008301526152ff816152c3565b9050919050565b7f4552433732313a20746f6b656e20616c7265616479206d696e74656400000000600082015250565b600061533c601c83613760565b915061534782615306565b602082019050919050565b6000602082019050818103600083015261536b8161532f565b905091905056fea264697066735822122000d35a37a66f7a5747736bd0d49e3661af7386757689164ecef5e4cee2b31f2064736f6c634300080e0033",
  "immutableReferences": {},
  "source": "// SPDX-License-Identifier: MIT\npragma solidity >=0.4.22 <0.9.0;\n\nimport \"@openzeppelin/contracts/token/ERC721/extensions/ERC721URIStorage.sol\";\nimport \"@openzeppelin/contracts/utils/Counters.sol\";\nimport \"@openzeppelin/contracts/access/Ownable.sol\";\n\ncontract NftMarket is ERC721URIStorage, Ownable {\n    using Counters for Counters.Counter;\n\n    struct NftItem {\n        uint256 tokenId;\n        uint256 price;\n        address creator;\n        bool isListed;\n    }\n\n    uint256 public listingPrice = 0.025 ether;\n\n    Counters.Counter private _listedItems;\n    Counters.Counter private _tokenIds;\n\n    mapping(string => bool) private _usedTokenURIs; //xac nh xem URI  tn ti cha\n    mapping(uint256 => NftItem) private _idToNftItem; //id=>nft\n\n    mapping(address => mapping(uint256 => uint256)) private _ownedTokens; //a ch => (s th t => tokenId)\n    mapping(uint256 => uint256) private _idToOwnedIndex; //tokenId => s th t th bao nhiu ca 1 address\n\n    uint256[] private _allNfts; //chua id cua tat ca token\n\n    mapping(uint256 => uint256) private _idToNftIndex; //id=>index\n\n    mapping(uint256 => bool) private _idToStarted; //id => is started bid\n    mapping(uint256 => uint256) private _idToEndAt;\n    mapping(uint256 => address) private _idToHighestBidder;\n    mapping(uint256 => uint256) private _idToHighestBid;\n    mapping(uint256 => address) private _idToBidOwn;\n\n    event NftItemCreated(\n        uint256 indexed tokenId,\n        uint256 price,\n        address creator,\n        bool isListed\n    );\n\n    event NftTransactions(\n        uint256 indexed tokenId,\n        uint256 price,\n        address from,\n        address to,\n        uint time\n    );\n\n    constructor() ERC721(\"ABC\", \"VTKV\") {}\n\n    function start(uint256 tokenId) external {\n        address owner = ERC721.ownerOf(tokenId);\n        bool isStarted = _idToStarted[tokenId];\n        require(msg.sender == owner, \"not seller\");\n        require(isStarted == false, \"started\");\n        _idToStarted[tokenId] = true;\n        _idToEndAt[tokenId] = block.timestamp + 60;\n        _idToBidOwn[tokenId] = owner;\n        _transfer(owner, address(this), tokenId);\n    }\n\n    function bid(uint256 tokenId) external payable {\n        bool isStarted = _idToStarted[tokenId];\n        uint256 endAt = _idToEndAt[tokenId];\n        uint256 highestBid = _idToHighestBid[tokenId];\n        address highestBidder = _idToHighestBidder[tokenId];\n        require(isStarted, \"not started\");\n        require(block.timestamp < endAt, \"ended\");\n        require(msg.value > highestBid, \" value < highest bid\");\n        if(highestBidder != address(0)) {\n            payable(highestBidder).transfer(highestBid);\n        }\n        _idToHighestBid[tokenId] = msg.value;\n        _idToHighestBidder[tokenId] = msg.sender;\n    }\n\n    function end(uint256 tokenId) external payable{\n        address bidOwn = _idToBidOwn[tokenId];\n        bool isStarted = _idToStarted[tokenId];\n        uint256 endAt = _idToEndAt[tokenId];\n        uint256 highestBid = _idToHighestBid[tokenId];\n        address highestBidder = _idToHighestBidder[tokenId];\n        require(isStarted, \"not started\");\n        require(block.timestamp >= endAt, \"ended\");\n        _idToStarted[tokenId] = false;\n        _idToEndAt[tokenId] = 0;\n        _transfer(address(this), highestBidder, tokenId);\n        payable(bidOwn).transfer(highestBid);\n        _idToHighestBid[tokenId] = 0;\n        _idToHighestBidder[tokenId] = address(0);\n    }\n\n    function setListingPrice(uint256 newPrice) external onlyOwner {\n        require(newPrice > 0, \"Price must be at least 1 wei\");\n        listingPrice = newPrice;\n    }\n\n    function getNftItem(uint256 tokenId) public view returns (NftItem memory) {\n        return _idToNftItem[tokenId];\n    }\n\n    function listedItemsCount() public view returns (uint256) {\n        return _listedItems.current();\n    }\n\n    function tokenURIExists(string memory tokenURI) public view returns (bool) {\n        return _usedTokenURIs[tokenURI] == true;\n    }\n\n    function totalSupply() public view returns (uint256) {\n        return _allNfts.length;\n    }\n\n    function tokenByIndex(uint256 index) public view returns (uint256) {\n        require(index < totalSupply(), \"Index out of bounds\");\n        return _allNfts[index];\n    }\n\n    function tokenOfOwnerByIndex(address owner, uint256 index)\n        public\n        view\n        returns (uint256)\n    {\n        require(index < ERC721.balanceOf(owner), \"Index out of bounds\");\n        return _ownedTokens[owner][index];\n    }\n\n    function getAllNftsOnSale() public view returns (NftItem[] memory) {\n        uint256 allItemsCounts = totalSupply();\n        uint256 currentIndex = 0;\n        NftItem[] memory items = new NftItem[](_listedItems.current());\n\n        for (uint256 i = 0; i < allItemsCounts; i++) {\n            uint256 tokenId = tokenByIndex(i);\n            NftItem storage item = _idToNftItem[tokenId];\n\n            if (item.isListed == true) {\n                items[currentIndex] = item;\n                currentIndex += 1;\n            }\n        }\n\n        return items;\n    }\n\n    function getOwnedNfts() public view returns (NftItem[] memory) {\n        uint256 ownedItemsCount = ERC721.balanceOf(msg.sender);\n        NftItem[] memory items = new NftItem[](ownedItemsCount);\n\n        for (uint256 i = 0; i < ownedItemsCount; i++) {\n            uint256 tokenId = tokenOfOwnerByIndex(msg.sender, i);\n            NftItem storage item = _idToNftItem[tokenId];\n            items[i] = item;\n        }\n\n        return items;\n    }\n\n    function mintToken(string memory tokenURI, uint256 price)\n        public\n        payable\n        returns (uint256)\n    {\n        require(!tokenURIExists(tokenURI), \"Token URI already exists\");\n        require(\n            msg.value == listingPrice,\n            \"Price must be equal to listing price\"\n        );\n\n        _tokenIds.increment();\n        _listedItems.increment();\n\n        uint256 newTokenId = _tokenIds.current();\n\n        _safeMint(msg.sender, newTokenId);\n        _setTokenURI(newTokenId, tokenURI);\n        _createNftItem(newTokenId, price);\n        _usedTokenURIs[tokenURI] = true;\n\n        return newTokenId;\n    }\n\n    function buyNft(uint256 tokenId) public payable {\n        uint256 price = _idToNftItem[tokenId].price;\n        address owner = ERC721.ownerOf(tokenId);\n\n        require(msg.sender != owner, \"You already own this NFT\");\n        require(msg.value == price, \"Please submit the asking price\");\n\n        _idToNftItem[tokenId].isListed = false;\n        _listedItems.decrement();\n\n        _transfer(owner, msg.sender, tokenId);\n        payable(owner).transfer(msg.value);\n\n        emit NftTransactions(tokenId, msg.value, owner, msg.sender, block.timestamp);\n    }\n\n    function placeNftOnSale(uint256 tokenId, uint256 newPrice) public payable {\n        require(\n            ERC721.ownerOf(tokenId) == msg.sender,\n            \"You are not owner of this nft\"\n        );\n        require(\n            _idToNftItem[tokenId].isListed == false,\n            \"Item is already on sale\"\n        );\n        require(\n            msg.value == listingPrice,\n            \"Price must be equal to listing price\"\n        );\n\n        _idToNftItem[tokenId].isListed = true;\n        _idToNftItem[tokenId].price = newPrice;\n        _listedItems.increment();\n    }\n\n    function _createNftItem(uint256 tokenId, uint256 price) private {\n        require(price > 0, \"Price must be at least 1 wei\");\n\n        _idToNftItem[tokenId] = NftItem(tokenId, price, msg.sender, true);\n\n        emit NftItemCreated(tokenId, price, msg.sender, true);\n        emit NftTransactions(tokenId, price, address(0), msg.sender, block.timestamp);\n    }\n\n    function _beforeTokenTransfer(\n        address from,\n        address to,\n        uint256 tokenId\n    ) internal virtual override {\n        super._beforeTokenTransfer(from, to, tokenId);\n\n        // minting token\n        if (from == address(0)) {\n            _addTokenToAllTokensEnumeration(tokenId);\n        } else if (from != to) {\n            _removeTokenFromOwnerEnumeration(from, tokenId);\n        }\n\n        if (to == address(0)) {\n            _removeTokenFromAllTokensEnumeration(tokenId);\n        } else if (to != from) {\n            _addTokenToOwnerEnumeration(to, tokenId);\n        }\n    }\n\n    function _addTokenToAllTokensEnumeration(uint256 tokenId) private {\n        _idToNftIndex[tokenId] = _allNfts.length;\n        _allNfts.push(tokenId);\n    }\n\n    function _addTokenToOwnerEnumeration(address to, uint256 tokenId) private {\n        uint256 length = ERC721.balanceOf(to);\n        _ownedTokens[to][length] = tokenId;\n        _idToOwnedIndex[tokenId] = length;\n    }\n\n    function _removeTokenFromOwnerEnumeration(address from, uint256 tokenId)\n        private\n    {\n        uint256 lastTokenIndex = ERC721.balanceOf(from) - 1;\n        uint256 tokenIndex = _idToOwnedIndex[tokenId];\n\n        if (tokenIndex != lastTokenIndex) {\n            uint256 lastTokenId = _ownedTokens[from][lastTokenIndex];\n\n            _ownedTokens[from][tokenIndex] = lastTokenId;\n            _idToOwnedIndex[lastTokenId] = tokenIndex;\n        }\n\n        delete _idToOwnedIndex[tokenId];\n        delete _ownedTokens[from][lastTokenIndex];\n        //gn gi tr ca ni cn xa bng gi tr ti v tr cui cng ri gn v tr cui cng=0, khng th xa mapping, ch c th gn=0\n    }\n\n    function _removeTokenFromAllTokensEnumeration(uint256 tokenId) private {\n        uint256 lastTokenIndex = _allNfts.length - 1;\n        uint256 tokenIndex = _idToNftIndex[tokenId];\n        uint256 lastTokenId = _allNfts[lastTokenIndex];\n\n        _allNfts[tokenIndex] = lastTokenId;\n        _idToNftIndex[lastTokenId] = tokenIndex;\n\n        delete _idToNftIndex[tokenId];\n        _allNfts.pop();\n    }\n}\n",
  "sourcePath": "/home/thanh/Desktop/nft_marketplace/market/contracts/NftMarket.sol",
  "compiler": {
    "name": "solc",
    "version": "0.8.14+commit.80d49f37.Emscripten.clang"
  },
  "schemaVersion": "3.4.7",
  "updatedAt": "2022-07-07T13:29:56.621Z",
  "networkType": "ethereum",
  "devdoc": {
    "kind": "dev",
    "methods": {
      "approve(address,uint256)": {
        "details": "See {IERC721-approve}."
      },
      "balanceOf(address)": {
        "details": "See {IERC721-balanceOf}."
      },
      "getApproved(uint256)": {
        "details": "See {IERC721-getApproved}."
      },
      "isApprovedForAll(address,address)": {
        "details": "See {IERC721-isApprovedForAll}."
      },
      "name()": {
        "details": "See {IERC721Metadata-name}."
      },
      "owner()": {
        "details": "Returns the address of the current owner."
      },
      "ownerOf(uint256)": {
        "details": "See {IERC721-ownerOf}."
      },
      "renounceOwnership()": {
        "details": "Leaves the contract without owner. It will not be possible to call `onlyOwner` functions anymore. Can only be called by the current owner. NOTE: Renouncing ownership will leave the contract without an owner, thereby removing any functionality that is only available to the owner."
      },
      "safeTransferFrom(address,address,uint256)": {
        "details": "See {IERC721-safeTransferFrom}."
      },
      "safeTransferFrom(address,address,uint256,bytes)": {
        "details": "See {IERC721-safeTransferFrom}."
      },
      "setApprovalForAll(address,bool)": {
        "details": "See {IERC721-setApprovalForAll}."
      },
      "supportsInterface(bytes4)": {
        "details": "See {IERC165-supportsInterface}."
      },
      "symbol()": {
        "details": "See {IERC721Metadata-symbol}."
      },
      "tokenURI(uint256)": {
        "details": "See {IERC721Metadata-tokenURI}."
      },
      "transferFrom(address,address,uint256)": {
        "details": "See {IERC721-transferFrom}."
      },
      "transferOwnership(address)": {
        "details": "Transfers ownership of the contract to a new account (`newOwner`). Can only be called by the current owner."
      }
    },
    "version": 1
  },
  "userdoc": {
    "kind": "user",
    "methods": {},
    "version": 1
  }
}