{
  "contractName": "NftMarket",
  "abi": [
    {
      "inputs": [],
      "stateMutability": "nonpayable",
      "type": "constructor"
    },
    {
      "anonymous": false,
      "inputs": [
        {
          "indexed": true,
          "internalType": "address",
          "name": "owner",
          "type": "address"
        },
        {
          "indexed": true,
          "internalType": "address",
          "name": "approved",
          "type": "address"
        },
        {
          "indexed": true,
          "internalType": "uint256",
          "name": "tokenId",
          "type": "uint256"
        }
      ],
      "name": "Approval",
      "type": "event"
    },
    {
      "anonymous": false,
      "inputs": [
        {
          "indexed": true,
          "internalType": "address",
          "name": "owner",
          "type": "address"
        },
        {
          "indexed": true,
          "internalType": "address",
          "name": "operator",
          "type": "address"
        },
        {
          "indexed": false,
          "internalType": "bool",
          "name": "approved",
          "type": "bool"
        }
      ],
      "name": "ApprovalForAll",
      "type": "event"
    },
    {
      "anonymous": false,
      "inputs": [
        {
          "indexed": true,
          "internalType": "uint256",
          "name": "tokenId",
          "type": "uint256"
        },
        {
          "indexed": false,
          "internalType": "uint256",
          "name": "price",
          "type": "uint256"
        },
        {
          "indexed": false,
          "internalType": "address",
          "name": "creator",
          "type": "address"
        },
        {
          "indexed": false,
          "internalType": "bool",
          "name": "isListed",
          "type": "bool"
        }
      ],
      "name": "NftItemCreated",
      "type": "event"
    },
    {
      "anonymous": false,
      "inputs": [
        {
          "indexed": true,
          "internalType": "uint256",
          "name": "tokenId",
          "type": "uint256"
        },
        {
          "indexed": false,
          "internalType": "uint256",
          "name": "price",
          "type": "uint256"
        },
        {
          "indexed": false,
          "internalType": "address",
          "name": "from",
          "type": "address"
        },
        {
          "indexed": false,
          "internalType": "address",
          "name": "to",
          "type": "address"
        },
        {
          "indexed": false,
          "internalType": "uint256",
          "name": "time",
          "type": "uint256"
        }
      ],
      "name": "NftTransactions",
      "type": "event"
    },
    {
      "anonymous": false,
      "inputs": [
        {
          "indexed": true,
          "internalType": "address",
          "name": "previousOwner",
          "type": "address"
        },
        {
          "indexed": true,
          "internalType": "address",
          "name": "newOwner",
          "type": "address"
        }
      ],
      "name": "OwnershipTransferred",
      "type": "event"
    },
    {
      "anonymous": false,
      "inputs": [
        {
          "indexed": true,
          "internalType": "address",
          "name": "from",
          "type": "address"
        },
        {
          "indexed": true,
          "internalType": "address",
          "name": "to",
          "type": "address"
        },
        {
          "indexed": true,
          "internalType": "uint256",
          "name": "tokenId",
          "type": "uint256"
        }
      ],
      "name": "Transfer",
      "type": "event"
    },
    {
      "inputs": [
        {
          "internalType": "address",
          "name": "to",
          "type": "address"
        },
        {
          "internalType": "uint256",
          "name": "tokenId",
          "type": "uint256"
        }
      ],
      "name": "approve",
      "outputs": [],
      "stateMutability": "nonpayable",
      "type": "function"
    },
    {
      "inputs": [
        {
          "internalType": "address",
          "name": "owner",
          "type": "address"
        }
      ],
      "name": "balanceOf",
      "outputs": [
        {
          "internalType": "uint256",
          "name": "",
          "type": "uint256"
        }
      ],
      "stateMutability": "view",
      "type": "function",
      "constant": true
    },
    {
      "inputs": [
        {
          "internalType": "uint256",
          "name": "tokenId",
          "type": "uint256"
        }
      ],
      "name": "getApproved",
      "outputs": [
        {
          "internalType": "address",
          "name": "",
          "type": "address"
        }
      ],
      "stateMutability": "view",
      "type": "function",
      "constant": true
    },
    {
      "inputs": [
        {
          "internalType": "address",
          "name": "owner",
          "type": "address"
        },
        {
          "internalType": "address",
          "name": "operator",
          "type": "address"
        }
      ],
      "name": "isApprovedForAll",
      "outputs": [
        {
          "internalType": "bool",
          "name": "",
          "type": "bool"
        }
      ],
      "stateMutability": "view",
      "type": "function",
      "constant": true
    },
    {
      "inputs": [],
      "name": "listingPrice",
      "outputs": [
        {
          "internalType": "uint256",
          "name": "",
          "type": "uint256"
        }
      ],
      "stateMutability": "view",
      "type": "function",
      "constant": true
    },
    {
      "inputs": [],
      "name": "name",
      "outputs": [
        {
          "internalType": "string",
          "name": "",
          "type": "string"
        }
      ],
      "stateMutability": "view",
      "type": "function",
      "constant": true
    },
    {
      "inputs": [],
      "name": "owner",
      "outputs": [
        {
          "internalType": "address",
          "name": "",
          "type": "address"
        }
      ],
      "stateMutability": "view",
      "type": "function",
      "constant": true
    },
    {
      "inputs": [
        {
          "internalType": "uint256",
          "name": "tokenId",
          "type": "uint256"
        }
      ],
      "name": "ownerOf",
      "outputs": [
        {
          "internalType": "address",
          "name": "",
          "type": "address"
        }
      ],
      "stateMutability": "view",
      "type": "function",
      "constant": true
    },
    {
      "inputs": [],
      "name": "renounceOwnership",
      "outputs": [],
      "stateMutability": "nonpayable",
      "type": "function"
    },
    {
      "inputs": [
        {
          "internalType": "address",
          "name": "from",
          "type": "address"
        },
        {
          "internalType": "address",
          "name": "to",
          "type": "address"
        },
        {
          "internalType": "uint256",
          "name": "tokenId",
          "type": "uint256"
        }
      ],
      "name": "safeTransferFrom",
      "outputs": [],
      "stateMutability": "nonpayable",
      "type": "function"
    },
    {
      "inputs": [
        {
          "internalType": "address",
          "name": "from",
          "type": "address"
        },
        {
          "internalType": "address",
          "name": "to",
          "type": "address"
        },
        {
          "internalType": "uint256",
          "name": "tokenId",
          "type": "uint256"
        },
        {
          "internalType": "bytes",
          "name": "_data",
          "type": "bytes"
        }
      ],
      "name": "safeTransferFrom",
      "outputs": [],
      "stateMutability": "nonpayable",
      "type": "function"
    },
    {
      "inputs": [
        {
          "internalType": "address",
          "name": "operator",
          "type": "address"
        },
        {
          "internalType": "bool",
          "name": "approved",
          "type": "bool"
        }
      ],
      "name": "setApprovalForAll",
      "outputs": [],
      "stateMutability": "nonpayable",
      "type": "function"
    },
    {
      "inputs": [
        {
          "internalType": "bytes4",
          "name": "interfaceId",
          "type": "bytes4"
        }
      ],
      "name": "supportsInterface",
      "outputs": [
        {
          "internalType": "bool",
          "name": "",
          "type": "bool"
        }
      ],
      "stateMutability": "view",
      "type": "function",
      "constant": true
    },
    {
      "inputs": [],
      "name": "symbol",
      "outputs": [
        {
          "internalType": "string",
          "name": "",
          "type": "string"
        }
      ],
      "stateMutability": "view",
      "type": "function",
      "constant": true
    },
    {
      "inputs": [
        {
          "internalType": "uint256",
          "name": "tokenId",
          "type": "uint256"
        }
      ],
      "name": "tokenURI",
      "outputs": [
        {
          "internalType": "string",
          "name": "",
          "type": "string"
        }
      ],
      "stateMutability": "view",
      "type": "function",
      "constant": true
    },
    {
      "inputs": [
        {
          "internalType": "address",
          "name": "from",
          "type": "address"
        },
        {
          "internalType": "address",
          "name": "to",
          "type": "address"
        },
        {
          "internalType": "uint256",
          "name": "tokenId",
          "type": "uint256"
        }
      ],
      "name": "transferFrom",
      "outputs": [],
      "stateMutability": "nonpayable",
      "type": "function"
    },
    {
      "inputs": [
        {
          "internalType": "address",
          "name": "newOwner",
          "type": "address"
        }
      ],
      "name": "transferOwnership",
      "outputs": [],
      "stateMutability": "nonpayable",
      "type": "function"
    },
    {
      "inputs": [
        {
          "internalType": "uint256",
          "name": "tokenId",
          "type": "uint256"
        }
      ],
      "name": "getEndAtById",
      "outputs": [
        {
          "internalType": "uint256",
          "name": "",
          "type": "uint256"
        }
      ],
      "stateMutability": "view",
      "type": "function",
      "constant": true
    },
    {
      "inputs": [
        {
          "internalType": "uint256",
          "name": "tokenId",
          "type": "uint256"
        },
        {
          "internalType": "uint256",
          "name": "time",
          "type": "uint256"
        }
      ],
      "name": "start",
      "outputs": [],
      "stateMutability": "nonpayable",
      "type": "function"
    },
    {
      "inputs": [
        {
          "internalType": "uint256",
          "name": "tokenId",
          "type": "uint256"
        },
        {
          "internalType": "uint256",
          "name": "time",
          "type": "uint256"
        }
      ],
      "name": "bid",
      "outputs": [],
      "stateMutability": "payable",
      "type": "function",
      "payable": true
    },
    {
      "inputs": [
        {
          "internalType": "uint256",
          "name": "tokenId",
          "type": "uint256"
        },
        {
          "internalType": "uint256",
          "name": "time",
          "type": "uint256"
        }
      ],
      "name": "end",
      "outputs": [],
      "stateMutability": "payable",
      "type": "function",
      "payable": true
    },
    {
      "inputs": [
        {
          "internalType": "uint256",
          "name": "newPrice",
          "type": "uint256"
        }
      ],
      "name": "setListingPrice",
      "outputs": [],
      "stateMutability": "nonpayable",
      "type": "function"
    },
    {
      "inputs": [
        {
          "internalType": "uint256",
          "name": "tokenId",
          "type": "uint256"
        }
      ],
      "name": "getNftItem",
      "outputs": [
        {
          "components": [
            {
              "internalType": "uint256",
              "name": "tokenId",
              "type": "uint256"
            },
            {
              "internalType": "uint256",
              "name": "price",
              "type": "uint256"
            },
            {
              "internalType": "address",
              "name": "creator",
              "type": "address"
            },
            {
              "internalType": "bool",
              "name": "isListed",
              "type": "bool"
            },
            {
              "internalType": "address",
              "name": "owner",
              "type": "address"
            }
          ],
          "internalType": "struct NftMarket.NftItem",
          "name": "",
          "type": "tuple"
        }
      ],
      "stateMutability": "view",
      "type": "function",
      "constant": true
    },
    {
      "inputs": [],
      "name": "listedItemsCount",
      "outputs": [
        {
          "internalType": "uint256",
          "name": "",
          "type": "uint256"
        }
      ],
      "stateMutability": "view",
      "type": "function",
      "constant": true
    },
    {
      "inputs": [
        {
          "internalType": "string",
          "name": "tokenURI",
          "type": "string"
        }
      ],
      "name": "tokenURIExists",
      "outputs": [
        {
          "internalType": "bool",
          "name": "",
          "type": "bool"
        }
      ],
      "stateMutability": "view",
      "type": "function",
      "constant": true
    },
    {
      "inputs": [],
      "name": "totalSupply",
      "outputs": [
        {
          "internalType": "uint256",
          "name": "",
          "type": "uint256"
        }
      ],
      "stateMutability": "view",
      "type": "function",
      "constant": true
    },
    {
      "inputs": [
        {
          "internalType": "uint256",
          "name": "index",
          "type": "uint256"
        }
      ],
      "name": "tokenByIndex",
      "outputs": [
        {
          "internalType": "uint256",
          "name": "",
          "type": "uint256"
        }
      ],
      "stateMutability": "view",
      "type": "function",
      "constant": true
    },
    {
      "inputs": [
        {
          "internalType": "address",
          "name": "owner",
          "type": "address"
        },
        {
          "internalType": "uint256",
          "name": "index",
          "type": "uint256"
        }
      ],
      "name": "tokenOfOwnerByIndex",
      "outputs": [
        {
          "internalType": "uint256",
          "name": "",
          "type": "uint256"
        }
      ],
      "stateMutability": "view",
      "type": "function",
      "constant": true
    },
    {
      "inputs": [],
      "name": "getAllNftsOnSale",
      "outputs": [
        {
          "components": [
            {
              "internalType": "uint256",
              "name": "tokenId",
              "type": "uint256"
            },
            {
              "internalType": "uint256",
              "name": "price",
              "type": "uint256"
            },
            {
              "internalType": "address",
              "name": "creator",
              "type": "address"
            },
            {
              "internalType": "bool",
              "name": "isListed",
              "type": "bool"
            },
            {
              "internalType": "address",
              "name": "owner",
              "type": "address"
            }
          ],
          "internalType": "struct NftMarket.NftItem[]",
          "name": "",
          "type": "tuple[]"
        }
      ],
      "stateMutability": "view",
      "type": "function",
      "constant": true
    },
    {
      "inputs": [],
      "name": "getOwnedNfts",
      "outputs": [
        {
          "components": [
            {
              "internalType": "uint256",
              "name": "tokenId",
              "type": "uint256"
            },
            {
              "internalType": "uint256",
              "name": "price",
              "type": "uint256"
            },
            {
              "internalType": "address",
              "name": "creator",
              "type": "address"
            },
            {
              "internalType": "bool",
              "name": "isListed",
              "type": "bool"
            },
            {
              "internalType": "address",
              "name": "owner",
              "type": "address"
            }
          ],
          "internalType": "struct NftMarket.NftItem[]",
          "name": "",
          "type": "tuple[]"
        }
      ],
      "stateMutability": "view",
      "type": "function",
      "constant": true
    },
    {
      "inputs": [
        {
          "internalType": "string",
          "name": "tokenURI",
          "type": "string"
        },
        {
          "internalType": "uint256",
          "name": "price",
          "type": "uint256"
        }
      ],
      "name": "mintToken",
      "outputs": [
        {
          "internalType": "uint256",
          "name": "",
          "type": "uint256"
        }
      ],
      "stateMutability": "payable",
      "type": "function",
      "payable": true
    },
    {
      "inputs": [
        {
          "internalType": "uint256",
          "name": "tokenId",
          "type": "uint256"
        }
      ],
      "name": "buyNft",
      "outputs": [],
      "stateMutability": "payable",
      "type": "function",
      "payable": true
    },
    {
      "inputs": [
        {
          "internalType": "uint256",
          "name": "tokenId",
          "type": "uint256"
        },
        {
          "internalType": "uint256",
          "name": "newPrice",
          "type": "uint256"
        }
      ],
      "name": "placeNftOnSale",
      "outputs": [],
      "stateMutability": "payable",
      "type": "function",
      "payable": true
    }
  ],
  "bytecode": "0x60806040526658d15e176280006008553480156200001c57600080fd5b506040518060400160405280600381526020017f41424300000000000000000000000000000000000000000000000000000000008152506040518060400160405280600481526020017f56544b56000000000000000000000000000000000000000000000000000000008152508160009080519060200190620000a1929190620001b1565b508060019080519060200190620000ba929190620001b1565b505050620000dd620000d1620000e360201b60201c565b620000eb60201b60201c565b620002c5565b600033905090565b6000600760009054906101000a900473ffffffffffffffffffffffffffffffffffffffff16905081600760006101000a81548173ffffffffffffffffffffffffffffffffffffffff021916908373ffffffffffffffffffffffffffffffffffffffff1602179055508173ffffffffffffffffffffffffffffffffffffffff168173ffffffffffffffffffffffffffffffffffffffff167f8be0079c531659141344cd1fd0a4f28419497f9722a3daafe3b4186f6b6457e060405160405180910390a35050565b828054620001bf9062000290565b90600052602060002090601f016020900481019282620001e357600085556200022f565b82601f10620001fe57805160ff19168380011785556200022f565b828001600101855582156200022f579182015b828111156200022e57825182559160200191906001019062000211565b5b5090506200023e919062000242565b5090565b5b808211156200025d57600081600090555060010162000243565b5090565b7f4e487b7100000000000000000000000000000000000000000000000000000000600052602260045260246000fd5b60006002820490506001821680620002a957607f821691505b602082108103620002bf57620002be62000261565b5b50919050565b615ba280620002d56000396000f3fe6080604052600436106101ee5760003560e01c80636f1a0af51161010d57806395d89b41116100a0578063c78f19f91161006f578063c78f19f9146106f0578063c87b56dd1461071b578063ccb4918d14610758578063e985e9c514610783578063f2fde38b146107c0576101ee565b806395d89b4114610643578063a22cb4651461066e578063b88d4fde14610697578063c046372c146106c0576101ee565b80637c726b69116100dc5780637c726b69146105895780638da5cb5b146105b25780638e38bef6146105dd5780638fb4b5731461061a576101ee565b80636f1a0af5146104cd57806370a082311461050a57806370cbcb4314610547578063715018a614610572576101ee565b80632f745c59116101855780634f6ccce7116101545780634f6ccce71461041b5780635301d63c14610458578063598647f8146104745780636352211e14610490576101ee565b80632f745c591461034d57806336b536be1461038a57806342842e0e146103b557806343d32ae7146103de576101ee565b806318160ddd116101c157806318160ddd146102c157806321f422e5146102ec57806323b872dd14610308578063243adbdd14610331576101ee565b806301ffc9a7146101f357806306fdde0314610230578063081812fc1461025b578063095ea7b314610298575b600080fd5b3480156101ff57600080fd5b5061021a60048036038101906102159190613e5a565b6107e9565b6040516102279190613ea2565b60405180910390f35b34801561023c57600080fd5b506102456108cb565b6040516102529190613f56565b60405180910390f35b34801561026757600080fd5b50610282600480360381019061027d9190613fae565b61095d565b60405161028f919061401c565b60405180910390f35b3480156102a457600080fd5b506102bf60048036038101906102ba9190614063565b6109e2565b005b3480156102cd57600080fd5b506102d6610af9565b6040516102e391906140b2565b60405180910390f35b610306600480360381019061030191906140cd565b610b06565b005b34801561031457600080fd5b5061032f600480360381019061032a919061410d565b610c82565b005b61034b60048036038101906103469190613fae565b610ce2565b005b34801561035957600080fd5b50610374600480360381019061036f9190614063565b610ff2565b60405161038191906140b2565b60405180910390f35b34801561039657600080fd5b5061039f611097565b6040516103ac91906142a4565b60405180910390f35b3480156103c157600080fd5b506103dc60048036038101906103d7919061410d565b611287565b005b3480156103ea57600080fd5b50610405600480360381019061040091906143fb565b6112a7565b6040516104129190613ea2565b60405180910390f35b34801561042757600080fd5b50610442600480360381019061043d9190613fae565b6112e3565b60405161044f91906140b2565b60405180910390f35b610472600480360381019061046d91906140cd565b611354565b005b61048e600480360381019061048991906140cd565b6119ba565b005b34801561049c57600080fd5b506104b760048036038101906104b29190613fae565b611bf9565b6040516104c4919061401c565b60405180910390f35b3480156104d957600080fd5b506104f460048036038101906104ef9190613fae565b611caa565b60405161050191906144ac565b60405180910390f35b34801561051657600080fd5b50610531600480360381019061052c91906144c7565b611db2565b60405161053e91906140b2565b60405180910390f35b34801561055357600080fd5b5061055c611e69565b60405161056991906142a4565b60405180910390f35b34801561057e57600080fd5b50610587612023565b005b34801561059557600080fd5b506105b060048036038101906105ab9190613fae565b6120ab565b005b3480156105be57600080fd5b506105c7612174565b6040516105d4919061401c565b60405180910390f35b3480156105e957600080fd5b5061060460048036038101906105ff9190613fae565b61219e565b60405161061191906140b2565b60405180910390f35b34801561062657600080fd5b50610641600480360381019061063c91906140cd565b6121bb565b005b34801561064f57600080fd5b50610658612357565b6040516106659190613f56565b60405180910390f35b34801561067a57600080fd5b5061069560048036038101906106909190614520565b6123e9565b005b3480156106a357600080fd5b506106be60048036038101906106b99190614601565b6123ff565b005b6106da60048036038101906106d59190614684565b612461565b6040516106e791906140b2565b60405180910390f35b3480156106fc57600080fd5b50610705612571565b60405161071291906140b2565b60405180910390f35b34801561072757600080fd5b50610742600480360381019061073d9190613fae565b612577565b60405161074f9190613f56565b60405180910390f35b34801561076457600080fd5b5061076d6126c8565b60405161077a91906140b2565b60405180910390f35b34801561078f57600080fd5b506107aa60048036038101906107a591906146e0565b6126d9565b6040516107b79190613ea2565b60405180910390f35b3480156107cc57600080fd5b506107e760048036038101906107e291906144c7565b61276d565b005b60007f80ac58cd000000000000000000000000000000000000000000000000000000007bffffffffffffffffffffffffffffffffffffffffffffffffffffffff1916827bffffffffffffffffffffffffffffffffffffffffffffffffffffffff191614806108b457507f5b5e139f000000000000000000000000000000000000000000000000000000007bffffffffffffffffffffffffffffffffffffffffffffffffffffffff1916827bffffffffffffffffffffffffffffffffffffffffffffffffffffffff1916145b806108c457506108c382612864565b5b9050919050565b6060600080546108da9061474f565b80601f01602080910402602001604051908101604052809291908181526020018280546109069061474f565b80156109535780601f1061092857610100808354040283529160200191610953565b820191906000526020600020905b81548152906001019060200180831161093657829003601f168201915b5050505050905090565b6000610968826128ce565b6109a7576040517f08c379a000000000000000000000000000000000000000000000000000000000815260040161099e906147f2565b60405180910390fd5b6004600083815260200190815260200160002060009054906101000a900473ffffffffffffffffffffffffffffffffffffffff169050919050565b60006109ed82611bf9565b90508073ffffffffffffffffffffffffffffffffffffffff168373ffffffffffffffffffffffffffffffffffffffff1603610a5d576040517f08c379a0000000000000000000000000000000000000000000000000000000008152600401610a5490614884565b60405180910390fd5b8073ffffffffffffffffffffffffffffffffffffffff16610a7c61293a565b73ffffffffffffffffffffffffffffffffffffffff161480610aab5750610aaa81610aa561293a565b6126d9565b5b610aea576040517f08c379a0000000000000000000000000000000000000000000000000000000008152600401610ae190614916565b60405180910390fd5b610af48383612942565b505050565b6000600f80549050905090565b3373ffffffffffffffffffffffffffffffffffffffff16610b2683611bf9565b73ffffffffffffffffffffffffffffffffffffffff1614610b7c576040517f08c379a0000000000000000000000000000000000000000000000000000000008152600401610b7390614982565b60405180910390fd5b60001515600c600084815260200190815260200160002060020160149054906101000a900460ff16151514610be6576040517f08c379a0000000000000000000000000000000000000000000000000000000008152600401610bdd906149ee565b60405180910390fd5b6008543414610c2a576040517f08c379a0000000000000000000000000000000000000000000000000000000008152600401610c2190614a80565b60405180910390fd5b6001600c600084815260200190815260200160002060020160146101000a81548160ff02191690831515021790555080600c600084815260200190815260200160002060010181905550610c7e60096129fb565b5050565b610c93610c8d61293a565b82612a11565b610cd2576040517f08c379a0000000000000000000000000000000000000000000000000000000008152600401610cc990614b12565b60405180910390fd5b610cdd838383612aef565b505050565b6000600c60008381526020019081526020016000206001015490506000600c600084815260200190815260200160002060020160009054906101000a900473ffffffffffffffffffffffffffffffffffffffff1690506000610d4384611bf9565b90508073ffffffffffffffffffffffffffffffffffffffff163373ffffffffffffffffffffffffffffffffffffffff1603610db3576040517f08c379a0000000000000000000000000000000000000000000000000000000008152600401610daa90614b7e565b60405180910390fd5b823414610df5576040517f08c379a0000000000000000000000000000000000000000000000000000000008152600401610dec90614bea565b60405180910390fd5b6000600c600086815260200190815260200160002060020160146101000a81548160ff021916908315150217905550610e2e6009612d55565b6040518060a001604052808581526020013481526020018373ffffffffffffffffffffffffffffffffffffffff1681526020016001151581526020013373ffffffffffffffffffffffffffffffffffffffff16815250600c6000868152602001908152602001600020600082015181600001556020820151816001015560408201518160020160006101000a81548173ffffffffffffffffffffffffffffffffffffffff021916908373ffffffffffffffffffffffffffffffffffffffff16021790555060608201518160020160146101000a81548160ff02191690831515021790555060808201518160030160006101000a81548173ffffffffffffffffffffffffffffffffffffffff021916908373ffffffffffffffffffffffffffffffffffffffff160217905550905050610f67813386612aef565b8073ffffffffffffffffffffffffffffffffffffffff166108fc349081150290604051600060405180830381858888f19350505050158015610fad573d6000803e3d6000fd5b50837f4a161b570f7064c0f57d89489eb656920c0daaa73589448066059278488c58d134833342604051610fe49493929190614c0a565b60405180910390a250505050565b6000610ffd83611db2565b821061103e576040517f08c379a000000000000000000000000000000000000000000000000000000000815260040161103590614c9b565b60405180910390fd5b600d60008473ffffffffffffffffffffffffffffffffffffffff1673ffffffffffffffffffffffffffffffffffffffff168152602001908152602001600020600083815260200190815260200160002054905092915050565b606060006110a3610af9565b90506000806110b26009612db1565b67ffffffffffffffff8111156110cb576110ca6142d0565b5b60405190808252806020026020018201604052801561110457816020015b6110f1613cee565b8152602001906001900390816110e95790505b50905060005b8381101561127d57600061111d826112e3565b90506000600c60008381526020019081526020016000209050600115158160020160149054906101000a900460ff1615150361126857806040518060a001604052908160008201548152602001600182015481526020016002820160009054906101000a900473ffffffffffffffffffffffffffffffffffffffff1673ffffffffffffffffffffffffffffffffffffffff1673ffffffffffffffffffffffffffffffffffffffff1681526020016002820160149054906101000a900460ff161515151581526020016003820160009054906101000a900473ffffffffffffffffffffffffffffffffffffffff1673ffffffffffffffffffffffffffffffffffffffff1673ffffffffffffffffffffffffffffffffffffffff168152505084868151811061124d5761124c614cbb565b5b60200260200101819052506001856112659190614d19565b94505b5050808061127590614d6f565b91505061110a565b5080935050505090565b6112a2838383604051806020016040528060008152506123ff565b505050565b600060011515600b836040516112bd9190614df3565b908152602001604051809103902060009054906101000a900460ff161515149050919050565b60006112ed610af9565b821061132e576040517f08c379a000000000000000000000000000000000000000000000000000000000815260040161132590614c9b565b60405180910390fd5b600f828154811061134257611341614cbb565b5b90600052602060002001549050919050565b6000600c600084815260200190815260200160002060020160009054906101000a900473ffffffffffffffffffffffffffffffffffffffff16905060006015600085815260200190815260200160002060009054906101000a900473ffffffffffffffffffffffffffffffffffffffff16905060006011600086815260200190815260200160002060009054906101000a900460ff16905060006012600087815260200190815260200160002054905060006014600088815260200190815260200160002054905060006013600089815260200190815260200160002060009054906101000a900473ffffffffffffffffffffffffffffffffffffffff16905083611494576040517f08c379a000000000000000000000000000000000000000000000000000000000815260040161148b90614e56565b60405180910390fd5b828710156114d7576040517f08c379a00000000000000000000000000000000000000000000000000000000081526004016114ce90614ec2565b60405180910390fd5b8073ffffffffffffffffffffffffffffffffffffffff163373ffffffffffffffffffffffffffffffffffffffff16148061153c57508473ffffffffffffffffffffffffffffffffffffffff163373ffffffffffffffffffffffffffffffffffffffff16145b61157b576040517f08c379a000000000000000000000000000000000000000000000000000000000815260040161157290614f2e565b60405180910390fd5b6000601160008a815260200190815260200160002060006101000a81548160ff0219169083151502179055506000601260008a815260200190815260200160002081905550600073ffffffffffffffffffffffffffffffffffffffff168173ffffffffffffffffffffffffffffffffffffffff1603611732576040518060a001604052808981526020018381526020018773ffffffffffffffffffffffffffffffffffffffff1681526020016001151581526020018673ffffffffffffffffffffffffffffffffffffffff16815250600c60008a8152602001908152602001600020600082015181600001556020820151816001015560408201518160020160006101000a81548173ffffffffffffffffffffffffffffffffffffffff021916908373ffffffffffffffffffffffffffffffffffffffff16021790555060608201518160020160146101000a81548160ff02191690831515021790555060808201518160030160006101000a81548173ffffffffffffffffffffffffffffffffffffffff021916908373ffffffffffffffffffffffffffffffffffffffff16021790555090505061172d30868a612aef565b61186c565b6040518060a001604052808981526020018381526020018773ffffffffffffffffffffffffffffffffffffffff1681526020016001151581526020018273ffffffffffffffffffffffffffffffffffffffff16815250600c60008a8152602001908152602001600020600082015181600001556020820151816001015560408201518160020160006101000a81548173ffffffffffffffffffffffffffffffffffffffff021916908373ffffffffffffffffffffffffffffffffffffffff16021790555060608201518160020160146101000a81548160ff02191690831515021790555060808201518160030160006101000a81548173ffffffffffffffffffffffffffffffffffffffff021916908373ffffffffffffffffffffffffffffffffffffffff16021790555090505061186b30828a612aef565b5b8473ffffffffffffffffffffffffffffffffffffffff166108fc839081150290604051600060405180830381858888f193505050501580156118b2573d6000803e3d6000fd5b506000601460008a8152602001908152602001600020819055506000601360008a815260200190815260200160002060006101000a81548173ffffffffffffffffffffffffffffffffffffffff021916908373ffffffffffffffffffffffffffffffffffffffff1602179055506000601560008a815260200190815260200160002060006101000a81548173ffffffffffffffffffffffffffffffffffffffff021916908373ffffffffffffffffffffffffffffffffffffffff160217905550877f4a161b570f7064c0f57d89489eb656920c0daaa73589448066059278488c58d1838784426040516119a89493929190614c0a565b60405180910390a25050505050505050565b60006011600084815260200190815260200160002060009054906101000a900460ff16905060006012600085815260200190815260200160002054905060006014600086815260200190815260200160002054905060006013600087815260200190815260200160002060009054906101000a900473ffffffffffffffffffffffffffffffffffffffff16905083611a87576040517f08c379a0000000000000000000000000000000000000000000000000000000008152600401611a7e90614e56565b60405180910390fd5b828510611ac9576040517f08c379a0000000000000000000000000000000000000000000000000000000008152600401611ac090614ec2565b60405180910390fd5b813411611b0b576040517f08c379a0000000000000000000000000000000000000000000000000000000008152600401611b0290614f9a565b60405180910390fd5b600073ffffffffffffffffffffffffffffffffffffffff168173ffffffffffffffffffffffffffffffffffffffff1614611b87578073ffffffffffffffffffffffffffffffffffffffff166108fc839081150290604051600060405180830381858888f19350505050158015611b85573d6000803e3d6000fd5b505b346014600088815260200190815260200160002081905550336013600088815260200190815260200160002060006101000a81548173ffffffffffffffffffffffffffffffffffffffff021916908373ffffffffffffffffffffffffffffffffffffffff160217905550505050505050565b6000806002600084815260200190815260200160002060009054906101000a900473ffffffffffffffffffffffffffffffffffffffff169050600073ffffffffffffffffffffffffffffffffffffffff168173ffffffffffffffffffffffffffffffffffffffff1603611ca1576040517f08c379a0000000000000000000000000000000000000000000000000000000008152600401611c989061502c565b60405180910390fd5b80915050919050565b611cb2613cee565b600c60008381526020019081526020016000206040518060a001604052908160008201548152602001600182015481526020016002820160009054906101000a900473ffffffffffffffffffffffffffffffffffffffff1673ffffffffffffffffffffffffffffffffffffffff1673ffffffffffffffffffffffffffffffffffffffff1681526020016002820160149054906101000a900460ff161515151581526020016003820160009054906101000a900473ffffffffffffffffffffffffffffffffffffffff1673ffffffffffffffffffffffffffffffffffffffff1673ffffffffffffffffffffffffffffffffffffffff16815250509050919050565b60008073ffffffffffffffffffffffffffffffffffffffff168273ffffffffffffffffffffffffffffffffffffffff1603611e22576040517f08c379a0000000000000000000000000000000000000000000000000000000008152600401611e19906150be565b60405180910390fd5b600360008373ffffffffffffffffffffffffffffffffffffffff1673ffffffffffffffffffffffffffffffffffffffff168152602001908152602001600020549050919050565b60606000611e7633611db2565b905060008167ffffffffffffffff811115611e9457611e936142d0565b5b604051908082528060200260200182016040528015611ecd57816020015b611eba613cee565b815260200190600190039081611eb25790505b50905060005b8281101561201a576000611ee73383610ff2565b90506000600c60008381526020019081526020016000209050806040518060a001604052908160008201548152602001600182015481526020016002820160009054906101000a900473ffffffffffffffffffffffffffffffffffffffff1673ffffffffffffffffffffffffffffffffffffffff1673ffffffffffffffffffffffffffffffffffffffff1681526020016002820160149054906101000a900460ff161515151581526020016003820160009054906101000a900473ffffffffffffffffffffffffffffffffffffffff1673ffffffffffffffffffffffffffffffffffffffff1673ffffffffffffffffffffffffffffffffffffffff1681525050848481518110611ffa57611ff9614cbb565b5b60200260200101819052505050808061201290614d6f565b915050611ed3565b50809250505090565b61202b61293a565b73ffffffffffffffffffffffffffffffffffffffff16612049612174565b73ffffffffffffffffffffffffffffffffffffffff161461209f576040517f08c379a00000000000000000000000000000000000000000000000000000000081526004016120969061512a565b60405180910390fd5b6120a96000612dbf565b565b6120b361293a565b73ffffffffffffffffffffffffffffffffffffffff166120d1612174565b73ffffffffffffffffffffffffffffffffffffffff1614612127576040517f08c379a000000000000000000000000000000000000000000000000000000000815260040161211e9061512a565b60405180910390fd5b6000811161216a576040517f08c379a000000000000000000000000000000000000000000000000000000000815260040161216190615196565b60405180910390fd5b8060088190555050565b6000600760009054906101000a900473ffffffffffffffffffffffffffffffffffffffff16905090565b600060126000838152602001908152602001600020549050919050565b60006121c683611bf9565b905060006011600085815260200190815260200160002060009054906101000a900460ff1690508173ffffffffffffffffffffffffffffffffffffffff163373ffffffffffffffffffffffffffffffffffffffff161461225b576040517f08c379a000000000000000000000000000000000000000000000000000000000815260040161225290615202565b60405180910390fd5b60001515811515146122a2576040517f08c379a00000000000000000000000000000000000000000000000000000000081526004016122999061526e565b60405180910390fd5b60016011600086815260200190815260200160002060006101000a81548160ff021916908315150217905550620186a0836122dd9190614d19565b6012600086815260200190815260200160002081905550816015600086815260200190815260200160002060006101000a81548173ffffffffffffffffffffffffffffffffffffffff021916908373ffffffffffffffffffffffffffffffffffffffff160217905550612351823086612aef565b50505050565b6060600180546123669061474f565b80601f01602080910402602001604051908101604052809291908181526020018280546123929061474f565b80156123df5780601f106123b4576101008083540402835291602001916123df565b820191906000526020600020905b8154815290600101906020018083116123c257829003601f168201915b5050505050905090565b6123fb6123f461293a565b8383612e85565b5050565b61241061240a61293a565b83612a11565b61244f576040517f08c379a000000000000000000000000000000000000000000000000000000000815260040161244690614b12565b60405180910390fd5b61245b84848484612ff1565b50505050565b600061246c836112a7565b156124ac576040517f08c379a00000000000000000000000000000000000000000000000000000000081526004016124a3906152da565b60405180910390fd5b60085434146124f0576040517f08c379a00000000000000000000000000000000000000000000000000000000081526004016124e790614a80565b60405180910390fd5b6124fa600a6129fb565b61250460096129fb565b6000612510600a612db1565b905061251c338261304d565b612526818561306b565b61253081846130df565b6001600b856040516125429190614df3565b908152602001604051809103902060006101000a81548160ff0219169083151502179055508091505092915050565b60085481565b6060612582826128ce565b6125c1576040517f08c379a00000000000000000000000000000000000000000000000000000000081526004016125b89061536c565b60405180910390fd5b60006006600084815260200190815260200160002080546125e19061474f565b80601f016020809104026020016040519081016040528092919081815260200182805461260d9061474f565b801561265a5780601f1061262f5761010080835404028352916020019161265a565b820191906000526020600020905b81548152906001019060200180831161263d57829003601f168201915b50505050509050600061266b6132d0565b905060008151036126805781925050506126c3565b6000825111156126b557808260405160200161269d92919061538c565b604051602081830303815290604052925050506126c3565b6126be846132e7565b925050505b919050565b60006126d46009612db1565b905090565b6000600560008473ffffffffffffffffffffffffffffffffffffffff1673ffffffffffffffffffffffffffffffffffffffff16815260200190815260200160002060008373ffffffffffffffffffffffffffffffffffffffff1673ffffffffffffffffffffffffffffffffffffffff16815260200190815260200160002060009054906101000a900460ff16905092915050565b61277561293a565b73ffffffffffffffffffffffffffffffffffffffff16612793612174565b73ffffffffffffffffffffffffffffffffffffffff16146127e9576040517f08c379a00000000000000000000000000000000000000000000000000000000081526004016127e09061512a565b60405180910390fd5b600073ffffffffffffffffffffffffffffffffffffffff168173ffffffffffffffffffffffffffffffffffffffff1603612858576040517f08c379a000000000000000000000000000000000000000000000000000000000815260040161284f90615422565b60405180910390fd5b61286181612dbf565b50565b60007f01ffc9a7000000000000000000000000000000000000000000000000000000007bffffffffffffffffffffffffffffffffffffffffffffffffffffffff1916827bffffffffffffffffffffffffffffffffffffffffffffffffffffffff1916149050919050565b60008073ffffffffffffffffffffffffffffffffffffffff166002600084815260200190815260200160002060009054906101000a900473ffffffffffffffffffffffffffffffffffffffff1673ffffffffffffffffffffffffffffffffffffffff1614159050919050565b600033905090565b816004600083815260200190815260200160002060006101000a81548173ffffffffffffffffffffffffffffffffffffffff021916908373ffffffffffffffffffffffffffffffffffffffff160217905550808273ffffffffffffffffffffffffffffffffffffffff166129b583611bf9565b73ffffffffffffffffffffffffffffffffffffffff167f8c5be1e5ebec7d5bd14f71427d1e84f3dd0314c0f7b2291e5b200ac8c7c3b92560405160405180910390a45050565b6001816000016000828254019250508190555050565b6000612a1c826128ce565b612a5b576040517f08c379a0000000000000000000000000000000000000000000000000000000008152600401612a52906154b4565b60405180910390fd5b6000612a6683611bf9565b90508073ffffffffffffffffffffffffffffffffffffffff168473ffffffffffffffffffffffffffffffffffffffff161480612aa85750612aa781856126d9565b5b80612ae657508373ffffffffffffffffffffffffffffffffffffffff16612ace8461095d565b73ffffffffffffffffffffffffffffffffffffffff16145b91505092915050565b8273ffffffffffffffffffffffffffffffffffffffff16612b0f82611bf9565b73ffffffffffffffffffffffffffffffffffffffff1614612b65576040517f08c379a0000000000000000000000000000000000000000000000000000000008152600401612b5c90615546565b60405180910390fd5b600073ffffffffffffffffffffffffffffffffffffffff168273ffffffffffffffffffffffffffffffffffffffff1603612bd4576040517f08c379a0000000000000000000000000000000000000000000000000000000008152600401612bcb906155d8565b60405180910390fd5b612bdf83838361338e565b612bea600082612942565b6001600360008573ffffffffffffffffffffffffffffffffffffffff1673ffffffffffffffffffffffffffffffffffffffff1681526020019081526020016000206000828254612c3a91906155f8565b925050819055506001600360008473ffffffffffffffffffffffffffffffffffffffff1673ffffffffffffffffffffffffffffffffffffffff1681526020019081526020016000206000828254612c919190614d19565b92505081905550816002600083815260200190815260200160002060006101000a81548173ffffffffffffffffffffffffffffffffffffffff021916908373ffffffffffffffffffffffffffffffffffffffff160217905550808273ffffffffffffffffffffffffffffffffffffffff168473ffffffffffffffffffffffffffffffffffffffff167fddf252ad1be2c89b69c2b068fc378daa952ba7f163c4a11628f55a4df523b3ef60405160405180910390a4612d508383836134a0565b505050565b60008160000154905060008111612da1576040517f08c379a0000000000000000000000000000000000000000000000000000000008152600401612d9890615678565b60405180910390fd5b6001810382600001819055505050565b600081600001549050919050565b6000600760009054906101000a900473ffffffffffffffffffffffffffffffffffffffff16905081600760006101000a81548173ffffffffffffffffffffffffffffffffffffffff021916908373ffffffffffffffffffffffffffffffffffffffff1602179055508173ffffffffffffffffffffffffffffffffffffffff168173ffffffffffffffffffffffffffffffffffffffff167f8be0079c531659141344cd1fd0a4f28419497f9722a3daafe3b4186f6b6457e060405160405180910390a35050565b8173ffffffffffffffffffffffffffffffffffffffff168373ffffffffffffffffffffffffffffffffffffffff1603612ef3576040517f08c379a0000000000000000000000000000000000000000000000000000000008152600401612eea906156e4565b60405180910390fd5b80600560008573ffffffffffffffffffffffffffffffffffffffff1673ffffffffffffffffffffffffffffffffffffffff16815260200190815260200160002060008473ffffffffffffffffffffffffffffffffffffffff1673ffffffffffffffffffffffffffffffffffffffff16815260200190815260200160002060006101000a81548160ff0219169083151502179055508173ffffffffffffffffffffffffffffffffffffffff168373ffffffffffffffffffffffffffffffffffffffff167f17307eab39ab6107e8899845ad3d59bd9653f200f220920489ca2b5937696c3183604051612fe49190613ea2565b60405180910390a3505050565b612ffc848484612aef565b613008848484846134a5565b613047576040517f08c379a000000000000000000000000000000000000000000000000000000000815260040161303e90615776565b60405180910390fd5b50505050565b61306782826040518060200160405280600081525061362c565b5050565b613074826128ce565b6130b3576040517f08c379a00000000000000000000000000000000000000000000000000000000081526004016130aa90615808565b60405180910390fd5b806006600084815260200190815260200160002090805190602001906130da929190613d4b565b505050565b60008111613122576040517f08c379a000000000000000000000000000000000000000000000000000000000815260040161311990615196565b60405180910390fd5b6040518060a001604052808381526020018281526020013373ffffffffffffffffffffffffffffffffffffffff1681526020016001151581526020013373ffffffffffffffffffffffffffffffffffffffff16815250600c6000848152602001908152602001600020600082015181600001556020820151816001015560408201518160020160006101000a81548173ffffffffffffffffffffffffffffffffffffffff021916908373ffffffffffffffffffffffffffffffffffffffff16021790555060608201518160020160146101000a81548160ff02191690831515021790555060808201518160030160006101000a81548173ffffffffffffffffffffffffffffffffffffffff021916908373ffffffffffffffffffffffffffffffffffffffff160217905550905050817f470031062672bc0246e132c723a729c4676710ec663a29e86c88678032daddea8233600160405161328593929190615828565b60405180910390a2817f4a161b570f7064c0f57d89489eb656920c0daaa73589448066059278488c58d182600033426040516132c49493929190614c0a565b60405180910390a25050565b606060405180602001604052806000815250905090565b60606132f2826128ce565b613331576040517f08c379a0000000000000000000000000000000000000000000000000000000008152600401613328906158d1565b60405180910390fd5b600061333b6132d0565b9050600081511161335b5760405180602001604052806000815250613386565b8061336584613687565b60405160200161337692919061538c565b6040516020818303038152906040525b915050919050565b6133998383836137e7565b600073ffffffffffffffffffffffffffffffffffffffff168373ffffffffffffffffffffffffffffffffffffffff16036133db576133d6816137ec565b61341a565b8173ffffffffffffffffffffffffffffffffffffffff168373ffffffffffffffffffffffffffffffffffffffff1614613419576134188382613835565b5b5b600073ffffffffffffffffffffffffffffffffffffffff168273ffffffffffffffffffffffffffffffffffffffff160361345c57613457816139a2565b61349b565b8273ffffffffffffffffffffffffffffffffffffffff168273ffffffffffffffffffffffffffffffffffffffff161461349a576134998282613a73565b5b5b505050565b505050565b60006134c68473ffffffffffffffffffffffffffffffffffffffff16613af2565b1561361f578373ffffffffffffffffffffffffffffffffffffffff1663150b7a026134ef61293a565b8786866040518563ffffffff1660e01b81526004016135119493929190615946565b6020604051808303816000875af192505050801561354d57506040513d601f19601f8201168201806040525081019061354a91906159a7565b60015b6135cf573d806000811461357d576040519150601f19603f3d011682016040523d82523d6000602084013e613582565b606091505b5060008151036135c7576040517f08c379a00000000000000000000000000000000000000000000000000000000081526004016135be90615776565b60405180910390fd5b805181602001fd5b63150b7a0260e01b7bffffffffffffffffffffffffffffffffffffffffffffffffffffffff1916817bffffffffffffffffffffffffffffffffffffffffffffffffffffffff191614915050613624565b600190505b949350505050565b6136368383613b15565b61364360008484846134a5565b613682576040517f08c379a000000000000000000000000000000000000000000000000000000000815260040161367990615776565b60405180910390fd5b505050565b6060600082036136ce576040518060400160405280600181526020017f300000000000000000000000000000000000000000000000000000000000000081525090506137e2565b600082905060005b600082146137005780806136e990614d6f565b915050600a826136f99190615a03565b91506136d6565b60008167ffffffffffffffff81111561371c5761371b6142d0565b5b6040519080825280601f01601f19166020018201604052801561374e5781602001600182028036833780820191505090505b5090505b600085146137db5760018261376791906155f8565b9150600a856137769190615a34565b60306137829190614d19565b60f81b81838151811061379857613797614cbb565b5b60200101907effffffffffffffffffffffffffffffffffffffffffffffffffffffffffffff1916908160001a905350600a856137d49190615a03565b9450613752565b8093505050505b919050565b505050565b600f805490506010600083815260200190815260200160002081905550600f81908060018154018082558091505060019003906000526020600020016000909190919091505550565b6000600161384284611db2565b61384c91906155f8565b90506000600e6000848152602001908152602001600020549050818114613931576000600d60008673ffffffffffffffffffffffffffffffffffffffff1673ffffffffffffffffffffffffffffffffffffffff168152602001908152602001600020600084815260200190815260200160002054905080600d60008773ffffffffffffffffffffffffffffffffffffffff1673ffffffffffffffffffffffffffffffffffffffff16815260200190815260200160002060008481526020019081526020016000208190555081600e600083815260200190815260200160002081905550505b600e600084815260200190815260200160002060009055600d60008573ffffffffffffffffffffffffffffffffffffffff1673ffffffffffffffffffffffffffffffffffffffff16815260200190815260200160002060008381526020019081526020016000206000905550505050565b60006001600f805490506139b691906155f8565b90506000601060008481526020019081526020016000205490506000600f83815481106139e6576139e5614cbb565b5b9060005260206000200154905080600f8381548110613a0857613a07614cbb565b5b90600052602060002001819055508160106000838152602001908152602001600020819055506010600085815260200190815260200160002060009055600f805480613a5757613a56615a65565b5b6001900381819060005260206000200160009055905550505050565b6000613a7e83611db2565b905081600d60008573ffffffffffffffffffffffffffffffffffffffff1673ffffffffffffffffffffffffffffffffffffffff16815260200190815260200160002060008381526020019081526020016000208190555080600e600084815260200190815260200160002081905550505050565b6000808273ffffffffffffffffffffffffffffffffffffffff163b119050919050565b600073ffffffffffffffffffffffffffffffffffffffff168273ffffffffffffffffffffffffffffffffffffffff1603613b84576040517f08c379a0000000000000000000000000000000000000000000000000000000008152600401613b7b90615ae0565b60405180910390fd5b613b8d816128ce565b15613bcd576040517f08c379a0000000000000000000000000000000000000000000000000000000008152600401613bc490615b4c565b60405180910390fd5b613bd96000838361338e565b6001600360008473ffffffffffffffffffffffffffffffffffffffff1673ffffffffffffffffffffffffffffffffffffffff1681526020019081526020016000206000828254613c299190614d19565b92505081905550816002600083815260200190815260200160002060006101000a81548173ffffffffffffffffffffffffffffffffffffffff021916908373ffffffffffffffffffffffffffffffffffffffff160217905550808273ffffffffffffffffffffffffffffffffffffffff16600073ffffffffffffffffffffffffffffffffffffffff167fddf252ad1be2c89b69c2b068fc378daa952ba7f163c4a11628f55a4df523b3ef60405160405180910390a4613cea600083836134a0565b5050565b6040518060a001604052806000815260200160008152602001600073ffffffffffffffffffffffffffffffffffffffff168152602001600015158152602001600073ffffffffffffffffffffffffffffffffffffffff1681525090565b828054613d579061474f565b90600052602060002090601f016020900481019282613d795760008555613dc0565b82601f10613d9257805160ff1916838001178555613dc0565b82800160010185558215613dc0579182015b82811115613dbf578251825591602001919060010190613da4565b5b509050613dcd9190613dd1565b5090565b5b80821115613dea576000816000905550600101613dd2565b5090565b6000604051905090565b600080fd5b600080fd5b60007fffffffff0000000000000000000000000000000000000000000000000000000082169050919050565b613e3781613e02565b8114613e4257600080fd5b50565b600081359050613e5481613e2e565b92915050565b600060208284031215613e7057613e6f613df8565b5b6000613e7e84828501613e45565b91505092915050565b60008115159050919050565b613e9c81613e87565b82525050565b6000602082019050613eb76000830184613e93565b92915050565b600081519050919050565b600082825260208201905092915050565b60005b83811015613ef7578082015181840152602081019050613edc565b83811115613f06576000848401525b50505050565b6000601f19601f8301169050919050565b6000613f2882613ebd565b613f328185613ec8565b9350613f42818560208601613ed9565b613f4b81613f0c565b840191505092915050565b60006020820190508181036000830152613f708184613f1d565b905092915050565b6000819050919050565b613f8b81613f78565b8114613f9657600080fd5b50565b600081359050613fa881613f82565b92915050565b600060208284031215613fc457613fc3613df8565b5b6000613fd284828501613f99565b91505092915050565b600073ffffffffffffffffffffffffffffffffffffffff82169050919050565b600061400682613fdb565b9050919050565b61401681613ffb565b82525050565b6000602082019050614031600083018461400d565b92915050565b61404081613ffb565b811461404b57600080fd5b50565b60008135905061405d81614037565b92915050565b6000806040838503121561407a57614079613df8565b5b60006140888582860161404e565b925050602061409985828601613f99565b9150509250929050565b6140ac81613f78565b82525050565b60006020820190506140c760008301846140a3565b92915050565b600080604083850312156140e4576140e3613df8565b5b60006140f285828601613f99565b925050602061410385828601613f99565b9150509250929050565b60008060006060848603121561412657614125613df8565b5b60006141348682870161404e565b93505060206141458682870161404e565b925050604061415686828701613f99565b9150509250925092565b600081519050919050565b600082825260208201905092915050565b6000819050602082019050919050565b61419581613f78565b82525050565b6141a481613ffb565b82525050565b6141b381613e87565b82525050565b60a0820160008201516141cf600085018261418c565b5060208201516141e2602085018261418c565b5060408201516141f5604085018261419b565b50606082015161420860608501826141aa565b50608082015161421b608085018261419b565b50505050565b600061422d83836141b9565b60a08301905092915050565b6000602082019050919050565b600061425182614160565b61425b818561416b565b93506142668361417c565b8060005b8381101561429757815161427e8882614221565b975061428983614239565b92505060018101905061426a565b5085935050505092915050565b600060208201905081810360008301526142be8184614246565b905092915050565b600080fd5b600080fd5b7f4e487b7100000000000000000000000000000000000000000000000000000000600052604160045260246000fd5b61430882613f0c565b810181811067ffffffffffffffff82111715614327576143266142d0565b5b80604052505050565b600061433a613dee565b905061434682826142ff565b919050565b600067ffffffffffffffff821115614366576143656142d0565b5b61436f82613f0c565b9050602081019050919050565b82818337600083830152505050565b600061439e6143998461434b565b614330565b9050828152602081018484840111156143ba576143b96142cb565b5b6143c584828561437c565b509392505050565b600082601f8301126143e2576143e16142c6565b5b81356143f284826020860161438b565b91505092915050565b60006020828403121561441157614410613df8565b5b600082013567ffffffffffffffff81111561442f5761442e613dfd565b5b61443b848285016143cd565b91505092915050565b60a08201600082015161445a600085018261418c565b50602082015161446d602085018261418c565b506040820151614480604085018261419b565b50606082015161449360608501826141aa565b5060808201516144a6608085018261419b565b50505050565b600060a0820190506144c16000830184614444565b92915050565b6000602082840312156144dd576144dc613df8565b5b60006144eb8482850161404e565b91505092915050565b6144fd81613e87565b811461450857600080fd5b50565b60008135905061451a816144f4565b92915050565b6000806040838503121561453757614536613df8565b5b60006145458582860161404e565b92505060206145568582860161450b565b9150509250929050565b600067ffffffffffffffff82111561457b5761457a6142d0565b5b61458482613f0c565b9050602081019050919050565b60006145a461459f84614560565b614330565b9050828152602081018484840111156145c0576145bf6142cb565b5b6145cb84828561437c565b509392505050565b600082601f8301126145e8576145e76142c6565b5b81356145f8848260208601614591565b91505092915050565b6000806000806080858703121561461b5761461a613df8565b5b60006146298782880161404e565b945050602061463a8782880161404e565b935050604061464b87828801613f99565b925050606085013567ffffffffffffffff81111561466c5761466b613dfd565b5b614678878288016145d3565b91505092959194509250565b6000806040838503121561469b5761469a613df8565b5b600083013567ffffffffffffffff8111156146b9576146b8613dfd565b5b6146c5858286016143cd565b92505060206146d685828601613f99565b9150509250929050565b600080604083850312156146f7576146f6613df8565b5b60006147058582860161404e565b92505060206147168582860161404e565b9150509250929050565b7f4e487b7100000000000000000000000000000000000000000000000000000000600052602260045260246000fd5b6000600282049050600182168061476757607f821691505b60208210810361477a57614779614720565b5b50919050565b7f4552433732313a20617070726f76656420717565727920666f72206e6f6e657860008201527f697374656e7420746f6b656e0000000000000000000000000000000000000000602082015250565b60006147dc602c83613ec8565b91506147e782614780565b604082019050919050565b6000602082019050818103600083015261480b816147cf565b9050919050565b7f4552433732313a20617070726f76616c20746f2063757272656e74206f776e6560008201527f7200000000000000000000000000000000000000000000000000000000000000602082015250565b600061486e602183613ec8565b915061487982614812565b604082019050919050565b6000602082019050818103600083015261489d81614861565b9050919050565b7f4552433732313a20617070726f76652063616c6c6572206973206e6f74206f7760008201527f6e6572206e6f7220617070726f76656420666f7220616c6c0000000000000000602082015250565b6000614900603883613ec8565b915061490b826148a4565b604082019050919050565b6000602082019050818103600083015261492f816148f3565b9050919050565b7f596f7520617265206e6f74206f776e6572206f662074686973206e6674000000600082015250565b600061496c601d83613ec8565b915061497782614936565b602082019050919050565b6000602082019050818103600083015261499b8161495f565b9050919050565b7f4974656d20697320616c7265616479206f6e2073616c65000000000000000000600082015250565b60006149d8601783613ec8565b91506149e3826149a2565b602082019050919050565b60006020820190508181036000830152614a07816149cb565b9050919050565b7f5072696365206d75737420626520657175616c20746f206c697374696e67207060008201527f7269636500000000000000000000000000000000000000000000000000000000602082015250565b6000614a6a602483613ec8565b9150614a7582614a0e565b604082019050919050565b60006020820190508181036000830152614a9981614a5d565b9050919050565b7f4552433732313a207472616e736665722063616c6c6572206973206e6f74206f60008201527f776e6572206e6f7220617070726f766564000000000000000000000000000000602082015250565b6000614afc603183613ec8565b9150614b0782614aa0565b604082019050919050565b60006020820190508181036000830152614b2b81614aef565b9050919050565b7f596f7520616c7265616479206f776e2074686973204e46540000000000000000600082015250565b6000614b68601883613ec8565b9150614b7382614b32565b602082019050919050565b60006020820190508181036000830152614b9781614b5b565b9050919050565b7f506c65617365207375626d6974207468652061736b696e672070726963650000600082015250565b6000614bd4601e83613ec8565b9150614bdf82614b9e565b602082019050919050565b60006020820190508181036000830152614c0381614bc7565b9050919050565b6000608082019050614c1f60008301876140a3565b614c2c602083018661400d565b614c39604083018561400d565b614c4660608301846140a3565b95945050505050565b7f496e646578206f7574206f6620626f756e647300000000000000000000000000600082015250565b6000614c85601383613ec8565b9150614c9082614c4f565b602082019050919050565b60006020820190508181036000830152614cb481614c78565b9050919050565b7f4e487b7100000000000000000000000000000000000000000000000000000000600052603260045260246000fd5b7f4e487b7100000000000000000000000000000000000000000000000000000000600052601160045260246000fd5b6000614d2482613f78565b9150614d2f83613f78565b9250827fffffffffffffffffffffffffffffffffffffffffffffffffffffffffffffffff03821115614d6457614d63614cea565b5b828201905092915050565b6000614d7a82613f78565b91507fffffffffffffffffffffffffffffffffffffffffffffffffffffffffffffffff8203614dac57614dab614cea565b5b600182019050919050565b600081905092915050565b6000614dcd82613ebd565b614dd78185614db7565b9350614de7818560208601613ed9565b80840191505092915050565b6000614dff8284614dc2565b915081905092915050565b7f6e6f742073746172746564000000000000000000000000000000000000000000600082015250565b6000614e40600b83613ec8565b9150614e4b82614e0a565b602082019050919050565b60006020820190508181036000830152614e6f81614e33565b9050919050565b7f656e646564000000000000000000000000000000000000000000000000000000600082015250565b6000614eac600583613ec8565b9150614eb782614e76565b602082019050919050565b60006020820190508181036000830152614edb81614e9f565b9050919050565b7f6e6f74206869676865737420626964646572206f72206f776e65720000000000600082015250565b6000614f18601b83613ec8565b9150614f2382614ee2565b602082019050919050565b60006020820190508181036000830152614f4781614f0b565b9050919050565b7f2076616c7565203c206869676865737420626964000000000000000000000000600082015250565b6000614f84601483613ec8565b9150614f8f82614f4e565b602082019050919050565b60006020820190508181036000830152614fb381614f77565b9050919050565b7f4552433732313a206f776e657220717565727920666f72206e6f6e657869737460008201527f656e7420746f6b656e0000000000000000000000000000000000000000000000602082015250565b6000615016602983613ec8565b915061502182614fba565b604082019050919050565b6000602082019050818103600083015261504581615009565b9050919050565b7f4552433732313a2062616c616e636520717565727920666f7220746865207a6560008201527f726f206164647265737300000000000000000000000000000000000000000000602082015250565b60006150a8602a83613ec8565b91506150b38261504c565b604082019050919050565b600060208201905081810360008301526150d78161509b565b9050919050565b7f4f776e61626c653a2063616c6c6572206973206e6f7420746865206f776e6572600082015250565b6000615114602083613ec8565b915061511f826150de565b602082019050919050565b6000602082019050818103600083015261514381615107565b9050919050565b7f5072696365206d757374206265206174206c6561737420312077656900000000600082015250565b6000615180601c83613ec8565b915061518b8261514a565b602082019050919050565b600060208201905081810360008301526151af81615173565b9050919050565b7f6e6f742073656c6c657200000000000000000000000000000000000000000000600082015250565b60006151ec600a83613ec8565b91506151f7826151b6565b602082019050919050565b6000602082019050818103600083015261521b816151df565b9050919050565b7f7374617274656400000000000000000000000000000000000000000000000000600082015250565b6000615258600783613ec8565b915061526382615222565b602082019050919050565b600060208201905081810360008301526152878161524b565b9050919050565b7f546f6b656e2055524920616c7265616479206578697374730000000000000000600082015250565b60006152c4601883613ec8565b91506152cf8261528e565b602082019050919050565b600060208201905081810360008301526152f3816152b7565b9050919050565b7f45524337323155524953746f726167653a2055524920717565727920666f722060008201527f6e6f6e6578697374656e7420746f6b656e000000000000000000000000000000602082015250565b6000615356603183613ec8565b9150615361826152fa565b604082019050919050565b6000602082019050818103600083015261538581615349565b9050919050565b60006153988285614dc2565b91506153a48284614dc2565b91508190509392505050565b7f4f776e61626c653a206e6577206f776e657220697320746865207a65726f206160008201527f6464726573730000000000000000000000000000000000000000000000000000602082015250565b600061540c602683613ec8565b9150615417826153b0565b604082019050919050565b6000602082019050818103600083015261543b816153ff565b9050919050565b7f4552433732313a206f70657261746f7220717565727920666f72206e6f6e657860008201527f697374656e7420746f6b656e0000000000000000000000000000000000000000602082015250565b600061549e602c83613ec8565b91506154a982615442565b604082019050919050565b600060208201905081810360008301526154cd81615491565b9050919050565b7f4552433732313a207472616e736665722066726f6d20696e636f72726563742060008201527f6f776e6572000000000000000000000000000000000000000000000000000000602082015250565b6000615530602583613ec8565b915061553b826154d4565b604082019050919050565b6000602082019050818103600083015261555f81615523565b9050919050565b7f4552433732313a207472616e7366657220746f20746865207a65726f2061646460008201527f7265737300000000000000000000000000000000000000000000000000000000602082015250565b60006155c2602483613ec8565b91506155cd82615566565b604082019050919050565b600060208201905081810360008301526155f1816155b5565b9050919050565b600061560382613f78565b915061560e83613f78565b92508282101561562157615620614cea565b5b828203905092915050565b7f436f756e7465723a2064656372656d656e74206f766572666c6f770000000000600082015250565b6000615662601b83613ec8565b915061566d8261562c565b602082019050919050565b6000602082019050818103600083015261569181615655565b9050919050565b7f4552433732313a20617070726f766520746f2063616c6c657200000000000000600082015250565b60006156ce601983613ec8565b91506156d982615698565b602082019050919050565b600060208201905081810360008301526156fd816156c1565b9050919050565b7f4552433732313a207472616e7366657220746f206e6f6e20455243373231526560008201527f63656976657220696d706c656d656e7465720000000000000000000000000000602082015250565b6000615760603283613ec8565b915061576b82615704565b604082019050919050565b6000602082019050818103600083015261578f81615753565b9050919050565b7f45524337323155524953746f726167653a2055524920736574206f66206e6f6e60008201527f6578697374656e7420746f6b656e000000000000000000000000000000000000602082015250565b60006157f2602e83613ec8565b91506157fd82615796565b604082019050919050565b60006020820190508181036000830152615821816157e5565b9050919050565b600060608201905061583d60008301866140a3565b61584a602083018561400d565b6158576040830184613e93565b949350505050565b7f4552433732314d657461646174613a2055524920717565727920666f72206e6f60008201527f6e6578697374656e7420746f6b656e0000000000000000000000000000000000602082015250565b60006158bb602f83613ec8565b91506158c68261585f565b604082019050919050565b600060208201905081810360008301526158ea816158ae565b9050919050565b600081519050919050565b600082825260208201905092915050565b6000615918826158f1565b61592281856158fc565b9350615932818560208601613ed9565b61593b81613f0c565b840191505092915050565b600060808201905061595b600083018761400d565b615968602083018661400d565b61597560408301856140a3565b8181036060830152615987818461590d565b905095945050505050565b6000815190506159a181613e2e565b92915050565b6000602082840312156159bd576159bc613df8565b5b60006159cb84828501615992565b91505092915050565b7f4e487b7100000000000000000000000000000000000000000000000000000000600052601260045260246000fd5b6000615a0e82613f78565b9150615a1983613f78565b925082615a2957615a286159d4565b5b828204905092915050565b6000615a3f82613f78565b9150615a4a83613f78565b925082615a5a57615a596159d4565b5b828206905092915050565b7f4e487b7100000000000000000000000000000000000000000000000000000000600052603160045260246000fd5b7f4552433732313a206d696e7420746f20746865207a65726f2061646472657373600082015250565b6000615aca602083613ec8565b9150615ad582615a94565b602082019050919050565b60006020820190508181036000830152615af981615abd565b9050919050565b7f4552433732313a20746f6b656e20616c7265616479206d696e74656400000000600082015250565b6000615b36601c83613ec8565b9150615b4182615b00565b602082019050919050565b60006020820190508181036000830152615b6581615b29565b905091905056fea2646970667358221220033fdcb3476f2e9f8fbbcea6d8f274d4c23d2abc37fd75b02056554fb52538e464736f6c634300080e0033",
  "immutableReferences": {},
  "source": "// SPDX-License-Identifier: MIT\npragma solidity >=0.4.22 <0.9.0;\n\nimport \"@openzeppelin/contracts/token/ERC721/extensions/ERC721URIStorage.sol\";\nimport \"@openzeppelin/contracts/utils/Counters.sol\";\nimport \"@openzeppelin/contracts/access/Ownable.sol\";\n\ncontract NftMarket is ERC721URIStorage, Ownable {\n    using Counters for Counters.Counter;\n\n    struct NftItem {\n        uint256 tokenId;\n        uint256 price;\n        address creator;\n        bool isListed;\n        address owner;\n    }\n\n    uint256 public listingPrice = 0.025 ether;\n\n    Counters.Counter private _listedItems;\n    Counters.Counter private _tokenIds;\n\n    mapping(string => bool) private _usedTokenURIs; //xac nh xem URI  tn ti cha\n    mapping(uint256 => NftItem) private _idToNftItem; //id=>nft\n\n    mapping(address => mapping(uint256 => uint256)) private _ownedTokens; //a ch => (s th t => tokenId)\n    mapping(uint256 => uint256) private _idToOwnedIndex; //tokenId => s th t th bao nhiu ca 1 address\n\n    uint256[] private _allNfts; //chua id cua tat ca token\n\n    mapping(uint256 => uint256) private _idToNftIndex; //id=>index\n\n    mapping(uint256 => bool) private _idToStarted; //id => is started bid\n    mapping(uint256 => uint256) private _idToEndAt;\n    mapping(uint256 => address) private _idToHighestBidder;\n    mapping(uint256 => uint256) private _idToHighestBid;\n    mapping(uint256 => address) private _idToBidOwn;\n\n    event NftItemCreated(\n        uint256 indexed tokenId,\n        uint256 price,\n        address creator,\n        bool isListed\n    );\n\n    event NftTransactions(\n        uint256 indexed tokenId,\n        uint256 price,\n        address from,\n        address to,\n        uint time\n    );\n\n    constructor() ERC721(\"ABC\", \"VTKV\") {}\n\n    function getEndAtById(uint256 tokenId) public view returns(uint256) {\n        return _idToEndAt[tokenId];\n    }\n\n    function start(uint256 tokenId, uint256 time) external {\n        address owner = ERC721.ownerOf(tokenId);\n        bool isStarted = _idToStarted[tokenId];\n        require(msg.sender == owner, \"not seller\");\n        require(isStarted == false, \"started\");\n        _idToStarted[tokenId] = true;\n        _idToEndAt[tokenId] = time + 100*1000;\n        _idToBidOwn[tokenId] = owner;\n        _transfer(owner, address(this), tokenId);\n    }\n\n    function bid(uint256 tokenId, uint256 time) external payable {\n        bool isStarted = _idToStarted[tokenId];\n        uint256 endAt = _idToEndAt[tokenId];\n        uint256 highestBid = _idToHighestBid[tokenId];\n        address highestBidder = _idToHighestBidder[tokenId];\n        require(isStarted, \"not started\");\n        require(time < endAt, \"ended\");\n        require(msg.value > highestBid, \" value < highest bid\");\n        if(highestBidder != address(0)) {\n            payable(highestBidder).transfer(highestBid);\n        }\n        _idToHighestBid[tokenId] = msg.value;\n        _idToHighestBidder[tokenId] = msg.sender;\n    }\n\n    function end(uint256 tokenId, uint256 time) external payable{\n        address creator =  _idToNftItem[tokenId].creator;\n        address bidOwn = _idToBidOwn[tokenId];\n        bool isStarted = _idToStarted[tokenId];\n        uint256 endAt = _idToEndAt[tokenId];\n        uint256 highestBid = _idToHighestBid[tokenId];\n        address highestBidder = _idToHighestBidder[tokenId];\n        require(isStarted, \"not started\");\n        require(time >= endAt, \"ended\");\n        require(msg.sender == highestBidder || msg.sender == bidOwn, \"not highest bidder or owner\");\n        _idToStarted[tokenId] = false;\n        _idToEndAt[tokenId] = 0;\n        if(highestBidder == address(0)) {\n            _idToNftItem[tokenId] = NftItem(tokenId, highestBid, creator, true, bidOwn);\n            _transfer(address(this), bidOwn, tokenId);\n        } else {\n            _idToNftItem[tokenId] = NftItem(tokenId, highestBid, creator, true, highestBidder);\n            _transfer(address(this), highestBidder, tokenId);\n        }\n        payable(bidOwn).transfer(highestBid);\n        _idToHighestBid[tokenId] = 0;\n        _idToHighestBidder[tokenId] = address(0);\n        _idToBidOwn[tokenId] = address(0);\n        emit NftTransactions(tokenId, highestBid, bidOwn, highestBidder, block.timestamp);\n    }\n\n    function setListingPrice(uint256 newPrice) external onlyOwner {\n        require(newPrice > 0, \"Price must be at least 1 wei\");\n        listingPrice = newPrice;\n    }\n\n    function getNftItem(uint256 tokenId) public view returns (NftItem memory) {\n        return _idToNftItem[tokenId];\n    }\n\n    function listedItemsCount() public view returns (uint256) {\n        return _listedItems.current();\n    }\n\n    function tokenURIExists(string memory tokenURI) public view returns (bool) {\n        return _usedTokenURIs[tokenURI] == true;\n    }\n\n    function totalSupply() public view returns (uint256) {\n        return _allNfts.length;\n    }\n\n    function tokenByIndex(uint256 index) public view returns (uint256) {\n        require(index < totalSupply(), \"Index out of bounds\");\n        return _allNfts[index];\n    }\n\n    function tokenOfOwnerByIndex(address owner, uint256 index)\n        public\n        view\n        returns (uint256)\n    {\n        require(index < ERC721.balanceOf(owner), \"Index out of bounds\");\n        return _ownedTokens[owner][index];\n    }\n\n    function getAllNftsOnSale() public view returns (NftItem[] memory) {\n        uint256 allItemsCounts = totalSupply();\n        uint256 currentIndex = 0;\n        NftItem[] memory items = new NftItem[](_listedItems.current());\n\n        for (uint256 i = 0; i < allItemsCounts; i++) {\n            uint256 tokenId = tokenByIndex(i);\n            NftItem storage item = _idToNftItem[tokenId];\n\n            if (item.isListed == true) {\n                items[currentIndex] = item;\n                currentIndex += 1;\n            }\n        }\n\n        return items;\n    }\n\n    function getOwnedNfts() public view returns (NftItem[] memory) {\n        uint256 ownedItemsCount = ERC721.balanceOf(msg.sender);\n        NftItem[] memory items = new NftItem[](ownedItemsCount);\n\n        for (uint256 i = 0; i < ownedItemsCount; i++) {\n            uint256 tokenId = tokenOfOwnerByIndex(msg.sender, i);\n            NftItem storage item = _idToNftItem[tokenId];\n            items[i] = item;\n        }\n\n        return items;\n    }\n\n    function mintToken(string memory tokenURI, uint256 price)\n        public\n        payable\n        returns (uint256)\n    {\n        require(!tokenURIExists(tokenURI), \"Token URI already exists\");\n        require(\n            msg.value == listingPrice,\n            \"Price must be equal to listing price\"\n        );\n\n        _tokenIds.increment();\n        _listedItems.increment();\n\n        uint256 newTokenId = _tokenIds.current();\n\n        _safeMint(msg.sender, newTokenId);\n        _setTokenURI(newTokenId, tokenURI);\n        _createNftItem(newTokenId, price);\n        _usedTokenURIs[tokenURI] = true;\n\n        return newTokenId;\n    }\n\n    function buyNft(uint256 tokenId) public payable {\n        uint256 price = _idToNftItem[tokenId].price;\n        address creator =  _idToNftItem[tokenId].creator;\n        address owner = ERC721.ownerOf(tokenId);\n\n        require(msg.sender != owner, \"You already own this NFT\");\n        require(msg.value == price, \"Please submit the asking price\");\n\n        _idToNftItem[tokenId].isListed = false;\n        _listedItems.decrement();\n\n        _idToNftItem[tokenId] = NftItem(tokenId, msg.value, creator, true, msg.sender);\n\n        _transfer(owner, msg.sender, tokenId);\n        payable(owner).transfer(msg.value);\n\n        emit NftTransactions(tokenId, msg.value, owner, msg.sender, block.timestamp);\n    }\n\n    function placeNftOnSale(uint256 tokenId, uint256 newPrice) public payable {\n        require(\n            ERC721.ownerOf(tokenId) == msg.sender,\n            \"You are not owner of this nft\"\n        );\n        require(\n            _idToNftItem[tokenId].isListed == false,\n            \"Item is already on sale\"\n        );\n        require(\n            msg.value == listingPrice,\n            \"Price must be equal to listing price\"\n        );\n\n        _idToNftItem[tokenId].isListed = true;\n        _idToNftItem[tokenId].price = newPrice;\n        _listedItems.increment();\n    }\n\n    function _createNftItem(uint256 tokenId, uint256 price) private {\n        require(price > 0, \"Price must be at least 1 wei\");\n\n        _idToNftItem[tokenId] = NftItem(tokenId, price, msg.sender, true, msg.sender);\n\n        emit NftItemCreated(tokenId, price, msg.sender, true);\n        emit NftTransactions(tokenId, price, address(0), msg.sender, block.timestamp);\n    }\n\n    function _beforeTokenTransfer(\n        address from,\n        address to,\n        uint256 tokenId\n    ) internal virtual override {\n        super._beforeTokenTransfer(from, to, tokenId);\n\n        // minting token\n        if (from == address(0)) {\n            _addTokenToAllTokensEnumeration(tokenId);\n        } else if (from != to) {\n            _removeTokenFromOwnerEnumeration(from, tokenId);\n        }\n\n        if (to == address(0)) {\n            _removeTokenFromAllTokensEnumeration(tokenId);\n        } else if (to != from) {\n            _addTokenToOwnerEnumeration(to, tokenId);\n        }\n    }\n\n    function _addTokenToAllTokensEnumeration(uint256 tokenId) private {\n        _idToNftIndex[tokenId] = _allNfts.length;\n        _allNfts.push(tokenId);\n    }\n\n    function _addTokenToOwnerEnumeration(address to, uint256 tokenId) private {\n        uint256 length = ERC721.balanceOf(to);\n        _ownedTokens[to][length] = tokenId;\n        _idToOwnedIndex[tokenId] = length;\n    }\n\n    function _removeTokenFromOwnerEnumeration(address from, uint256 tokenId)\n        private\n    {\n        uint256 lastTokenIndex = ERC721.balanceOf(from) - 1;\n        uint256 tokenIndex = _idToOwnedIndex[tokenId];\n\n        if (tokenIndex != lastTokenIndex) {\n            uint256 lastTokenId = _ownedTokens[from][lastTokenIndex];\n\n            _ownedTokens[from][tokenIndex] = lastTokenId;\n            _idToOwnedIndex[lastTokenId] = tokenIndex;\n        }\n\n        delete _idToOwnedIndex[tokenId];\n        delete _ownedTokens[from][lastTokenIndex];\n        //gn gi tr ca ni cn xa bng gi tr ti v tr cui cng ri gn v tr cui cng=0, khng th xa mapping, ch c th gn=0\n    }\n\n    function _removeTokenFromAllTokensEnumeration(uint256 tokenId) private {\n        uint256 lastTokenIndex = _allNfts.length - 1;\n        uint256 tokenIndex = _idToNftIndex[tokenId];\n        uint256 lastTokenId = _allNfts[lastTokenIndex];\n\n        _allNfts[tokenIndex] = lastTokenId;\n        _idToNftIndex[lastTokenId] = tokenIndex;\n\n        delete _idToNftIndex[tokenId];\n        _allNfts.pop();\n    }\n}\n",
  "sourcePath": "/home/thanh/Desktop/nft_marketplace/market/contracts/NftMarket.sol",
  "compiler": {
    "name": "solc",
    "version": "0.8.14+commit.80d49f37.Emscripten.clang"
  },
  "schemaVersion": "3.4.7",
  "updatedAt": "2022-07-11T11:32:10.182Z",
  "networkType": "ethereum",
  "devdoc": {
    "kind": "dev",
    "methods": {
      "approve(address,uint256)": {
        "details": "See {IERC721-approve}."
      },
      "balanceOf(address)": {
        "details": "See {IERC721-balanceOf}."
      },
      "getApproved(uint256)": {
        "details": "See {IERC721-getApproved}."
      },
      "isApprovedForAll(address,address)": {
        "details": "See {IERC721-isApprovedForAll}."
      },
      "name()": {
        "details": "See {IERC721Metadata-name}."
      },
      "owner()": {
        "details": "Returns the address of the current owner."
      },
      "ownerOf(uint256)": {
        "details": "See {IERC721-ownerOf}."
      },
      "renounceOwnership()": {
        "details": "Leaves the contract without owner. It will not be possible to call `onlyOwner` functions anymore. Can only be called by the current owner. NOTE: Renouncing ownership will leave the contract without an owner, thereby removing any functionality that is only available to the owner."
      },
      "safeTransferFrom(address,address,uint256)": {
        "details": "See {IERC721-safeTransferFrom}."
      },
      "safeTransferFrom(address,address,uint256,bytes)": {
        "details": "See {IERC721-safeTransferFrom}."
      },
      "setApprovalForAll(address,bool)": {
        "details": "See {IERC721-setApprovalForAll}."
      },
      "supportsInterface(bytes4)": {
        "details": "See {IERC165-supportsInterface}."
      },
      "symbol()": {
        "details": "See {IERC721Metadata-symbol}."
      },
      "tokenURI(uint256)": {
        "details": "See {IERC721Metadata-tokenURI}."
      },
      "transferFrom(address,address,uint256)": {
        "details": "See {IERC721-transferFrom}."
      },
      "transferOwnership(address)": {
        "details": "Transfers ownership of the contract to a new account (`newOwner`). Can only be called by the current owner."
      }
    },
    "version": 1
  },
  "userdoc": {
    "kind": "user",
    "methods": {},
    "version": 1
  }
}