{
  "contractName": "NftMarket",
  "abi": [
    {
      "inputs": [],
      "stateMutability": "nonpayable",
      "type": "constructor"
    },
    {
      "anonymous": false,
      "inputs": [
        {
          "indexed": true,
          "internalType": "address",
          "name": "owner",
          "type": "address"
        },
        {
          "indexed": true,
          "internalType": "address",
          "name": "approved",
          "type": "address"
        },
        {
          "indexed": true,
          "internalType": "uint256",
          "name": "tokenId",
          "type": "uint256"
        }
      ],
      "name": "Approval",
      "type": "event"
    },
    {
      "anonymous": false,
      "inputs": [
        {
          "indexed": true,
          "internalType": "address",
          "name": "owner",
          "type": "address"
        },
        {
          "indexed": true,
          "internalType": "address",
          "name": "operator",
          "type": "address"
        },
        {
          "indexed": false,
          "internalType": "bool",
          "name": "approved",
          "type": "bool"
        }
      ],
      "name": "ApprovalForAll",
      "type": "event"
    },
    {
      "anonymous": false,
      "inputs": [
        {
          "indexed": true,
          "internalType": "uint256",
          "name": "tokenId",
          "type": "uint256"
        },
        {
          "indexed": false,
          "internalType": "uint256",
          "name": "price",
          "type": "uint256"
        },
        {
          "indexed": false,
          "internalType": "address",
          "name": "creator",
          "type": "address"
        },
        {
          "indexed": false,
          "internalType": "bool",
          "name": "isListed",
          "type": "bool"
        }
      ],
      "name": "NftItemCreated",
      "type": "event"
    },
    {
      "anonymous": false,
      "inputs": [
        {
          "indexed": true,
          "internalType": "uint256",
          "name": "tokenId",
          "type": "uint256"
        },
        {
          "indexed": false,
          "internalType": "uint256",
          "name": "price",
          "type": "uint256"
        },
        {
          "indexed": false,
          "internalType": "address",
          "name": "from",
          "type": "address"
        },
        {
          "indexed": false,
          "internalType": "address",
          "name": "to",
          "type": "address"
        },
        {
          "indexed": false,
          "internalType": "uint256",
          "name": "time",
          "type": "uint256"
        }
      ],
      "name": "NftTransactions",
      "type": "event"
    },
    {
      "anonymous": false,
      "inputs": [
        {
          "indexed": true,
          "internalType": "address",
          "name": "previousOwner",
          "type": "address"
        },
        {
          "indexed": true,
          "internalType": "address",
          "name": "newOwner",
          "type": "address"
        }
      ],
      "name": "OwnershipTransferred",
      "type": "event"
    },
    {
      "anonymous": false,
      "inputs": [
        {
          "indexed": true,
          "internalType": "address",
          "name": "from",
          "type": "address"
        },
        {
          "indexed": true,
          "internalType": "address",
          "name": "to",
          "type": "address"
        },
        {
          "indexed": true,
          "internalType": "uint256",
          "name": "tokenId",
          "type": "uint256"
        }
      ],
      "name": "Transfer",
      "type": "event"
    },
    {
      "inputs": [
        {
          "internalType": "address",
          "name": "to",
          "type": "address"
        },
        {
          "internalType": "uint256",
          "name": "tokenId",
          "type": "uint256"
        }
      ],
      "name": "approve",
      "outputs": [],
      "stateMutability": "nonpayable",
      "type": "function"
    },
    {
      "inputs": [
        {
          "internalType": "address",
          "name": "owner",
          "type": "address"
        }
      ],
      "name": "balanceOf",
      "outputs": [
        {
          "internalType": "uint256",
          "name": "",
          "type": "uint256"
        }
      ],
      "stateMutability": "view",
      "type": "function",
      "constant": true
    },
    {
      "inputs": [
        {
          "internalType": "uint256",
          "name": "tokenId",
          "type": "uint256"
        }
      ],
      "name": "getApproved",
      "outputs": [
        {
          "internalType": "address",
          "name": "",
          "type": "address"
        }
      ],
      "stateMutability": "view",
      "type": "function",
      "constant": true
    },
    {
      "inputs": [
        {
          "internalType": "address",
          "name": "owner",
          "type": "address"
        },
        {
          "internalType": "address",
          "name": "operator",
          "type": "address"
        }
      ],
      "name": "isApprovedForAll",
      "outputs": [
        {
          "internalType": "bool",
          "name": "",
          "type": "bool"
        }
      ],
      "stateMutability": "view",
      "type": "function",
      "constant": true
    },
    {
      "inputs": [],
      "name": "listingPrice",
      "outputs": [
        {
          "internalType": "uint256",
          "name": "",
          "type": "uint256"
        }
      ],
      "stateMutability": "view",
      "type": "function",
      "constant": true
    },
    {
      "inputs": [],
      "name": "name",
      "outputs": [
        {
          "internalType": "string",
          "name": "",
          "type": "string"
        }
      ],
      "stateMutability": "view",
      "type": "function",
      "constant": true
    },
    {
      "inputs": [],
      "name": "owner",
      "outputs": [
        {
          "internalType": "address",
          "name": "",
          "type": "address"
        }
      ],
      "stateMutability": "view",
      "type": "function",
      "constant": true
    },
    {
      "inputs": [
        {
          "internalType": "uint256",
          "name": "tokenId",
          "type": "uint256"
        }
      ],
      "name": "ownerOf",
      "outputs": [
        {
          "internalType": "address",
          "name": "",
          "type": "address"
        }
      ],
      "stateMutability": "view",
      "type": "function",
      "constant": true
    },
    {
      "inputs": [],
      "name": "renounceOwnership",
      "outputs": [],
      "stateMutability": "nonpayable",
      "type": "function"
    },
    {
      "inputs": [
        {
          "internalType": "address",
          "name": "from",
          "type": "address"
        },
        {
          "internalType": "address",
          "name": "to",
          "type": "address"
        },
        {
          "internalType": "uint256",
          "name": "tokenId",
          "type": "uint256"
        }
      ],
      "name": "safeTransferFrom",
      "outputs": [],
      "stateMutability": "nonpayable",
      "type": "function"
    },
    {
      "inputs": [
        {
          "internalType": "address",
          "name": "from",
          "type": "address"
        },
        {
          "internalType": "address",
          "name": "to",
          "type": "address"
        },
        {
          "internalType": "uint256",
          "name": "tokenId",
          "type": "uint256"
        },
        {
          "internalType": "bytes",
          "name": "_data",
          "type": "bytes"
        }
      ],
      "name": "safeTransferFrom",
      "outputs": [],
      "stateMutability": "nonpayable",
      "type": "function"
    },
    {
      "inputs": [
        {
          "internalType": "address",
          "name": "operator",
          "type": "address"
        },
        {
          "internalType": "bool",
          "name": "approved",
          "type": "bool"
        }
      ],
      "name": "setApprovalForAll",
      "outputs": [],
      "stateMutability": "nonpayable",
      "type": "function"
    },
    {
      "inputs": [
        {
          "internalType": "bytes4",
          "name": "interfaceId",
          "type": "bytes4"
        }
      ],
      "name": "supportsInterface",
      "outputs": [
        {
          "internalType": "bool",
          "name": "",
          "type": "bool"
        }
      ],
      "stateMutability": "view",
      "type": "function",
      "constant": true
    },
    {
      "inputs": [],
      "name": "symbol",
      "outputs": [
        {
          "internalType": "string",
          "name": "",
          "type": "string"
        }
      ],
      "stateMutability": "view",
      "type": "function",
      "constant": true
    },
    {
      "inputs": [
        {
          "internalType": "uint256",
          "name": "tokenId",
          "type": "uint256"
        }
      ],
      "name": "tokenURI",
      "outputs": [
        {
          "internalType": "string",
          "name": "",
          "type": "string"
        }
      ],
      "stateMutability": "view",
      "type": "function",
      "constant": true
    },
    {
      "inputs": [
        {
          "internalType": "address",
          "name": "from",
          "type": "address"
        },
        {
          "internalType": "address",
          "name": "to",
          "type": "address"
        },
        {
          "internalType": "uint256",
          "name": "tokenId",
          "type": "uint256"
        }
      ],
      "name": "transferFrom",
      "outputs": [],
      "stateMutability": "nonpayable",
      "type": "function"
    },
    {
      "inputs": [
        {
          "internalType": "address",
          "name": "newOwner",
          "type": "address"
        }
      ],
      "name": "transferOwnership",
      "outputs": [],
      "stateMutability": "nonpayable",
      "type": "function"
    },
    {
      "inputs": [
        {
          "internalType": "uint256",
          "name": "tokenId",
          "type": "uint256"
        }
      ],
      "name": "getEndAtById",
      "outputs": [
        {
          "internalType": "uint256",
          "name": "",
          "type": "uint256"
        }
      ],
      "stateMutability": "view",
      "type": "function",
      "constant": true
    },
    {
      "inputs": [
        {
          "internalType": "uint256",
          "name": "tokenId",
          "type": "uint256"
        },
        {
          "internalType": "uint256",
          "name": "time",
          "type": "uint256"
        }
      ],
      "name": "start",
      "outputs": [],
      "stateMutability": "nonpayable",
      "type": "function"
    },
    {
      "inputs": [
        {
          "internalType": "uint256",
          "name": "tokenId",
          "type": "uint256"
        },
        {
          "internalType": "uint256",
          "name": "time",
          "type": "uint256"
        }
      ],
      "name": "bid",
      "outputs": [],
      "stateMutability": "payable",
      "type": "function",
      "payable": true
    },
    {
      "inputs": [
        {
          "internalType": "uint256",
          "name": "tokenId",
          "type": "uint256"
        },
        {
          "internalType": "uint256",
          "name": "time",
          "type": "uint256"
        }
      ],
      "name": "end",
      "outputs": [],
      "stateMutability": "payable",
      "type": "function",
      "payable": true
    },
    {
      "inputs": [
        {
          "internalType": "uint256",
          "name": "newPrice",
          "type": "uint256"
        }
      ],
      "name": "setListingPrice",
      "outputs": [],
      "stateMutability": "nonpayable",
      "type": "function"
    },
    {
      "inputs": [
        {
          "internalType": "uint256",
          "name": "tokenId",
          "type": "uint256"
        }
      ],
      "name": "getNftItem",
      "outputs": [
        {
          "components": [
            {
              "internalType": "uint256",
              "name": "tokenId",
              "type": "uint256"
            },
            {
              "internalType": "uint256",
              "name": "price",
              "type": "uint256"
            },
            {
              "internalType": "address",
              "name": "creator",
              "type": "address"
            },
            {
              "internalType": "bool",
              "name": "isListed",
              "type": "bool"
            }
          ],
          "internalType": "struct NftMarket.NftItem",
          "name": "",
          "type": "tuple"
        }
      ],
      "stateMutability": "view",
      "type": "function",
      "constant": true
    },
    {
      "inputs": [],
      "name": "listedItemsCount",
      "outputs": [
        {
          "internalType": "uint256",
          "name": "",
          "type": "uint256"
        }
      ],
      "stateMutability": "view",
      "type": "function",
      "constant": true
    },
    {
      "inputs": [
        {
          "internalType": "string",
          "name": "tokenURI",
          "type": "string"
        }
      ],
      "name": "tokenURIExists",
      "outputs": [
        {
          "internalType": "bool",
          "name": "",
          "type": "bool"
        }
      ],
      "stateMutability": "view",
      "type": "function",
      "constant": true
    },
    {
      "inputs": [],
      "name": "totalSupply",
      "outputs": [
        {
          "internalType": "uint256",
          "name": "",
          "type": "uint256"
        }
      ],
      "stateMutability": "view",
      "type": "function",
      "constant": true
    },
    {
      "inputs": [
        {
          "internalType": "uint256",
          "name": "index",
          "type": "uint256"
        }
      ],
      "name": "tokenByIndex",
      "outputs": [
        {
          "internalType": "uint256",
          "name": "",
          "type": "uint256"
        }
      ],
      "stateMutability": "view",
      "type": "function",
      "constant": true
    },
    {
      "inputs": [
        {
          "internalType": "address",
          "name": "owner",
          "type": "address"
        },
        {
          "internalType": "uint256",
          "name": "index",
          "type": "uint256"
        }
      ],
      "name": "tokenOfOwnerByIndex",
      "outputs": [
        {
          "internalType": "uint256",
          "name": "",
          "type": "uint256"
        }
      ],
      "stateMutability": "view",
      "type": "function",
      "constant": true
    },
    {
      "inputs": [],
      "name": "getAllNftsOnSale",
      "outputs": [
        {
          "components": [
            {
              "internalType": "uint256",
              "name": "tokenId",
              "type": "uint256"
            },
            {
              "internalType": "uint256",
              "name": "price",
              "type": "uint256"
            },
            {
              "internalType": "address",
              "name": "creator",
              "type": "address"
            },
            {
              "internalType": "bool",
              "name": "isListed",
              "type": "bool"
            }
          ],
          "internalType": "struct NftMarket.NftItem[]",
          "name": "",
          "type": "tuple[]"
        }
      ],
      "stateMutability": "view",
      "type": "function",
      "constant": true
    },
    {
      "inputs": [],
      "name": "getOwnedNfts",
      "outputs": [
        {
          "components": [
            {
              "internalType": "uint256",
              "name": "tokenId",
              "type": "uint256"
            },
            {
              "internalType": "uint256",
              "name": "price",
              "type": "uint256"
            },
            {
              "internalType": "address",
              "name": "creator",
              "type": "address"
            },
            {
              "internalType": "bool",
              "name": "isListed",
              "type": "bool"
            }
          ],
          "internalType": "struct NftMarket.NftItem[]",
          "name": "",
          "type": "tuple[]"
        }
      ],
      "stateMutability": "view",
      "type": "function",
      "constant": true
    },
    {
      "inputs": [
        {
          "internalType": "string",
          "name": "tokenURI",
          "type": "string"
        },
        {
          "internalType": "uint256",
          "name": "price",
          "type": "uint256"
        }
      ],
      "name": "mintToken",
      "outputs": [
        {
          "internalType": "uint256",
          "name": "",
          "type": "uint256"
        }
      ],
      "stateMutability": "payable",
      "type": "function",
      "payable": true
    },
    {
      "inputs": [
        {
          "internalType": "uint256",
          "name": "tokenId",
          "type": "uint256"
        }
      ],
      "name": "buyNft",
      "outputs": [],
      "stateMutability": "payable",
      "type": "function",
      "payable": true
    },
    {
      "inputs": [
        {
          "internalType": "uint256",
          "name": "tokenId",
          "type": "uint256"
        },
        {
          "internalType": "uint256",
          "name": "newPrice",
          "type": "uint256"
        }
      ],
      "name": "placeNftOnSale",
      "outputs": [],
      "stateMutability": "payable",
      "type": "function",
      "payable": true
    }
  ],
  "bytecode": "0x60806040526658d15e176280006008553480156200001c57600080fd5b506040518060400160405280600381526020017f41424300000000000000000000000000000000000000000000000000000000008152506040518060400160405280600481526020017f56544b56000000000000000000000000000000000000000000000000000000008152508160009080519060200190620000a1929190620001b1565b508060019080519060200190620000ba929190620001b1565b505050620000dd620000d1620000e360201b60201c565b620000eb60201b60201c565b620002c5565b600033905090565b6000600760009054906101000a900473ffffffffffffffffffffffffffffffffffffffff16905081600760006101000a81548173ffffffffffffffffffffffffffffffffffffffff021916908373ffffffffffffffffffffffffffffffffffffffff1602179055508173ffffffffffffffffffffffffffffffffffffffff168173ffffffffffffffffffffffffffffffffffffffff167f8be0079c531659141344cd1fd0a4f28419497f9722a3daafe3b4186f6b6457e060405160405180910390a35050565b828054620001bf9062000290565b90600052602060002090601f016020900481019282620001e357600085556200022f565b82601f10620001fe57805160ff19168380011785556200022f565b828001600101855582156200022f579182015b828111156200022e57825182559160200191906001019062000211565b5b5090506200023e919062000242565b5090565b5b808211156200025d57600081600090555060010162000243565b5090565b7f4e487b7100000000000000000000000000000000000000000000000000000000600052602260045260246000fd5b60006002820490506001821680620002a957607f821691505b602082108103620002bf57620002be62000261565b5b50919050565b6154aa80620002d56000396000f3fe6080604052600436106101ee5760003560e01c80636f1a0af51161010d57806395d89b41116100a0578063c78f19f91161006f578063c78f19f9146106f0578063c87b56dd1461071b578063ccb4918d14610758578063e985e9c514610783578063f2fde38b146107c0576101ee565b806395d89b4114610643578063a22cb4651461066e578063b88d4fde14610697578063c046372c146106c0576101ee565b80637c726b69116100dc5780637c726b69146105895780638da5cb5b146105b25780638e38bef6146105dd5780638fb4b5731461061a576101ee565b80636f1a0af5146104cd57806370a082311461050a57806370cbcb4314610547578063715018a614610572576101ee565b80632f745c59116101855780634f6ccce7116101545780634f6ccce71461041b5780635301d63c14610458578063598647f8146104745780636352211e14610490576101ee565b80632f745c591461034d57806336b536be1461038a57806342842e0e146103b557806343d32ae7146103de576101ee565b806318160ddd116101c157806318160ddd146102c157806321f422e5146102ec57806323b872dd14610308578063243adbdd14610331576101ee565b806301ffc9a7146101f357806306fdde0314610230578063081812fc1461025b578063095ea7b314610298575b600080fd5b3480156101ff57600080fd5b5061021a600480360381019061021591906137f4565b6107e9565b604051610227919061383c565b60405180910390f35b34801561023c57600080fd5b506102456108cb565b60405161025291906138f0565b60405180910390f35b34801561026757600080fd5b50610282600480360381019061027d9190613948565b61095d565b60405161028f91906139b6565b60405180910390f35b3480156102a457600080fd5b506102bf60048036038101906102ba91906139fd565b6109e2565b005b3480156102cd57600080fd5b506102d6610af9565b6040516102e39190613a4c565b60405180910390f35b61030660048036038101906103019190613a67565b610b06565b005b34801561031457600080fd5b5061032f600480360381019061032a9190613aa7565b610c82565b005b61034b60048036038101906103469190613948565b610ce2565b005b34801561035957600080fd5b50610374600480360381019061036f91906139fd565b610e88565b6040516103819190613a4c565b60405180910390f35b34801561039657600080fd5b5061039f610f2d565b6040516103ac9190613c2b565b60405180910390f35b3480156103c157600080fd5b506103dc60048036038101906103d79190613aa7565b6110c7565b005b3480156103ea57600080fd5b5061040560048036038101906104009190613d82565b6110e7565b604051610412919061383c565b60405180910390f35b34801561042757600080fd5b50610442600480360381019061043d9190613948565b611123565b60405161044f9190613a4c565b60405180910390f35b610472600480360381019061046d9190613a67565b611194565b005b61048e60048036038101906104899190613a67565b611480565b005b34801561049c57600080fd5b506104b760048036038101906104b29190613948565b6116bf565b6040516104c491906139b6565b60405180910390f35b3480156104d957600080fd5b506104f460048036038101906104ef9190613948565b611770565b6040516105019190613e20565b60405180910390f35b34801561051657600080fd5b50610531600480360381019061052c9190613e3b565b611822565b60405161053e9190613a4c565b60405180910390f35b34801561055357600080fd5b5061055c6118d9565b6040516105699190613c2b565b60405180910390f35b34801561057e57600080fd5b50610587611a3d565b005b34801561059557600080fd5b506105b060048036038101906105ab9190613948565b611ac5565b005b3480156105be57600080fd5b506105c7611b8e565b6040516105d491906139b6565b60405180910390f35b3480156105e957600080fd5b5061060460048036038101906105ff9190613948565b611bb8565b6040516106119190613a4c565b60405180910390f35b34801561062657600080fd5b50610641600480360381019061063c9190613a67565b611bd5565b005b34801561064f57600080fd5b50610658611d71565b60405161066591906138f0565b60405180910390f35b34801561067a57600080fd5b5061069560048036038101906106909190613e94565b611e03565b005b3480156106a357600080fd5b506106be60048036038101906106b99190613f75565b611e19565b005b6106da60048036038101906106d59190613ff8565b611e7b565b6040516106e79190613a4c565b60405180910390f35b3480156106fc57600080fd5b50610705611f8b565b6040516107129190613a4c565b60405180910390f35b34801561072757600080fd5b50610742600480360381019061073d9190613948565b611f91565b60405161074f91906138f0565b60405180910390f35b34801561076457600080fd5b5061076d6120e2565b60405161077a9190613a4c565b60405180910390f35b34801561078f57600080fd5b506107aa60048036038101906107a59190614054565b6120f3565b6040516107b7919061383c565b60405180910390f35b3480156107cc57600080fd5b506107e760048036038101906107e29190613e3b565b612187565b005b60007f80ac58cd000000000000000000000000000000000000000000000000000000007bffffffffffffffffffffffffffffffffffffffffffffffffffffffff1916827bffffffffffffffffffffffffffffffffffffffffffffffffffffffff191614806108b457507f5b5e139f000000000000000000000000000000000000000000000000000000007bffffffffffffffffffffffffffffffffffffffffffffffffffffffff1916827bffffffffffffffffffffffffffffffffffffffffffffffffffffffff1916145b806108c457506108c38261227e565b5b9050919050565b6060600080546108da906140c3565b80601f0160208091040260200160405190810160405280929190818152602001828054610906906140c3565b80156109535780601f1061092857610100808354040283529160200191610953565b820191906000526020600020905b81548152906001019060200180831161093657829003601f168201915b5050505050905090565b6000610968826122e8565b6109a7576040517f08c379a000000000000000000000000000000000000000000000000000000000815260040161099e90614166565b60405180910390fd5b6004600083815260200190815260200160002060009054906101000a900473ffffffffffffffffffffffffffffffffffffffff169050919050565b60006109ed826116bf565b90508073ffffffffffffffffffffffffffffffffffffffff168373ffffffffffffffffffffffffffffffffffffffff1603610a5d576040517f08c379a0000000000000000000000000000000000000000000000000000000008152600401610a54906141f8565b60405180910390fd5b8073ffffffffffffffffffffffffffffffffffffffff16610a7c612354565b73ffffffffffffffffffffffffffffffffffffffff161480610aab5750610aaa81610aa5612354565b6120f3565b5b610aea576040517f08c379a0000000000000000000000000000000000000000000000000000000008152600401610ae19061428a565b60405180910390fd5b610af4838361235c565b505050565b6000600f80549050905090565b3373ffffffffffffffffffffffffffffffffffffffff16610b26836116bf565b73ffffffffffffffffffffffffffffffffffffffff1614610b7c576040517f08c379a0000000000000000000000000000000000000000000000000000000008152600401610b73906142f6565b60405180910390fd5b60001515600c600084815260200190815260200160002060020160149054906101000a900460ff16151514610be6576040517f08c379a0000000000000000000000000000000000000000000000000000000008152600401610bdd90614362565b60405180910390fd5b6008543414610c2a576040517f08c379a0000000000000000000000000000000000000000000000000000000008152600401610c21906143f4565b60405180910390fd5b6001600c600084815260200190815260200160002060020160146101000a81548160ff02191690831515021790555080600c600084815260200190815260200160002060010181905550610c7e6009612415565b5050565b610c93610c8d612354565b8261242b565b610cd2576040517f08c379a0000000000000000000000000000000000000000000000000000000008152600401610cc990614486565b60405180910390fd5b610cdd838383612509565b505050565b6000600c60008381526020019081526020016000206001015490506000610d08836116bf565b90508073ffffffffffffffffffffffffffffffffffffffff163373ffffffffffffffffffffffffffffffffffffffff1603610d78576040517f08c379a0000000000000000000000000000000000000000000000000000000008152600401610d6f906144f2565b60405180910390fd5b813414610dba576040517f08c379a0000000000000000000000000000000000000000000000000000000008152600401610db19061455e565b60405180910390fd5b6000600c600085815260200190815260200160002060020160146101000a81548160ff021916908315150217905550610df3600961276f565b610dfe813385612509565b8073ffffffffffffffffffffffffffffffffffffffff166108fc349081150290604051600060405180830381858888f19350505050158015610e44573d6000803e3d6000fd5b50827f4a161b570f7064c0f57d89489eb656920c0daaa73589448066059278488c58d134833342604051610e7b949392919061457e565b60405180910390a2505050565b6000610e9383611822565b8210610ed4576040517f08c379a0000000000000000000000000000000000000000000000000000000008152600401610ecb9061460f565b60405180910390fd5b600d60008473ffffffffffffffffffffffffffffffffffffffff1673ffffffffffffffffffffffffffffffffffffffff168152602001908152602001600020600083815260200190815260200160002054905092915050565b60606000610f39610af9565b9050600080610f4860096127cb565b67ffffffffffffffff811115610f6157610f60613c57565b5b604051908082528060200260200182016040528015610f9a57816020015b610f876136a5565b815260200190600190039081610f7f5790505b50905060005b838110156110bd576000610fb382611123565b90506000600c60008381526020019081526020016000209050600115158160020160149054906101000a900460ff161515036110a8578060405180608001604052908160008201548152602001600182015481526020016002820160009054906101000a900473ffffffffffffffffffffffffffffffffffffffff1673ffffffffffffffffffffffffffffffffffffffff1673ffffffffffffffffffffffffffffffffffffffff1681526020016002820160149054906101000a900460ff16151515158152505084868151811061108d5761108c61462f565b5b60200260200101819052506001856110a5919061468d565b94505b505080806110b5906146e3565b915050610fa0565b5080935050505090565b6110e283838360405180602001604052806000815250611e19565b505050565b600060011515600b836040516110fd9190614767565b908152602001604051809103902060009054906101000a900460ff161515149050919050565b600061112d610af9565b821061116e576040517f08c379a00000000000000000000000000000000000000000000000000000000081526004016111659061460f565b60405180910390fd5b600f82815481106111825761118161462f565b5b90600052602060002001549050919050565b60006015600084815260200190815260200160002060009054906101000a900473ffffffffffffffffffffffffffffffffffffffff16905060006011600085815260200190815260200160002060009054906101000a900460ff16905060006012600086815260200190815260200160002054905060006014600087815260200190815260200160002054905060006013600088815260200190815260200160002060009054906101000a900473ffffffffffffffffffffffffffffffffffffffff16905083611299576040517f08c379a0000000000000000000000000000000000000000000000000000000008152600401611290906147ca565b60405180910390fd5b828610156112dc576040517f08c379a00000000000000000000000000000000000000000000000000000000081526004016112d390614836565b60405180910390fd5b60006011600089815260200190815260200160002060006101000a81548160ff02191690831515021790555060006012600089815260200190815260200160002081905550600073ffffffffffffffffffffffffffffffffffffffff168173ffffffffffffffffffffffffffffffffffffffff160361136557611360308689612509565b611371565b611370308289612509565b5b8473ffffffffffffffffffffffffffffffffffffffff166108fc839081150290604051600060405180830381858888f193505050501580156113b7573d6000803e3d6000fd5b506000601460008981526020019081526020016000208190555060006013600089815260200190815260200160002060006101000a81548173ffffffffffffffffffffffffffffffffffffffff021916908373ffffffffffffffffffffffffffffffffffffffff16021790555060006015600089815260200190815260200160002060006101000a81548173ffffffffffffffffffffffffffffffffffffffff021916908373ffffffffffffffffffffffffffffffffffffffff16021790555050505050505050565b60006011600084815260200190815260200160002060009054906101000a900460ff16905060006012600085815260200190815260200160002054905060006014600086815260200190815260200160002054905060006013600087815260200190815260200160002060009054906101000a900473ffffffffffffffffffffffffffffffffffffffff1690508361154d576040517f08c379a0000000000000000000000000000000000000000000000000000000008152600401611544906147ca565b60405180910390fd5b82851061158f576040517f08c379a000000000000000000000000000000000000000000000000000000000815260040161158690614836565b60405180910390fd5b8134116115d1576040517f08c379a00000000000000000000000000000000000000000000000000000000081526004016115c8906148a2565b60405180910390fd5b600073ffffffffffffffffffffffffffffffffffffffff168173ffffffffffffffffffffffffffffffffffffffff161461164d578073ffffffffffffffffffffffffffffffffffffffff166108fc839081150290604051600060405180830381858888f1935050505015801561164b573d6000803e3d6000fd5b505b346014600088815260200190815260200160002081905550336013600088815260200190815260200160002060006101000a81548173ffffffffffffffffffffffffffffffffffffffff021916908373ffffffffffffffffffffffffffffffffffffffff160217905550505050505050565b6000806002600084815260200190815260200160002060009054906101000a900473ffffffffffffffffffffffffffffffffffffffff169050600073ffffffffffffffffffffffffffffffffffffffff168173ffffffffffffffffffffffffffffffffffffffff1603611767576040517f08c379a000000000000000000000000000000000000000000000000000000000815260040161175e90614934565b60405180910390fd5b80915050919050565b6117786136a5565b600c600083815260200190815260200160002060405180608001604052908160008201548152602001600182015481526020016002820160009054906101000a900473ffffffffffffffffffffffffffffffffffffffff1673ffffffffffffffffffffffffffffffffffffffff1673ffffffffffffffffffffffffffffffffffffffff1681526020016002820160149054906101000a900460ff1615151515815250509050919050565b60008073ffffffffffffffffffffffffffffffffffffffff168273ffffffffffffffffffffffffffffffffffffffff1603611892576040517f08c379a0000000000000000000000000000000000000000000000000000000008152600401611889906149c6565b60405180910390fd5b600360008373ffffffffffffffffffffffffffffffffffffffff1673ffffffffffffffffffffffffffffffffffffffff168152602001908152602001600020549050919050565b606060006118e633611822565b905060008167ffffffffffffffff81111561190457611903613c57565b5b60405190808252806020026020018201604052801561193d57816020015b61192a6136a5565b8152602001906001900390816119225790505b50905060005b82811015611a345760006119573383610e88565b90506000600c600083815260200190815260200160002090508060405180608001604052908160008201548152602001600182015481526020016002820160009054906101000a900473ffffffffffffffffffffffffffffffffffffffff1673ffffffffffffffffffffffffffffffffffffffff1673ffffffffffffffffffffffffffffffffffffffff1681526020016002820160149054906101000a900460ff161515151581525050848481518110611a1457611a1361462f565b5b602002602001018190525050508080611a2c906146e3565b915050611943565b50809250505090565b611a45612354565b73ffffffffffffffffffffffffffffffffffffffff16611a63611b8e565b73ffffffffffffffffffffffffffffffffffffffff1614611ab9576040517f08c379a0000000000000000000000000000000000000000000000000000000008152600401611ab090614a32565b60405180910390fd5b611ac360006127d9565b565b611acd612354565b73ffffffffffffffffffffffffffffffffffffffff16611aeb611b8e565b73ffffffffffffffffffffffffffffffffffffffff1614611b41576040517f08c379a0000000000000000000000000000000000000000000000000000000008152600401611b3890614a32565b60405180910390fd5b60008111611b84576040517f08c379a0000000000000000000000000000000000000000000000000000000008152600401611b7b90614a9e565b60405180910390fd5b8060088190555050565b6000600760009054906101000a900473ffffffffffffffffffffffffffffffffffffffff16905090565b600060126000838152602001908152602001600020549050919050565b6000611be0836116bf565b905060006011600085815260200190815260200160002060009054906101000a900460ff1690508173ffffffffffffffffffffffffffffffffffffffff163373ffffffffffffffffffffffffffffffffffffffff1614611c75576040517f08c379a0000000000000000000000000000000000000000000000000000000008152600401611c6c90614b0a565b60405180910390fd5b6000151581151514611cbc576040517f08c379a0000000000000000000000000000000000000000000000000000000008152600401611cb390614b76565b60405180910390fd5b60016011600086815260200190815260200160002060006101000a81548160ff021916908315150217905550620186a083611cf7919061468d565b6012600086815260200190815260200160002081905550816015600086815260200190815260200160002060006101000a81548173ffffffffffffffffffffffffffffffffffffffff021916908373ffffffffffffffffffffffffffffffffffffffff160217905550611d6b823086612509565b50505050565b606060018054611d80906140c3565b80601f0160208091040260200160405190810160405280929190818152602001828054611dac906140c3565b8015611df95780601f10611dce57610100808354040283529160200191611df9565b820191906000526020600020905b815481529060010190602001808311611ddc57829003601f168201915b5050505050905090565b611e15611e0e612354565b838361289f565b5050565b611e2a611e24612354565b8361242b565b611e69576040517f08c379a0000000000000000000000000000000000000000000000000000000008152600401611e6090614486565b60405180910390fd5b611e7584848484612a0b565b50505050565b6000611e86836110e7565b15611ec6576040517f08c379a0000000000000000000000000000000000000000000000000000000008152600401611ebd90614be2565b60405180910390fd5b6008543414611f0a576040517f08c379a0000000000000000000000000000000000000000000000000000000008152600401611f01906143f4565b60405180910390fd5b611f14600a612415565b611f1e6009612415565b6000611f2a600a6127cb565b9050611f363382612a67565b611f408185612a85565b611f4a8184612af9565b6001600b85604051611f5c9190614767565b908152602001604051809103902060006101000a81548160ff0219169083151502179055508091505092915050565b60085481565b6060611f9c826122e8565b611fdb576040517f08c379a0000000000000000000000000000000000000000000000000000000008152600401611fd290614c74565b60405180910390fd5b6000600660008481526020019081526020016000208054611ffb906140c3565b80601f0160208091040260200160405190810160405280929190818152602001828054612027906140c3565b80156120745780601f1061204957610100808354040283529160200191612074565b820191906000526020600020905b81548152906001019060200180831161205757829003601f168201915b505050505090506000612085612c87565b9050600081510361209a5781925050506120dd565b6000825111156120cf5780826040516020016120b7929190614c94565b604051602081830303815290604052925050506120dd565b6120d884612c9e565b925050505b919050565b60006120ee60096127cb565b905090565b6000600560008473ffffffffffffffffffffffffffffffffffffffff1673ffffffffffffffffffffffffffffffffffffffff16815260200190815260200160002060008373ffffffffffffffffffffffffffffffffffffffff1673ffffffffffffffffffffffffffffffffffffffff16815260200190815260200160002060009054906101000a900460ff16905092915050565b61218f612354565b73ffffffffffffffffffffffffffffffffffffffff166121ad611b8e565b73ffffffffffffffffffffffffffffffffffffffff1614612203576040517f08c379a00000000000000000000000000000000000000000000000000000000081526004016121fa90614a32565b60405180910390fd5b600073ffffffffffffffffffffffffffffffffffffffff168173ffffffffffffffffffffffffffffffffffffffff1603612272576040517f08c379a000000000000000000000000000000000000000000000000000000000815260040161226990614d2a565b60405180910390fd5b61227b816127d9565b50565b60007f01ffc9a7000000000000000000000000000000000000000000000000000000007bffffffffffffffffffffffffffffffffffffffffffffffffffffffff1916827bffffffffffffffffffffffffffffffffffffffffffffffffffffffff1916149050919050565b60008073ffffffffffffffffffffffffffffffffffffffff166002600084815260200190815260200160002060009054906101000a900473ffffffffffffffffffffffffffffffffffffffff1673ffffffffffffffffffffffffffffffffffffffff1614159050919050565b600033905090565b816004600083815260200190815260200160002060006101000a81548173ffffffffffffffffffffffffffffffffffffffff021916908373ffffffffffffffffffffffffffffffffffffffff160217905550808273ffffffffffffffffffffffffffffffffffffffff166123cf836116bf565b73ffffffffffffffffffffffffffffffffffffffff167f8c5be1e5ebec7d5bd14f71427d1e84f3dd0314c0f7b2291e5b200ac8c7c3b92560405160405180910390a45050565b6001816000016000828254019250508190555050565b6000612436826122e8565b612475576040517f08c379a000000000000000000000000000000000000000000000000000000000815260040161246c90614dbc565b60405180910390fd5b6000612480836116bf565b90508073ffffffffffffffffffffffffffffffffffffffff168473ffffffffffffffffffffffffffffffffffffffff1614806124c257506124c181856120f3565b5b8061250057508373ffffffffffffffffffffffffffffffffffffffff166124e88461095d565b73ffffffffffffffffffffffffffffffffffffffff16145b91505092915050565b8273ffffffffffffffffffffffffffffffffffffffff16612529826116bf565b73ffffffffffffffffffffffffffffffffffffffff161461257f576040517f08c379a000000000000000000000000000000000000000000000000000000000815260040161257690614e4e565b60405180910390fd5b600073ffffffffffffffffffffffffffffffffffffffff168273ffffffffffffffffffffffffffffffffffffffff16036125ee576040517f08c379a00000000000000000000000000000000000000000000000000000000081526004016125e590614ee0565b60405180910390fd5b6125f9838383612d45565b61260460008261235c565b6001600360008573ffffffffffffffffffffffffffffffffffffffff1673ffffffffffffffffffffffffffffffffffffffff16815260200190815260200160002060008282546126549190614f00565b925050819055506001600360008473ffffffffffffffffffffffffffffffffffffffff1673ffffffffffffffffffffffffffffffffffffffff16815260200190815260200160002060008282546126ab919061468d565b92505081905550816002600083815260200190815260200160002060006101000a81548173ffffffffffffffffffffffffffffffffffffffff021916908373ffffffffffffffffffffffffffffffffffffffff160217905550808273ffffffffffffffffffffffffffffffffffffffff168473ffffffffffffffffffffffffffffffffffffffff167fddf252ad1be2c89b69c2b068fc378daa952ba7f163c4a11628f55a4df523b3ef60405160405180910390a461276a838383612e57565b505050565b600081600001549050600081116127bb576040517f08c379a00000000000000000000000000000000000000000000000000000000081526004016127b290614f80565b60405180910390fd5b6001810382600001819055505050565b600081600001549050919050565b6000600760009054906101000a900473ffffffffffffffffffffffffffffffffffffffff16905081600760006101000a81548173ffffffffffffffffffffffffffffffffffffffff021916908373ffffffffffffffffffffffffffffffffffffffff1602179055508173ffffffffffffffffffffffffffffffffffffffff168173ffffffffffffffffffffffffffffffffffffffff167f8be0079c531659141344cd1fd0a4f28419497f9722a3daafe3b4186f6b6457e060405160405180910390a35050565b8173ffffffffffffffffffffffffffffffffffffffff168373ffffffffffffffffffffffffffffffffffffffff160361290d576040517f08c379a000000000000000000000000000000000000000000000000000000000815260040161290490614fec565b60405180910390fd5b80600560008573ffffffffffffffffffffffffffffffffffffffff1673ffffffffffffffffffffffffffffffffffffffff16815260200190815260200160002060008473ffffffffffffffffffffffffffffffffffffffff1673ffffffffffffffffffffffffffffffffffffffff16815260200190815260200160002060006101000a81548160ff0219169083151502179055508173ffffffffffffffffffffffffffffffffffffffff168373ffffffffffffffffffffffffffffffffffffffff167f17307eab39ab6107e8899845ad3d59bd9653f200f220920489ca2b5937696c31836040516129fe919061383c565b60405180910390a3505050565b612a16848484612509565b612a2284848484612e5c565b612a61576040517f08c379a0000000000000000000000000000000000000000000000000000000008152600401612a589061507e565b60405180910390fd5b50505050565b612a81828260405180602001604052806000815250612fe3565b5050565b612a8e826122e8565b612acd576040517f08c379a0000000000000000000000000000000000000000000000000000000008152600401612ac490615110565b60405180910390fd5b80600660008481526020019081526020016000209080519060200190612af49291906136e5565b505050565b60008111612b3c576040517f08c379a0000000000000000000000000000000000000000000000000000000008152600401612b3390614a9e565b60405180910390fd5b60405180608001604052808381526020018281526020013373ffffffffffffffffffffffffffffffffffffffff16815260200160011515815250600c6000848152602001908152602001600020600082015181600001556020820151816001015560408201518160020160006101000a81548173ffffffffffffffffffffffffffffffffffffffff021916908373ffffffffffffffffffffffffffffffffffffffff16021790555060608201518160020160146101000a81548160ff021916908315150217905550905050817f470031062672bc0246e132c723a729c4676710ec663a29e86c88678032daddea82336001604051612c3c93929190615130565b60405180910390a2817f4a161b570f7064c0f57d89489eb656920c0daaa73589448066059278488c58d18260003342604051612c7b949392919061457e565b60405180910390a25050565b606060405180602001604052806000815250905090565b6060612ca9826122e8565b612ce8576040517f08c379a0000000000000000000000000000000000000000000000000000000008152600401612cdf906151d9565b60405180910390fd5b6000612cf2612c87565b90506000815111612d125760405180602001604052806000815250612d3d565b80612d1c8461303e565b604051602001612d2d929190614c94565b6040516020818303038152906040525b915050919050565b612d5083838361319e565b600073ffffffffffffffffffffffffffffffffffffffff168373ffffffffffffffffffffffffffffffffffffffff1603612d9257612d8d816131a3565b612dd1565b8173ffffffffffffffffffffffffffffffffffffffff168373ffffffffffffffffffffffffffffffffffffffff1614612dd057612dcf83826131ec565b5b5b600073ffffffffffffffffffffffffffffffffffffffff168273ffffffffffffffffffffffffffffffffffffffff1603612e1357612e0e81613359565b612e52565b8273ffffffffffffffffffffffffffffffffffffffff168273ffffffffffffffffffffffffffffffffffffffff1614612e5157612e50828261342a565b5b5b505050565b505050565b6000612e7d8473ffffffffffffffffffffffffffffffffffffffff166134a9565b15612fd6578373ffffffffffffffffffffffffffffffffffffffff1663150b7a02612ea6612354565b8786866040518563ffffffff1660e01b8152600401612ec8949392919061524e565b6020604051808303816000875af1925050508015612f0457506040513d601f19601f82011682018060405250810190612f0191906152af565b60015b612f86573d8060008114612f34576040519150601f19603f3d011682016040523d82523d6000602084013e612f39565b606091505b506000815103612f7e576040517f08c379a0000000000000000000000000000000000000000000000000000000008152600401612f759061507e565b60405180910390fd5b805181602001fd5b63150b7a0260e01b7bffffffffffffffffffffffffffffffffffffffffffffffffffffffff1916817bffffffffffffffffffffffffffffffffffffffffffffffffffffffff191614915050612fdb565b600190505b949350505050565b612fed83836134cc565b612ffa6000848484612e5c565b613039576040517f08c379a00000000000000000000000000000000000000000000000000000000081526004016130309061507e565b60405180910390fd5b505050565b606060008203613085576040518060400160405280600181526020017f30000000000000000000000000000000000000000000000000000000000000008152509050613199565b600082905060005b600082146130b75780806130a0906146e3565b915050600a826130b0919061530b565b915061308d565b60008167ffffffffffffffff8111156130d3576130d2613c57565b5b6040519080825280601f01601f1916602001820160405280156131055781602001600182028036833780820191505090505b5090505b600085146131925760018261311e9190614f00565b9150600a8561312d919061533c565b6030613139919061468d565b60f81b81838151811061314f5761314e61462f565b5b60200101907effffffffffffffffffffffffffffffffffffffffffffffffffffffffffffff1916908160001a905350600a8561318b919061530b565b9450613109565b8093505050505b919050565b505050565b600f805490506010600083815260200190815260200160002081905550600f81908060018154018082558091505060019003906000526020600020016000909190919091505550565b600060016131f984611822565b6132039190614f00565b90506000600e60008481526020019081526020016000205490508181146132e8576000600d60008673ffffffffffffffffffffffffffffffffffffffff1673ffffffffffffffffffffffffffffffffffffffff168152602001908152602001600020600084815260200190815260200160002054905080600d60008773ffffffffffffffffffffffffffffffffffffffff1673ffffffffffffffffffffffffffffffffffffffff16815260200190815260200160002060008481526020019081526020016000208190555081600e600083815260200190815260200160002081905550505b600e600084815260200190815260200160002060009055600d60008573ffffffffffffffffffffffffffffffffffffffff1673ffffffffffffffffffffffffffffffffffffffff16815260200190815260200160002060008381526020019081526020016000206000905550505050565b60006001600f8054905061336d9190614f00565b90506000601060008481526020019081526020016000205490506000600f838154811061339d5761339c61462f565b5b9060005260206000200154905080600f83815481106133bf576133be61462f565b5b90600052602060002001819055508160106000838152602001908152602001600020819055506010600085815260200190815260200160002060009055600f80548061340e5761340d61536d565b5b6001900381819060005260206000200160009055905550505050565b600061343583611822565b905081600d60008573ffffffffffffffffffffffffffffffffffffffff1673ffffffffffffffffffffffffffffffffffffffff16815260200190815260200160002060008381526020019081526020016000208190555080600e600084815260200190815260200160002081905550505050565b6000808273ffffffffffffffffffffffffffffffffffffffff163b119050919050565b600073ffffffffffffffffffffffffffffffffffffffff168273ffffffffffffffffffffffffffffffffffffffff160361353b576040517f08c379a0000000000000000000000000000000000000000000000000000000008152600401613532906153e8565b60405180910390fd5b613544816122e8565b15613584576040517f08c379a000000000000000000000000000000000000000000000000000000000815260040161357b90615454565b60405180910390fd5b61359060008383612d45565b6001600360008473ffffffffffffffffffffffffffffffffffffffff1673ffffffffffffffffffffffffffffffffffffffff16815260200190815260200160002060008282546135e0919061468d565b92505081905550816002600083815260200190815260200160002060006101000a81548173ffffffffffffffffffffffffffffffffffffffff021916908373ffffffffffffffffffffffffffffffffffffffff160217905550808273ffffffffffffffffffffffffffffffffffffffff16600073ffffffffffffffffffffffffffffffffffffffff167fddf252ad1be2c89b69c2b068fc378daa952ba7f163c4a11628f55a4df523b3ef60405160405180910390a46136a160008383612e57565b5050565b60405180608001604052806000815260200160008152602001600073ffffffffffffffffffffffffffffffffffffffff1681526020016000151581525090565b8280546136f1906140c3565b90600052602060002090601f016020900481019282613713576000855561375a565b82601f1061372c57805160ff191683800117855561375a565b8280016001018555821561375a579182015b8281111561375957825182559160200191906001019061373e565b5b509050613767919061376b565b5090565b5b8082111561378457600081600090555060010161376c565b5090565b6000604051905090565b600080fd5b600080fd5b60007fffffffff0000000000000000000000000000000000000000000000000000000082169050919050565b6137d18161379c565b81146137dc57600080fd5b50565b6000813590506137ee816137c8565b92915050565b60006020828403121561380a57613809613792565b5b6000613818848285016137df565b91505092915050565b60008115159050919050565b61383681613821565b82525050565b6000602082019050613851600083018461382d565b92915050565b600081519050919050565b600082825260208201905092915050565b60005b83811015613891578082015181840152602081019050613876565b838111156138a0576000848401525b50505050565b6000601f19601f8301169050919050565b60006138c282613857565b6138cc8185613862565b93506138dc818560208601613873565b6138e5816138a6565b840191505092915050565b6000602082019050818103600083015261390a81846138b7565b905092915050565b6000819050919050565b61392581613912565b811461393057600080fd5b50565b6000813590506139428161391c565b92915050565b60006020828403121561395e5761395d613792565b5b600061396c84828501613933565b91505092915050565b600073ffffffffffffffffffffffffffffffffffffffff82169050919050565b60006139a082613975565b9050919050565b6139b081613995565b82525050565b60006020820190506139cb60008301846139a7565b92915050565b6139da81613995565b81146139e557600080fd5b50565b6000813590506139f7816139d1565b92915050565b60008060408385031215613a1457613a13613792565b5b6000613a22858286016139e8565b9250506020613a3385828601613933565b9150509250929050565b613a4681613912565b82525050565b6000602082019050613a616000830184613a3d565b92915050565b60008060408385031215613a7e57613a7d613792565b5b6000613a8c85828601613933565b9250506020613a9d85828601613933565b9150509250929050565b600080600060608486031215613ac057613abf613792565b5b6000613ace868287016139e8565b9350506020613adf868287016139e8565b9250506040613af086828701613933565b9150509250925092565b600081519050919050565b600082825260208201905092915050565b6000819050602082019050919050565b613b2f81613912565b82525050565b613b3e81613995565b82525050565b613b4d81613821565b82525050565b608082016000820151613b696000850182613b26565b506020820151613b7c6020850182613b26565b506040820151613b8f6040850182613b35565b506060820151613ba26060850182613b44565b50505050565b6000613bb48383613b53565b60808301905092915050565b6000602082019050919050565b6000613bd882613afa565b613be28185613b05565b9350613bed83613b16565b8060005b83811015613c1e578151613c058882613ba8565b9750613c1083613bc0565b925050600181019050613bf1565b5085935050505092915050565b60006020820190508181036000830152613c458184613bcd565b905092915050565b600080fd5b600080fd5b7f4e487b7100000000000000000000000000000000000000000000000000000000600052604160045260246000fd5b613c8f826138a6565b810181811067ffffffffffffffff82111715613cae57613cad613c57565b5b80604052505050565b6000613cc1613788565b9050613ccd8282613c86565b919050565b600067ffffffffffffffff821115613ced57613cec613c57565b5b613cf6826138a6565b9050602081019050919050565b82818337600083830152505050565b6000613d25613d2084613cd2565b613cb7565b905082815260208101848484011115613d4157613d40613c52565b5b613d4c848285613d03565b509392505050565b600082601f830112613d6957613d68613c4d565b5b8135613d79848260208601613d12565b91505092915050565b600060208284031215613d9857613d97613792565b5b600082013567ffffffffffffffff811115613db657613db5613797565b5b613dc284828501613d54565b91505092915050565b608082016000820151613de16000850182613b26565b506020820151613df46020850182613b26565b506040820151613e076040850182613b35565b506060820151613e1a6060850182613b44565b50505050565b6000608082019050613e356000830184613dcb565b92915050565b600060208284031215613e5157613e50613792565b5b6000613e5f848285016139e8565b91505092915050565b613e7181613821565b8114613e7c57600080fd5b50565b600081359050613e8e81613e68565b92915050565b60008060408385031215613eab57613eaa613792565b5b6000613eb9858286016139e8565b9250506020613eca85828601613e7f565b9150509250929050565b600067ffffffffffffffff821115613eef57613eee613c57565b5b613ef8826138a6565b9050602081019050919050565b6000613f18613f1384613ed4565b613cb7565b905082815260208101848484011115613f3457613f33613c52565b5b613f3f848285613d03565b509392505050565b600082601f830112613f5c57613f5b613c4d565b5b8135613f6c848260208601613f05565b91505092915050565b60008060008060808587031215613f8f57613f8e613792565b5b6000613f9d878288016139e8565b9450506020613fae878288016139e8565b9350506040613fbf87828801613933565b925050606085013567ffffffffffffffff811115613fe057613fdf613797565b5b613fec87828801613f47565b91505092959194509250565b6000806040838503121561400f5761400e613792565b5b600083013567ffffffffffffffff81111561402d5761402c613797565b5b61403985828601613d54565b925050602061404a85828601613933565b9150509250929050565b6000806040838503121561406b5761406a613792565b5b6000614079858286016139e8565b925050602061408a858286016139e8565b9150509250929050565b7f4e487b7100000000000000000000000000000000000000000000000000000000600052602260045260246000fd5b600060028204905060018216806140db57607f821691505b6020821081036140ee576140ed614094565b5b50919050565b7f4552433732313a20617070726f76656420717565727920666f72206e6f6e657860008201527f697374656e7420746f6b656e0000000000000000000000000000000000000000602082015250565b6000614150602c83613862565b915061415b826140f4565b604082019050919050565b6000602082019050818103600083015261417f81614143565b9050919050565b7f4552433732313a20617070726f76616c20746f2063757272656e74206f776e6560008201527f7200000000000000000000000000000000000000000000000000000000000000602082015250565b60006141e2602183613862565b91506141ed82614186565b604082019050919050565b60006020820190508181036000830152614211816141d5565b9050919050565b7f4552433732313a20617070726f76652063616c6c6572206973206e6f74206f7760008201527f6e6572206e6f7220617070726f76656420666f7220616c6c0000000000000000602082015250565b6000614274603883613862565b915061427f82614218565b604082019050919050565b600060208201905081810360008301526142a381614267565b9050919050565b7f596f7520617265206e6f74206f776e6572206f662074686973206e6674000000600082015250565b60006142e0601d83613862565b91506142eb826142aa565b602082019050919050565b6000602082019050818103600083015261430f816142d3565b9050919050565b7f4974656d20697320616c7265616479206f6e2073616c65000000000000000000600082015250565b600061434c601783613862565b915061435782614316565b602082019050919050565b6000602082019050818103600083015261437b8161433f565b9050919050565b7f5072696365206d75737420626520657175616c20746f206c697374696e67207060008201527f7269636500000000000000000000000000000000000000000000000000000000602082015250565b60006143de602483613862565b91506143e982614382565b604082019050919050565b6000602082019050818103600083015261440d816143d1565b9050919050565b7f4552433732313a207472616e736665722063616c6c6572206973206e6f74206f60008201527f776e6572206e6f7220617070726f766564000000000000000000000000000000602082015250565b6000614470603183613862565b915061447b82614414565b604082019050919050565b6000602082019050818103600083015261449f81614463565b9050919050565b7f596f7520616c7265616479206f776e2074686973204e46540000000000000000600082015250565b60006144dc601883613862565b91506144e7826144a6565b602082019050919050565b6000602082019050818103600083015261450b816144cf565b9050919050565b7f506c65617365207375626d6974207468652061736b696e672070726963650000600082015250565b6000614548601e83613862565b915061455382614512565b602082019050919050565b600060208201905081810360008301526145778161453b565b9050919050565b60006080820190506145936000830187613a3d565b6145a060208301866139a7565b6145ad60408301856139a7565b6145ba6060830184613a3d565b95945050505050565b7f496e646578206f7574206f6620626f756e647300000000000000000000000000600082015250565b60006145f9601383613862565b9150614604826145c3565b602082019050919050565b60006020820190508181036000830152614628816145ec565b9050919050565b7f4e487b7100000000000000000000000000000000000000000000000000000000600052603260045260246000fd5b7f4e487b7100000000000000000000000000000000000000000000000000000000600052601160045260246000fd5b600061469882613912565b91506146a383613912565b9250827fffffffffffffffffffffffffffffffffffffffffffffffffffffffffffffffff038211156146d8576146d761465e565b5b828201905092915050565b60006146ee82613912565b91507fffffffffffffffffffffffffffffffffffffffffffffffffffffffffffffffff82036147205761471f61465e565b5b600182019050919050565b600081905092915050565b600061474182613857565b61474b818561472b565b935061475b818560208601613873565b80840191505092915050565b60006147738284614736565b915081905092915050565b7f6e6f742073746172746564000000000000000000000000000000000000000000600082015250565b60006147b4600b83613862565b91506147bf8261477e565b602082019050919050565b600060208201905081810360008301526147e3816147a7565b9050919050565b7f656e646564000000000000000000000000000000000000000000000000000000600082015250565b6000614820600583613862565b915061482b826147ea565b602082019050919050565b6000602082019050818103600083015261484f81614813565b9050919050565b7f2076616c7565203c206869676865737420626964000000000000000000000000600082015250565b600061488c601483613862565b915061489782614856565b602082019050919050565b600060208201905081810360008301526148bb8161487f565b9050919050565b7f4552433732313a206f776e657220717565727920666f72206e6f6e657869737460008201527f656e7420746f6b656e0000000000000000000000000000000000000000000000602082015250565b600061491e602983613862565b9150614929826148c2565b604082019050919050565b6000602082019050818103600083015261494d81614911565b9050919050565b7f4552433732313a2062616c616e636520717565727920666f7220746865207a6560008201527f726f206164647265737300000000000000000000000000000000000000000000602082015250565b60006149b0602a83613862565b91506149bb82614954565b604082019050919050565b600060208201905081810360008301526149df816149a3565b9050919050565b7f4f776e61626c653a2063616c6c6572206973206e6f7420746865206f776e6572600082015250565b6000614a1c602083613862565b9150614a27826149e6565b602082019050919050565b60006020820190508181036000830152614a4b81614a0f565b9050919050565b7f5072696365206d757374206265206174206c6561737420312077656900000000600082015250565b6000614a88601c83613862565b9150614a9382614a52565b602082019050919050565b60006020820190508181036000830152614ab781614a7b565b9050919050565b7f6e6f742073656c6c657200000000000000000000000000000000000000000000600082015250565b6000614af4600a83613862565b9150614aff82614abe565b602082019050919050565b60006020820190508181036000830152614b2381614ae7565b9050919050565b7f7374617274656400000000000000000000000000000000000000000000000000600082015250565b6000614b60600783613862565b9150614b6b82614b2a565b602082019050919050565b60006020820190508181036000830152614b8f81614b53565b9050919050565b7f546f6b656e2055524920616c7265616479206578697374730000000000000000600082015250565b6000614bcc601883613862565b9150614bd782614b96565b602082019050919050565b60006020820190508181036000830152614bfb81614bbf565b9050919050565b7f45524337323155524953746f726167653a2055524920717565727920666f722060008201527f6e6f6e6578697374656e7420746f6b656e000000000000000000000000000000602082015250565b6000614c5e603183613862565b9150614c6982614c02565b604082019050919050565b60006020820190508181036000830152614c8d81614c51565b9050919050565b6000614ca08285614736565b9150614cac8284614736565b91508190509392505050565b7f4f776e61626c653a206e6577206f776e657220697320746865207a65726f206160008201527f6464726573730000000000000000000000000000000000000000000000000000602082015250565b6000614d14602683613862565b9150614d1f82614cb8565b604082019050919050565b60006020820190508181036000830152614d4381614d07565b9050919050565b7f4552433732313a206f70657261746f7220717565727920666f72206e6f6e657860008201527f697374656e7420746f6b656e0000000000000000000000000000000000000000602082015250565b6000614da6602c83613862565b9150614db182614d4a565b604082019050919050565b60006020820190508181036000830152614dd581614d99565b9050919050565b7f4552433732313a207472616e736665722066726f6d20696e636f72726563742060008201527f6f776e6572000000000000000000000000000000000000000000000000000000602082015250565b6000614e38602583613862565b9150614e4382614ddc565b604082019050919050565b60006020820190508181036000830152614e6781614e2b565b9050919050565b7f4552433732313a207472616e7366657220746f20746865207a65726f2061646460008201527f7265737300000000000000000000000000000000000000000000000000000000602082015250565b6000614eca602483613862565b9150614ed582614e6e565b604082019050919050565b60006020820190508181036000830152614ef981614ebd565b9050919050565b6000614f0b82613912565b9150614f1683613912565b925082821015614f2957614f2861465e565b5b828203905092915050565b7f436f756e7465723a2064656372656d656e74206f766572666c6f770000000000600082015250565b6000614f6a601b83613862565b9150614f7582614f34565b602082019050919050565b60006020820190508181036000830152614f9981614f5d565b9050919050565b7f4552433732313a20617070726f766520746f2063616c6c657200000000000000600082015250565b6000614fd6601983613862565b9150614fe182614fa0565b602082019050919050565b6000602082019050818103600083015261500581614fc9565b9050919050565b7f4552433732313a207472616e7366657220746f206e6f6e20455243373231526560008201527f63656976657220696d706c656d656e7465720000000000000000000000000000602082015250565b6000615068603283613862565b91506150738261500c565b604082019050919050565b600060208201905081810360008301526150978161505b565b9050919050565b7f45524337323155524953746f726167653a2055524920736574206f66206e6f6e60008201527f6578697374656e7420746f6b656e000000000000000000000000000000000000602082015250565b60006150fa602e83613862565b91506151058261509e565b604082019050919050565b60006020820190508181036000830152615129816150ed565b9050919050565b60006060820190506151456000830186613a3d565b61515260208301856139a7565b61515f604083018461382d565b949350505050565b7f4552433732314d657461646174613a2055524920717565727920666f72206e6f60008201527f6e6578697374656e7420746f6b656e0000000000000000000000000000000000602082015250565b60006151c3602f83613862565b91506151ce82615167565b604082019050919050565b600060208201905081810360008301526151f2816151b6565b9050919050565b600081519050919050565b600082825260208201905092915050565b6000615220826151f9565b61522a8185615204565b935061523a818560208601613873565b615243816138a6565b840191505092915050565b600060808201905061526360008301876139a7565b61527060208301866139a7565b61527d6040830185613a3d565b818103606083015261528f8184615215565b905095945050505050565b6000815190506152a9816137c8565b92915050565b6000602082840312156152c5576152c4613792565b5b60006152d38482850161529a565b91505092915050565b7f4e487b7100000000000000000000000000000000000000000000000000000000600052601260045260246000fd5b600061531682613912565b915061532183613912565b925082615331576153306152dc565b5b828204905092915050565b600061534782613912565b915061535283613912565b925082615362576153616152dc565b5b828206905092915050565b7f4e487b7100000000000000000000000000000000000000000000000000000000600052603160045260246000fd5b7f4552433732313a206d696e7420746f20746865207a65726f2061646472657373600082015250565b60006153d2602083613862565b91506153dd8261539c565b602082019050919050565b60006020820190508181036000830152615401816153c5565b9050919050565b7f4552433732313a20746f6b656e20616c7265616479206d696e74656400000000600082015250565b600061543e601c83613862565b915061544982615408565b602082019050919050565b6000602082019050818103600083015261546d81615431565b905091905056fea2646970667358221220cd44027c60543eb1c798f92ae6dc3f150ba1b128494aa674165cefaf67bf190464736f6c634300080e0033",
  "immutableReferences": {},
  "source": "// SPDX-License-Identifier: MIT\npragma solidity >=0.4.22 <0.9.0;\n\nimport \"@openzeppelin/contracts/token/ERC721/extensions/ERC721URIStorage.sol\";\nimport \"@openzeppelin/contracts/utils/Counters.sol\";\nimport \"@openzeppelin/contracts/access/Ownable.sol\";\n\ncontract NftMarket is ERC721URIStorage, Ownable {\n    using Counters for Counters.Counter;\n\n    struct NftItem {\n        uint256 tokenId;\n        uint256 price;\n        address creator;\n        bool isListed;\n    }\n\n    uint256 public listingPrice = 0.025 ether;\n\n    Counters.Counter private _listedItems;\n    Counters.Counter private _tokenIds;\n\n    mapping(string => bool) private _usedTokenURIs; //xac nh xem URI  tn ti cha\n    mapping(uint256 => NftItem) private _idToNftItem; //id=>nft\n\n    mapping(address => mapping(uint256 => uint256)) private _ownedTokens; //a ch => (s th t => tokenId)\n    mapping(uint256 => uint256) private _idToOwnedIndex; //tokenId => s th t th bao nhiu ca 1 address\n\n    uint256[] private _allNfts; //chua id cua tat ca token\n\n    mapping(uint256 => uint256) private _idToNftIndex; //id=>index\n\n    mapping(uint256 => bool) private _idToStarted; //id => is started bid\n    mapping(uint256 => uint256) private _idToEndAt;\n    mapping(uint256 => address) private _idToHighestBidder;\n    mapping(uint256 => uint256) private _idToHighestBid;\n    mapping(uint256 => address) private _idToBidOwn;\n\n    event NftItemCreated(\n        uint256 indexed tokenId,\n        uint256 price,\n        address creator,\n        bool isListed\n    );\n\n    event NftTransactions(\n        uint256 indexed tokenId,\n        uint256 price,\n        address from,\n        address to,\n        uint time\n    );\n\n    constructor() ERC721(\"ABC\", \"VTKV\") {}\n\n    function getEndAtById(uint256 tokenId) public view returns(uint256) {\n        return _idToEndAt[tokenId];\n    }\n\n    function start(uint256 tokenId, uint256 time) external {\n        address owner = ERC721.ownerOf(tokenId);\n        bool isStarted = _idToStarted[tokenId];\n        require(msg.sender == owner, \"not seller\");\n        require(isStarted == false, \"started\");\n        _idToStarted[tokenId] = true;\n        _idToEndAt[tokenId] = time + 1000*100;\n        _idToBidOwn[tokenId] = owner;\n        _transfer(owner, address(this), tokenId);\n    }\n\n    function bid(uint256 tokenId, uint256 time) external payable {\n        bool isStarted = _idToStarted[tokenId];\n        uint256 endAt = _idToEndAt[tokenId];\n        uint256 highestBid = _idToHighestBid[tokenId];\n        address highestBidder = _idToHighestBidder[tokenId];\n        require(isStarted, \"not started\");\n        require(time < endAt, \"ended\");\n        require(msg.value > highestBid, \" value < highest bid\");\n        if(highestBidder != address(0)) {\n            payable(highestBidder).transfer(highestBid);\n        }\n        _idToHighestBid[tokenId] = msg.value;\n        _idToHighestBidder[tokenId] = msg.sender;\n    }\n\n    function end(uint256 tokenId, uint256 time) external payable{\n        address bidOwn = _idToBidOwn[tokenId];\n        bool isStarted = _idToStarted[tokenId];\n        uint256 endAt = _idToEndAt[tokenId];\n        uint256 highestBid = _idToHighestBid[tokenId];\n        address highestBidder = _idToHighestBidder[tokenId];\n        require(isStarted, \"not started\");\n        require(time >= endAt, \"ended\");\n        _idToStarted[tokenId] = false;\n        _idToEndAt[tokenId] = 0;\n        if(highestBidder == address(0)) {\n            _transfer(address(this), bidOwn, tokenId);\n        } else {\n            _transfer(address(this), highestBidder, tokenId);\n        }\n        payable(bidOwn).transfer(highestBid);\n        _idToHighestBid[tokenId] = 0;\n        _idToHighestBidder[tokenId] = address(0);\n        _idToBidOwn[tokenId] = address(0);\n    }\n\n    function setListingPrice(uint256 newPrice) external onlyOwner {\n        require(newPrice > 0, \"Price must be at least 1 wei\");\n        listingPrice = newPrice;\n    }\n\n    function getNftItem(uint256 tokenId) public view returns (NftItem memory) {\n        return _idToNftItem[tokenId];\n    }\n\n    function listedItemsCount() public view returns (uint256) {\n        return _listedItems.current();\n    }\n\n    function tokenURIExists(string memory tokenURI) public view returns (bool) {\n        return _usedTokenURIs[tokenURI] == true;\n    }\n\n    function totalSupply() public view returns (uint256) {\n        return _allNfts.length;\n    }\n\n    function tokenByIndex(uint256 index) public view returns (uint256) {\n        require(index < totalSupply(), \"Index out of bounds\");\n        return _allNfts[index];\n    }\n\n    function tokenOfOwnerByIndex(address owner, uint256 index)\n        public\n        view\n        returns (uint256)\n    {\n        require(index < ERC721.balanceOf(owner), \"Index out of bounds\");\n        return _ownedTokens[owner][index];\n    }\n\n    function getAllNftsOnSale() public view returns (NftItem[] memory) {\n        uint256 allItemsCounts = totalSupply();\n        uint256 currentIndex = 0;\n        NftItem[] memory items = new NftItem[](_listedItems.current());\n\n        for (uint256 i = 0; i < allItemsCounts; i++) {\n            uint256 tokenId = tokenByIndex(i);\n            NftItem storage item = _idToNftItem[tokenId];\n\n            if (item.isListed == true) {\n                items[currentIndex] = item;\n                currentIndex += 1;\n            }\n        }\n\n        return items;\n    }\n\n    function getOwnedNfts() public view returns (NftItem[] memory) {\n        uint256 ownedItemsCount = ERC721.balanceOf(msg.sender);\n        NftItem[] memory items = new NftItem[](ownedItemsCount);\n\n        for (uint256 i = 0; i < ownedItemsCount; i++) {\n            uint256 tokenId = tokenOfOwnerByIndex(msg.sender, i);\n            NftItem storage item = _idToNftItem[tokenId];\n            items[i] = item;\n        }\n\n        return items;\n    }\n\n    function mintToken(string memory tokenURI, uint256 price)\n        public\n        payable\n        returns (uint256)\n    {\n        require(!tokenURIExists(tokenURI), \"Token URI already exists\");\n        require(\n            msg.value == listingPrice,\n            \"Price must be equal to listing price\"\n        );\n\n        _tokenIds.increment();\n        _listedItems.increment();\n\n        uint256 newTokenId = _tokenIds.current();\n\n        _safeMint(msg.sender, newTokenId);\n        _setTokenURI(newTokenId, tokenURI);\n        _createNftItem(newTokenId, price);\n        _usedTokenURIs[tokenURI] = true;\n\n        return newTokenId;\n    }\n\n    function buyNft(uint256 tokenId) public payable {\n        uint256 price = _idToNftItem[tokenId].price;\n        address owner = ERC721.ownerOf(tokenId);\n\n        require(msg.sender != owner, \"You already own this NFT\");\n        require(msg.value == price, \"Please submit the asking price\");\n\n        _idToNftItem[tokenId].isListed = false;\n        _listedItems.decrement();\n\n        _transfer(owner, msg.sender, tokenId);\n        payable(owner).transfer(msg.value);\n\n        emit NftTransactions(tokenId, msg.value, owner, msg.sender, block.timestamp);\n    }\n\n    function placeNftOnSale(uint256 tokenId, uint256 newPrice) public payable {\n        require(\n            ERC721.ownerOf(tokenId) == msg.sender,\n            \"You are not owner of this nft\"\n        );\n        require(\n            _idToNftItem[tokenId].isListed == false,\n            \"Item is already on sale\"\n        );\n        require(\n            msg.value == listingPrice,\n            \"Price must be equal to listing price\"\n        );\n\n        _idToNftItem[tokenId].isListed = true;\n        _idToNftItem[tokenId].price = newPrice;\n        _listedItems.increment();\n    }\n\n    function _createNftItem(uint256 tokenId, uint256 price) private {\n        require(price > 0, \"Price must be at least 1 wei\");\n\n        _idToNftItem[tokenId] = NftItem(tokenId, price, msg.sender, true);\n\n        emit NftItemCreated(tokenId, price, msg.sender, true);\n        emit NftTransactions(tokenId, price, address(0), msg.sender, block.timestamp);\n    }\n\n    function _beforeTokenTransfer(\n        address from,\n        address to,\n        uint256 tokenId\n    ) internal virtual override {\n        super._beforeTokenTransfer(from, to, tokenId);\n\n        // minting token\n        if (from == address(0)) {\n            _addTokenToAllTokensEnumeration(tokenId);\n        } else if (from != to) {\n            _removeTokenFromOwnerEnumeration(from, tokenId);\n        }\n\n        if (to == address(0)) {\n            _removeTokenFromAllTokensEnumeration(tokenId);\n        } else if (to != from) {\n            _addTokenToOwnerEnumeration(to, tokenId);\n        }\n    }\n\n    function _addTokenToAllTokensEnumeration(uint256 tokenId) private {\n        _idToNftIndex[tokenId] = _allNfts.length;\n        _allNfts.push(tokenId);\n    }\n\n    function _addTokenToOwnerEnumeration(address to, uint256 tokenId) private {\n        uint256 length = ERC721.balanceOf(to);\n        _ownedTokens[to][length] = tokenId;\n        _idToOwnedIndex[tokenId] = length;\n    }\n\n    function _removeTokenFromOwnerEnumeration(address from, uint256 tokenId)\n        private\n    {\n        uint256 lastTokenIndex = ERC721.balanceOf(from) - 1;\n        uint256 tokenIndex = _idToOwnedIndex[tokenId];\n\n        if (tokenIndex != lastTokenIndex) {\n            uint256 lastTokenId = _ownedTokens[from][lastTokenIndex];\n\n            _ownedTokens[from][tokenIndex] = lastTokenId;\n            _idToOwnedIndex[lastTokenId] = tokenIndex;\n        }\n\n        delete _idToOwnedIndex[tokenId];\n        delete _ownedTokens[from][lastTokenIndex];\n        //gn gi tr ca ni cn xa bng gi tr ti v tr cui cng ri gn v tr cui cng=0, khng th xa mapping, ch c th gn=0\n    }\n\n    function _removeTokenFromAllTokensEnumeration(uint256 tokenId) private {\n        uint256 lastTokenIndex = _allNfts.length - 1;\n        uint256 tokenIndex = _idToNftIndex[tokenId];\n        uint256 lastTokenId = _allNfts[lastTokenIndex];\n\n        _allNfts[tokenIndex] = lastTokenId;\n        _idToNftIndex[lastTokenId] = tokenIndex;\n\n        delete _idToNftIndex[tokenId];\n        _allNfts.pop();\n    }\n}\n",
  "sourcePath": "/home/thanh/Desktop/nft_marketplace/market/contracts/NftMarket.sol",
  "compiler": {
    "name": "solc",
    "version": "0.8.14+commit.80d49f37.Emscripten.clang"
  },
  "schemaVersion": "3.4.7",
  "updatedAt": "2022-07-07T17:30:57.463Z",
  "networkType": "ethereum",
  "devdoc": {
    "kind": "dev",
    "methods": {
      "approve(address,uint256)": {
        "details": "See {IERC721-approve}."
      },
      "balanceOf(address)": {
        "details": "See {IERC721-balanceOf}."
      },
      "getApproved(uint256)": {
        "details": "See {IERC721-getApproved}."
      },
      "isApprovedForAll(address,address)": {
        "details": "See {IERC721-isApprovedForAll}."
      },
      "name()": {
        "details": "See {IERC721Metadata-name}."
      },
      "owner()": {
        "details": "Returns the address of the current owner."
      },
      "ownerOf(uint256)": {
        "details": "See {IERC721-ownerOf}."
      },
      "renounceOwnership()": {
        "details": "Leaves the contract without owner. It will not be possible to call `onlyOwner` functions anymore. Can only be called by the current owner. NOTE: Renouncing ownership will leave the contract without an owner, thereby removing any functionality that is only available to the owner."
      },
      "safeTransferFrom(address,address,uint256)": {
        "details": "See {IERC721-safeTransferFrom}."
      },
      "safeTransferFrom(address,address,uint256,bytes)": {
        "details": "See {IERC721-safeTransferFrom}."
      },
      "setApprovalForAll(address,bool)": {
        "details": "See {IERC721-setApprovalForAll}."
      },
      "supportsInterface(bytes4)": {
        "details": "See {IERC165-supportsInterface}."
      },
      "symbol()": {
        "details": "See {IERC721Metadata-symbol}."
      },
      "tokenURI(uint256)": {
        "details": "See {IERC721Metadata-tokenURI}."
      },
      "transferFrom(address,address,uint256)": {
        "details": "See {IERC721-transferFrom}."
      },
      "transferOwnership(address)": {
        "details": "Transfers ownership of the contract to a new account (`newOwner`). Can only be called by the current owner."
      }
    },
    "version": 1
  },
  "userdoc": {
    "kind": "user",
    "methods": {},
    "version": 1
  }
}